:020000040800F2
:10000000505A00207102000843230008511E0008C6
:1000100041230008C5040008292B00080000000047
:10002000000000000000000000000000B101000816
:10003000C7040008000000000D0200088125000828
:100040008B0200088B0200088B0200088B0200085C
:100050008B0200088B0200088B0200088B0200084C
:10006000FD0400088B0200088B0200088B020008C8
:100070008B0200088B0200088B0200088B0200082C
:100080008B0200088B0200088B02000800000000B1
:100090000000000000000000000000000305000850
:1000A0008B0200088B020008512600088B02000812
:1000B0008B0200088B0200088B0200088B020008EC
:1000C0008B0200088B0200088B0200088B020008DC
:1000D0008B0200088B0200088B0200080000000061
:1000E0008B0200088B0200088B0200080000000051
:1000F0000000000000000000000000008B0200086B
:10010000000000008B0200088B0200088B02000830
:1001100000000000000000000000000000000000DF
:100120008B0200088B0200088B0200088B0200087B
:100130008B0200080000000000000000000000002A
:100140000000000000000000000000008B0200081A
:100150008B0200088B0200088B0200088B0200084B
:100160008B0200088B020008000000000000000065
:10017000000000000000000000000000000000007F
:10018000000000008B0200080000000000000000DA
:100190008B0200088B020008DFF810D000F0EEF8A8
:1001A0000048004709310008AFF30080505A002092
:1001B0002C4B19680868B0E8F04F80F30988BFF34A
:1001C0006F8F4FF0000080F311887047000000002F
:1001D00008480068006880F308884FF0000080F34A
:1001E000148862B661B6BFF34F8FBFF36F8F00DF25
:1001F00000BF00BF08ED00E0DFF80C00016841F42B
:1002000070010160704700BF88ED00E0EFF30980E6
:10021000BFF36F8F134B1A681EF0100F08BF20ED4D
:10022000108A20E9F04F106009B44FF0500080F3BD
:100230001188BFF34F8FBFF36F8F03F01BFB4FF09D
:10024000000080F3118809BC19680868B0E8F04F15
:100250001EF0100F08BFB0EC108A80F30988BFF3BE
:100260006F8F704748000020EFF305807047000053
:100270000648804706480047FEE7FEE7FEE7FEE740
:10028000FEE7FEE7FEE7FEE7FEE7FEE741260008A1
:10029000990100082DE9F05F0546002092469B4633
:1002A00088460646814640241BE02846414647468C
:1002B000224600F053F853465A46C01A914110D3D3
:1002C00011461846224600F03AF82D1A67EB01084D
:1002D0004F4622460120002100F031F817EB0009BB
:1002E0004E41201EA4F10104DFDC484631462A4677
:1002F0004346BDE8F09F40EA01039B0703D009E0B5
:1003000008C9121F08C0042AFAD203E011F8013B01
:1003100000F8013B521EF9D27047D2B201E000F85A
:10032000012B491EFBD270470022F6E710B5134699
:100330000A4604461946FFF7F0FF204610BD202A62
:1003400004DB203A00FA02F1002070479140C2F12C
:10035000200320FA03F3194390407047202A04DB5E
:10036000203A21FA02F00021704721FA02F3D0402E
:10037000C2F120029140084319467047064C074DD0
:1003800006E0E06840F0010394E807009847103465
:10039000AC42F6D3FFF704FFA83C0008C83C0008B5
:1003A00010B5FF2000F020F855280AD05521FF2075
:1003B00000F05AF8FF2000F017F8552801D000206F
:1003C00010BD012010BD70B514460D46064606E06E
:1003D0003046711C8EB200F007F805F8010B641E60
:1003E000A4B2F5D270BD000070B5054601F0C4FDA1
:1003F00014482C0A0088B0F5006F4FF0A00005D318
:1004000001F094FD01F0E8FD204602E000EB44001D
:10041000C0B201F08BFD01F0DFFDE8B201F086FD16
:1004200001F0DAFD01F0A8FDA12001F07FFD01F04F
:10043000D3FD002001F03DFD044601F0B5FD20464E
:1004400070BD00002400002070B516460C4605461D
:1004500006E02178284600F007F86D1CADB2641C58
:10046000761EB6B2F5D270BD70B50E46044601F0E8
:1004700083FD1348250A0088B0F5006F4FF0A000F7
:1004800005D301F053FD01F0A7FD284602E000EB83
:100490004500C0B201F04AFD01F09EFDE0B201F05E
:1004A00045FD01F099FD304601F040FD01F094FD5D
:1004B00001F07AFDBDE870400A2002F04FBE000056
:1004C00024000020FEE7704770B54FF6FA710A4D20
:1004D000081A84B228684462284601F0B3FA4FF63D
:1004E000F971286801E0426A94B28C42FBD3BDE8FE
:1004F0007040014801F00EBB7C130020042000F086
:10050000D3B910B54FF4807000F0CEF9BDE81040BB
:100510004FF4007000F0C8B972B6FEE70F4B401EF2
:1005200081F00102082817D2DFE800F00406080A6B
:100530000C0E101201210CE002210AE0042108E057
:10054000082106E0102104E0202102E0402100E023
:100550008021184600F0A9BA704700000008024048
:10056000204A10B51170204990FBF1F21D49491C39
:10057000CA711E4A90FBF2F30A2293FBF2F402FBCB
:1005800014338B711A4B90FBF3F393FBF2F402FBE1
:1005900014334B7142F2107390FBF3F393FBF2F4BC
:1005A00002FB14330B714FF47A7390FBF3F393FB5C
:1005B000F2F402FB1433CB70642390FBF3F393FB50
:1005C000F2F402FB14338B7090FBF2F393FBF2F422
:1005D00002FB14334B7090FBF2F302FB1300087024
:1005E00010BD0000000000208096980040420F00DF
:1005F000A08601002DE9F0410C4E01240746751C30
:100600003078A04205EB040010F8011C01D1012252
:1006100000E00022204600F00BF8384602F09EFD74
:10062000641CE4B2092CEBD3BDE8F081000000208B
:1006300070B5054600244AB1234A0A2924D2DFE8CE
:1006400001F010121416181A1C1E20221E4A0A321B
:100650000A2919D2DFE801F00507090B0D0F111364
:100660001517147810E054780EE094780CE0D478E4
:100670000AE0147908E0547906E0947904E0D4792A
:1006800002E0147A00E0547A5FF0000624FA06F0E3
:10069000C00700D0012001F0C3FB012001F0D0FB16
:1006A000002001F0CDFB761CF6B2082EEED36D1EB5
:1006B000E8B201F06BFB012001F0BAFBBDE870402D
:1006C000002001F0B5BB00000900002010B500F0CB
:1006D0006DF8BDE8104000F001B8000010B58CB016
:1006E000182217A16846FFF706FE1BA002F072FB56
:1006F0004FF47A74204602F031FDFFF751FEE8B165
:100700001BA000BF02F066FB204602F027FD162268
:1007100069460020FFF798FE162206A90020FFF781
:1007200052FE06A918A002F055FB19A002F052FBD8
:100730004FF4FA6002F012FD0CB010BD15A0E1E715
:10074000415432344330322054455354205375635E
:100750006365737321000000463431315F544553A3
:10076000543A20415432344330320D0A0000000024
:100770004154323443303220496E697420537563DA
:1007800063657373210D0A0025730D0A00000000D4
:100790000D0A00004154323443303220496E6974EE
:1007A000204661696C6564210D0A000030B58DB08A
:1007B00018221BA16846FFF79EFD02F019FA0446B5
:1007C0001DA002F007FB4FF47A75284602F0C6FC24
:1007D00014B3A4F57F40FF381ED021461BA002F0C1
:1007E000F9FA284602F0BAFC1C4C1522694620464C
:1007F00002F044FA152206A9204602F0C9F906A91A
:1008000017A002F0E7FA18A002F0E4FA4FF4FA6039
:1008100002F0A4FC0DB030BD14A002F0DBFAE0E75A
:100820005732355131362054455354205375636344
:100830006573732100000000463431315F54455325
:10084000543A205732355131360D0A00466C6173E7
:10085000682049443A202523780D0A009CFF1F0098
:1008600025730D0A000000000D0A00005265616446
:10087000204944204661696C6564210D0A0000002E
:1008800070B5044600F016F90546601C02D0044815
:100890000078044400F00EF9401BA042FAD370BD6A
:1008A0003800002070470000044910B50A68024271
:1008B00002D00860FFF7F6FF10BD0000143C0140B5
:1008C0002DE9F84FDFF8B8A10022012403254FF0ED
:1008D0000F090AF1040BAAF1040E00BF0B6804FA19
:1008E00002F63340B34273D10F7907F00307012FAB
:1008F00001D0022F16D187684FEA420805FA08FC9A
:1009000027EA0C07D1F80CC00CFA08FC4CEA070CDB
:10091000C0F808C04768B7430E79C6F30016964082
:100920003E4346600E79F643B6070DD0C7685600C1
:1009300005FA06FC27EA0C07D1F808C00CFA06FCF9
:100940004CEA070CC0F80CC00E7906F00306022E24
:1009500010D1D60800EB8608D8F8206057074FEA78
:10096000D76C09FA0CF7BE430F6907FA0CF7374347
:10097000C8F8207006684FEA420C05FA0CF7BE432F
:100980000F7907F0030707FA0CF7374307604E6843
:1009900016F4403F6DD03B4E376847F480473760D0
:1009A000366822F0030706F480460096364E07EBC1
:1009B000060CDCF8086897073F0F09FA07F826EAE3
:1009C0000806DFF8C880404503D14FF000081EE05C
:1009D0004FE0DFF8BC80404502D14FF0010816E03F
:1009E000DFF8B080404502D14FF002080FE0DFF899
:1009F000A880404502D14FF0030808E0DFF89C8052
:100A0000404502D14FF0040801E04FF0070808FA12
:100A100007F848EA0608CCF80888DAF80060574674
:100A2000D1F804C09E435FEACC2C00D51E433E6043
:100A3000DBF800605F46D1F804C09E435FEA8C2C6F
:100A400000D51E433E60DEF800607746D1F804C052
:100A50009E435FEA8C3C00D51E433E60084F083F32
:100A60003E68D1F804C09E435FEACC3C00D51E43EB
:100A70003E60521C102AFFF431AFBDE8F88F000031
:100A8000083C014044380240003001400000024070
:100A90000004024000080240000C02400010024026
:100AA0000069084000D0012070470AB18161704799
:100AB0000904FBE701488068704700003800002007
:100AC0000248816802781144816070473800002034
:100AD0000B4810B5016841F400710160016841F4F0
:100AE00080610160016841F480710160032000F0C1
:100AF0008DF80F2000F006F800F03EF8002010BD41
:100B0000003C024010B5014688B000221A2000F0D7
:100B10005DF81A2000F04CF813480024016841F4F5
:100B200080210160006805A900F4802006906846D5
:100B300000F06EFA00F09CFA0C490D4AB0FBF1F19E
:100B40000C48491E026040F2E732C0E90324C0E9C4
:100B5000011400F036FF10B1012008B010BD0548A7
:100B600000F0A2FFF9E700004438024040420F00C5
:100B700000480140141900200C4882B0016841F47B
:100B800080410160006800F4804000900748001F29
:100B9000016841F0805101600068002200F080503F
:100BA00000900F21901E02B000F010B844380240AF
:100BB000002809DB00F01F0201219140400980005C
:100BC00000F1E020C0F8001170470000F0B40E4BB7
:100BD0001B680C46C3F30223C3F10705042D00D99B
:100BE0000425191D072901D2002300E0DB1E012680
:100BF00006FA05F1491E214099409E40761E164096
:100C00003143F0BC02F0F6B80CED00E0064900F00C
:100C1000070208684FF6FF03184040EA0220034A23
:100C200010430860704700000CED00E00000FA057A
:100C30002DE9F0418AB0040005D094F8BD0426687F
:100C4000002520B108E001200AB0BDE8F08184F859
:100C5000BC54204600F05EF8032084F8BD04F06B1D
:100C6000C00500D42561206801F0ECFE04F11001FC
:100C7000282288466846FFF73EFB94E80F0001F003
:100C8000BFFD0226C8BB0021206801F01FFF002025
:100C900001270EE000EBC00104EB810181F83D70FB
:100CA00001F83C0F08810D71CD600D61401CC0B290
:100CB0008D6161688142EDD8002011E000EBC00138
:100CC00004EB810181F87D5281F87C0281F8805229
:100CD000C1F88852C1F88C52401CC0B2C1F894527D
:100CE00061688142EAD8282241466846FFF703FB43
:100CF00094E80F0001F0ECFD10B184F8BD64A2E7A8
:100D000084F8385084F8BD74206801F0D3FD0020C9
:100D10009AE7000010B586B0044614216846FFF734
:100D200003FB2068B0F1A04F27D1154800210268CD
:100D300042F001020260006800F0010005904FF4EB
:100D4000C05000900220CDE90101032003900A2049
:100D5000049069460B48FFF7B3FD0948001D016880
:100D600041F08001016006481430016841F480417F
:100D70000160006800F48040059006B010BD0000DE
:100D800030380240000002402DE9F8430446006874
:100D90004FF00109C1074FF0000601D1400729D5E6
:100DA000DFF82081C8F86860FFF784FE0746464DEB
:100DB00005E000BFFFF77EFEC01B022859D8286857
:100DC0000001F7D4A068217B800140EA01706168CE
:100DD00008433D4984310860C8F86890FFF76AFE0F
:100DE000074604E0FFF766FEC01B022841D82868CA
:100DF0000001F7D52078800752D53348403001688C
:100E000041F0805101600068304D00F0805000904A
:100E1000286840F480702860FFF74CFE074604E025
:100E2000FFF748FEC01B022823D82868C005F7D565
:100E3000254D7035286810F4407020D0218A01F4C7
:100E4000407181421BD02868214920F44070C1F8CC
:100E500000900E6028602868C00710D0FFF72AFEB7
:100E6000064641F2883707E0FFF724FE801BB842B0
:100E700002D90320BDE8F88328688007F4D52169EA
:100E80001148C1F301220830032A12D0016821F46D
:100E9000F81101602868218AC1F30B01084328601A
:100EA0002078000703D50B49207DC1F8E001002020
:100EB000E0E70268084B22F4F81219400A43026086
:100EC000E8E70000000047420038024000700040A0
:100ED000400E474200104742FFFCFF0F2DE9F0474C
:100EE0000E46050065D0DFF81481D8F80000F7B28F
:100EF00000F00700B04207D288F80070D8F8000070
:100F000000F00700B04254D128683D4C810712D54B
:100F1000400703D5206840F4E0502060287800079F
:100F200003D5206840F4604020602068A96820F064
:100F3000F000084320602878C0072DD03049686849
:100F40000839012812D0022813D0032811D00968CB
:100F5000890700292DDA216821F00301014321606E
:100F6000FFF7A8FD814641F2883A0EE0096889033F
:100F7000EFE709688901ECE7FFF79CFDA0EB0901A9
:100F8000514502D90320BDE8F0872068696800F068
:100F90000C00B0EB810FEFD1D8F80010404601F003
:100FA0000701B14207D90770006800F00700B0429E
:100FB00001D00120E7E72878400705D52068E968D7
:100FC00020F4E050084320602878000706D5206808
:100FD000296920F4604040EAC100206000F058F820
:100FE0002168084AC1F30311515CC84006490860F2
:100FF00006480068FFF786FD0020C4E7003C024079
:1010000008380240743C0008440000203C000020E6
:101010000F2202600C4A136803F003034360136855
:1010200003F0F0038360136803F4E053C3601268B5
:101030004FF4E05303EAD20202610448006800F072
:10104000070008607047000008380240003C02407A
:101050000448054900680968044AC1F38221515CCB
:10106000C84070474400002008380240843C000813
:101070000448054900680968044AC1F34231515CDB
:10108000C84070474400002008380240843C0008F3
:10109000154810B5006810F00C02144813D0411028
:1010A000042A0FD0082A0ED10F4C241F226823686F
:1010B00002F03F025B0207D52068C0F38810A0FB56
:1010C000010106E0084610BD2168C1F38811A1FBAB
:1010D00000010023FFF7DEF82168C1F30141491C3C
:1010E0004900B0FBF1F010BD083802400024F400C4
:1010F0002DE9F84F04006ED02078DFF84C93C0073C
:10110000A9F104054AD009F104000168C1F3810185
:10111000012908D00068C0F3810002280AD1D9F85B
:101120000000400206D52868800337D56068002893
:10113000E1D033E06068B0F5803F10D0B0F5A02F6B
:10114000286810D020F480302860286820F480209F
:1011500028606068A8B1FFF7ADFC06460DE028687E
:1011600040F48030F4E740F480202860F7E700BFC7
:10117000FFF7A0FC801B642873D828688003F7D58C
:101180000CE0FFF797FC064605E000BFFFF792FC76
:10119000801B6428F0D828688003F7D42078DFF813
:1011A000AC8280074FF0000A3ED5A748001D0168B9
:1011B00011F00C0F08D00068C0F3810002280BD199
:1011C000D9F80000400207D42868800716D5E068E7
:1011D000012800D112E033E1E068B8B10120C8F87D
:1011E0000000FFF767FC064605E000BFFFF762FC62
:1011F000801B0228C0D828688007F7D52868216995
:1012000020F0F80040EAC10028600DE0C8F800A016
:10121000FFF750FC064604E0FFF74CFC801B022859
:101220001FD828688007F7D42078000722D5864F7A
:1012300087486169703771B101210160FFF73AFC9D
:10124000064604E0FFF736FC801B022809D8386800
:101250008007F7D50EE0C0F800A0FFF72BFC06468C
:1012600005E082E0FFF726FC801B02287DD8386865
:101270008007F7D42078400768D5DFF8CCB1002785
:101280000BF13C0BDBF80000C0000BD4DBF80010C6
:1012900041F08051CBF80010DBF80000012700F08E
:1012A000805000906B4E3068C00510D4306840F418
:1012B00080703060FFF7FEFB009005E0FFF7FAFB5F
:1012C0000099401A022850D83068C005F6D55E4E05
:1012D000A0686C3601280FD00528306810D020F0A7
:1012E00001003060306820F004003060A068B8B1C0
:1012F000FFF7E0FB00900FE0306840F00100F4E7FA
:1013000040F004003060F7E7FFF7D4FB0099411A82
:1013100041F28830814266D830688007F4D50EE00B
:10132000FFF7C8FB009007E0FFF7C4FB0099411AE4
:1013300041F28830814256D830688007F4D42FB10A
:10134000DBF8001021F08051CBF80010A069C8B381
:101350003D49091D0968C1F3810102294AD00228CB
:10136000504607D0C8F8600000E03CE0FFF7A2FB61
:1013700004463BE04746C8F86000FFF79BFB064683
:1013800005E000BFFFF796FB801B02282BD82868DA
:101390008001F7D4D4E907010843A16A2E4A49081D
:1013A00002EB0141626A41EA8211084394F82C1071
:1013B00040EA0161C9F8001001203866FFF77AFBA6
:1013C000044606E03EE000BFFFF774FB001B022866
:1013D00009D828688001F7D534E000BFFFF76AFB21
:1013E000001B022802D90320BDE8F88F286880017D
:1013F000F4D427E00128F7D0D9F80000E26900F41E
:10140000800191421CD1226A00F03F01914217D124
:1014100047F6C071626A0140B1EB821F10D1A26A27
:101420004FF0FF3300F4403103EB5202B1EB024FB7
:1014300006D194F82C1000F07060B0EB016F01D071
:101440000120D1E70020CFE70438024000004742E6
:10145000800E4742007000400000FFFF10B50400FE
:1014600002D0607F10B106E0012010BD002020777F
:10147000204600F039F8022060772168CA204862CF
:10148000216853204862204600F068FF30BB206886
:101490008168144A1140816021688868626810433D
:1014A000D4E904231A43104388602168E068086186
:1014B00020680169228941EA02410161204600F069
:1014C00071FF58B921680A6C22F480220A642168ED
:1014D0000A6CA3691A430A64012161772268FF211B
:1014E000516210BDBFFF8FFF10B586B004461821B2
:1014F0006846FEF719FF0949206888420CD102208E
:101500000090C00104906846FFF73EFC08B1FFF769
:1015100003F803490120086006B010BD0028004010
:101520003C0E474270B50446007F0B46012819D097
:101530000126267702206077B2B19878D97840EA00
:10154000014558781978000240EA41300543216886
:10155000CA204862216853204862204600F0FEFEFF
:10156000D0B122E0022070BD5878C10603D500F04A
:10157000EF000A305870D87800F0E4FE0204587882
:1015800000F0E0FE42EA0022987800F0DBFE024321
:10159000187842EA4035DAE7074805402068456098
:1015A000204600F0FFFE00B966772268FF215162F5
:1015B0000021217770BD00003FFFFF002DE9F041C1
:1015C0000446007F0D46012823D04FF0010884F81F
:1015D0001C80022060772068002780684FEA406006
:1015E000D2B1002800DBEF70A878297840EA0146E4
:1015F0006878E978000240EA815006432168CA20F1
:101600004862216853204862204600F0A7FEB8B126
:101610002CE00220BDE8F081002800DBEF70287884
:1016200000F090FE0204687800F08CFE42EA00228E
:10163000A87800F087FE0243E87842EA8056DDE7AA
:101640000D480640206806602068816821F48021EA
:101650008160D5E90301084321688A6810438860E6
:10166000204600F09FFE08B984F81D802268FF2103
:1016700051622777CEE700007F7F7F0070B5044678
:101680000068C16821F0A001C160FFF713FA0546A8
:101690004FF47A7607E000BFFFF70CFA401BB04228
:1016A00001D9032070BD2068C0688006F4D50020F1
:1016B00070BD70B5040009D0606A002540B1256195
:1016C0006561A56294F8510040B10CE0012070BD45
:1016D0006068B0F5827FF4D0E561F2E784F850509D
:1016E000204600F045F8022084F851002068016887
:1016F00021F040010160A088218900F4827001F48A
:1017000004410843A18901F400610843217C01F0F0
:1017100002010843217D01F001010843218B01F4FE
:1017200000710843217F01F03801084394F820102C
:1017300001F080010843218D01F400510843216824
:101740000860A069042101EA104094F8241001F017
:1017500010010843216848602068C16921F40061D4
:10176000C1616565012084F85100002070BD000052
:1017700010B586B0044614216846FEF7D5FD14491D
:101780002068884221D113480021026842F4804237
:101790000260006800F4804005900E48103802682E
:1017A00042F002020260006800F0020005904FF46F
:1017B000604000900220CDE9010103200390052044
:1017C000049069460448FFF77BF806B010BD00009E
:1017D0000038004040380240000402402DE9F84F34
:1017E000044690F8500000270A9E1D4692468B46FC
:1017F0004FF0010901280ED0012084F85000FFF7B6
:1018000059F9804694F85100616801280CD0B1F56F
:10181000827F07D102E00220BDE8F88FA16809B9F4
:10182000042801D00227C2E0BBF1000F27D0BAF193
:10183000000F24D01DB394F85100042802D00520D5
:1018400084F8510000206065C4F838A0E587A587BA
:10185000C4F830B0E586A58620646064206801681D
:10186000490603D4016841F040010160E068B0F529
:10187000006F606805D0E8B3012D46D07FE00127F6
:1018800095E008B1012D39D1206B21680088C8602E
:10189000206B801C2063E08E401EE0862EE02068D6
:1018A000816889070FD5E18E69B1B9F1010F0AD1BD
:1018B000216B0988C160206B801C2063E08E401E74
:1018C000E0864FF0000920688168C9070CD0E18FDD
:1018D00051B1C068A16B0880A06B801CA063E08F31
:1018E000401EE0874FF00109FFF7E4F8A0EB080085
:1018F000B04200E009E001D3701C50D1E08E002816
:10190000CDD1E08F0028CAD13FE0206B216800785C
:101910000873206B401C2063E08E401EE0862EE0A2
:101920002068816889070FD5E18E69B1B9F1010F8F
:101930000AD1216B09780173206B401C2063E08E73
:10194000401EE0864FF0000920688168C9070CD06E
:10195000E18F51B1C068A16B0870A06B401CA063FF
:10196000E08F401EE0874FF00109FFF7A3F8A0EBDE
:101970000800B04202D3701C01D010E07EB1E08EAE
:101980000028CDD1E08F0028CAD1424631462046FA
:1019900000F03EFD28B101272020606507E0032705
:1019A00005E0A06818B92068C1688068009001202F
:1019B00084F85100002084F8500038462CE7704726
:1019C000704710B5040003D094F83D0010B107E053
:1019D000012010BD002084F83C00204600F01EF8D5
:1019E000022084F83D00211D206800F037FE012010
:1019F00084F8460084F83E0084F83F0084F84000F4
:101A000084F8410084F8420084F8430084F84400DC
:101A100084F8450084F83D00002010BD08B500683A
:101A20000649884208D10648016841F40031016046
:101A3000006800F40030009008BD00000044014040
:101A40004438024090F83D10012901D00120704730
:101A5000022180F83D1000680E4988420ED0B0F196
:101A6000804F0BD00C49884208D00C49884205D0E1
:101A70000B49884202D00B49884204D1816801F0A9
:101A80000701062903D0016841F00101016000202F
:101A900070470000000001400004004000080040C2
:101AA000000C00400040014090F83D10012901D099
:101AB00001207047022180F83D100168CA6842F099
:101AC0000102CA6000680E4988420ED0B0F1804F12
:101AD0000BD00C49884208D00B49884205D00B49ED
:101AE000884202D00A49884204D1816801F0070186
:101AF000062903D0016841F0010101600020704710
:101B0000000001400004004000080040000C0040BC
:101B10000040014001680A6A41F211131A4207D1DC
:101B20000A6A9B101A4203D10A6822F001020A6075
:101B3000012180F83D1000207047704770B50446C1
:101B4000006801694FF00005C943890715D4C168D1
:101B5000C943890711D4E91E01610120207720685B
:101B600080698007204602D0FFF7E7FF04E000F01D
:101B700098F8204600F096F8257720680169C94357
:101B8000490717D4C168C943490713D46FF004014A
:101B90000161022020772068806910F4407F204690
:101BA00002D0FFF7CAFF04E000F07BF8204600F007
:101BB00079F8257720680169C943090716D4C168F7
:101BC000C943090712D46FF008010161042020778E
:101BD0002068C0698007204602D0FFF7AEFF04E00E
:101BE00000F05FF8204600F05DF825772068016975
:101BF000C943C90617D4C168C943C90613D46FF0D5
:101C000010010161082020772068C06910F4407F2E
:101C1000204602D0FFF791FF04E000F042F8204692
:101C200000F040F8257720680169C943C90708D149
:101C3000C168C943C90704D1891E0161204600F06B
:101C400033F820680169C943090609D4C168C9434A
:101C5000090605D46FF0800101612046FFF7AFFE51
:101C600020680169C943490609D4C168C9434906C6
:101C700005D46FF040010161204600F01FF8206894
:101C80000169C94389060BD4C168C943890607D4D1
:101C90006FF0200101612046BDE87040FFF790BE63
:101CA00070BD70477047000000680349884201D149
:101CB000FEF706BF7047000000480140704770B54E
:101CC000040004D094F83D00002510B106E0012086
:101CD00070BD84F83C50204600F022F8242084F89F
:101CE0003D002068C16821F40051C160204600F029
:101CF00001FD2068016921F490410161206841697A
:101D000021F02A0141612068C16841F40051C1609D
:101D10002564202084F83D0084F83E00002070BD3A
:101D200010B586B0044614216846FEF7FDFA144942
:101D30002068884221D113480021026842F0100235
:101D40000260006800F0100005900E481438026828
:101D500042F001020260006800F0010005904FF4BB
:101D6000C06000900220CDE901010320039007200C
:101D7000049069460448FEF7A3FD06B010BD0000BC
:101D800000100140443802400000024010B508280D
:101D90002DD2DFE800F00406080F181D22270120CD
:101DA00012E0012015E0012018E000BF00F028F843
:101DB000012004E0012016E000F022F80020BDE838
:101DC000104000F015B8002000F022F80120EDE7E7
:101DD000002000F01DF80120EEE7002000F018F8C8
:101DE0000020E3E7002000F013F80020E4E710BD36
:101DF00002464FF480610148FEF757BE00080240DA
:101E000002464FF400610148FEF74FBE0008024051
:101E100002464FF480510148FEF747BE00080240D9
:101E2000024608210148FEF740BE000000040240BF
:101E3000024610210148FEF738BE000000040240AF
:101E4000024620210148FEF730BE00000004024097
:101E5000FEE710B5002000F053F8012000F0B8FABA
:101E6000002000F05BF80220FEF72EFB012000F0BE
:101E700047F80220FEF728FBBDE81040002000F0E4
:101E80003FB810B5002000F03BF8012000F0A0FAA8
:101E9000012000F043F80220FEF716FB012000F0BD
:101EA0002FF80220FEF710FBBDE81040002000F0E4
:101EB00027B870B506460024204600F089FA0025B0
:101EC000002000F01DF80220FEF7FEFA012000F0CD
:101ED00017F86006040E00F01BF8012801D1641CFD
:101EE000E4B20120FEF7F0FA6D1CEDB2082DE7D345
:101EF0001EB1FFF7AEFF204670BDFFF7C2FFFAE745
:101F0000024640210148FEF7D0BD00000004024017
:101F100080210148FEF7C4BD000402400246802132
:101F20000148FEF7C2BD00000004024070B505463E
:101F3000012000F04DFA0020FFF7E2FF0024280600
:101F400001D5012000E00020FFF7E8FF6806050E3C
:101F50000220FEF7B9FA0120FFF7D2FF0220FEF7B8
:101F6000B3FA0020FFF7CCFF0220FEF7ADFA641CA5
:101F7000E4B2082CE3D370BD10B5012000F028FABC
:101F80000120FFF7CBFF0120FFF7BAFF0420FEF787
:101F90009BFA0020FFF7C2FF0420FEF795FABDE888
:101FA00010400020FFF7ACBF10B5012000F010FA80
:101FB0000020FFF7A5FF0020FFF7B0FF0420FEF789
:101FC00083FA0120FFF79CFF0120FFF7A7FFBDE880
:101FD00010400420FEF778BA10B50024204600F027
:101FE000F7F90120FFF79AFF0120FEF76DFA0120B3
:101FF000FFF786FF0120FEF767FA07E0641CE4B2F2
:10200000FA2C03D9FFF7D0FF002010BDFFF780FFA7
:102010000128F3D00020FFF773FF012010BD00005E
:1020200010B59CB01C2216496846FEF764F90021E1
:10203000684601F09FF8134C11491C2220601C31A6
:1020400007A8FEF758F9002107A801F093F80C49FA
:1020500060601C2238310EA8FEF74DF900210EA851
:1020600001F088F80649A0601C22543115A8FEF73B
:1020700042F9002115A801F07DF8E0601CB010BD08
:10208000043C0008280000202DE9F04387B014210B
:102090006846FEF749F94B480026016841F0040103
:1020A0000160016801F004010591016841F08001BF
:1020B0000160016801F080010591016841F00201B1
:1020C0000160016801F002010591016841F0010120
:1020D0000160016801F001010591016841F008010A
:1020E00001600068DFF8E08000F008000590012240
:1020F00041F6FF414046FEF7D8FCDFF8D0900122C0
:102100004FF48E514846FEF7D0FC00223821484655
:10211000FEF7CBFC0124FF20CDE90004CDE9024607
:1021200069464046FEF7CCFB4FF48450CDE90004ED
:10213000032569464846CDE90245FEF7C1FB280262
:102140004FF40417CDE90007694602944046FEF7B4
:10215000B7FB4FF4E050CDE9000469464046CDE9B5
:102160000245FEF7ADFB0420CDE900076946029465
:102170001748FEF7A5FB7820CDE900040220CDE941
:10218000020569464846FEF79BFB2002CDE90004A4
:10219000CDE9024669464846FEF792FB002205213A
:1021A0000820FEF713FD0820FEF702FD002205219E
:1021B0001720FEF70BFD1720FEF7FAFC07B0BDE86D
:1021C000F083000030380240000802400004024062
:1021D000000C024010B586B014216846FEF7A4F842
:1021E0001B48002419490594C0E900147F2181602F
:1021F000FF21C0E9031444618461FFF72FF908B19E
:10220000FEF78AF98DF800408DF801408DF8024004
:102210000394002269460E480494FFF7CFF908B1F1
:10222000FEF77AF901208DF814008DF815008DF86D
:1022300016008DF81740002205A90548FFF772F92E
:10224000002801D0FEF768F906B010BD0028004054
:1022500004130020104810B50E4901604FF482713C
:102260004160002102228160C0E903120122426123
:102270005202C0E906210162416281620A21C16203
:10228000FFF717FA002803D0BDE81040FEF744B965
:1022900010BD000000380040241300200B4810B58A
:1022A000094901605F21416000214FF6FF72C0E9DA
:1022B000021201618161FFF784FB002803D0BDE8B1
:1022C0001040FEF729B910BD004401407C130020E6
:1022D0000C4810B50A4901604FF4E131416000211A
:1022E00081600C22C160C0E904128161C161FFF705
:1022F000E6FC002803D0BDE81040FEF70DB910BD84
:1023000000100140C41300200C4810B54FF0A0414C
:1023100001600421416002220021C0E90321C0E9DB
:10232000062101624162C1620163FEF781FC00285F
:1023300003D0BDE81040FEF7EFB810BD0814002030
:10234000FEE7FEE7002103E0491C0A38C9B2C0B22B
:102350000A28F9D2090740EA116070472DE9F041D7
:10236000044600680025C168490618D4C16841F0D8
:102370008001C160FEF79EFB06464FF47A78042781
:1023800007E000BFFEF796FB801B404501D9677749
:1023900001252068C068400601D4002DF2D02846EF
:1023A000BDE8F08170B5044600680025C16821F0E1
:1023B0008001C16020688068800606D42046FFF74F
:1023C0005DF910B1042060770125284670BD00003A
:1023D00005490028086820F440400860086801D0DA
:1023E00040F48040086070470004024001B582B0AC
:1023F00000208DF80400FF200090012301AA02A90B
:102400000248FFF7EBF99DF804000EBD24130020ED
:1024100038B504461248134B0068B0FBF3F04FF494
:102420007A73584300906068B0F5827F0DD10B46F7
:10243000009200228021204600F016F870B1606DF5
:1024400040F020006065032038BD009830B1401E88
:10245000009020688068C0430006F6D5002038BD93
:102460004400002000366E012DE9F8431E469146D7
:1024700088460446089DFEF71DFB401B351AFEF7F3
:1024800019FB074625480068C0F3CB30684338E0A5
:10249000701C37D0FEF70EFBC01BA84203D215B14B
:1024A000009860B32CE02068416821F0E0014160B1
:1024B0006068B0F5827F0BD1A068B0F5004F02D004
:1024C000B0F5806F04D12068016821F040010160FF
:1024D000A06AB0F5005F09D12068016821F40051BD
:1024E00001602068016841F400510160012084F816
:1024F0005100002084F850000320BDE8F883002537
:10250000401E00902068816838EA010004D0002154
:102510004945BDD10020F0E70121F9E74400002042
:10252000012000F01BFEFBE74FF4AF750124E0B281
:102530000121FDF7F3FF284600F010FE641C64B291
:10254000092CF4DB0124E0B20021FDF7E7FF284667
:1025500000F004FE641C64B2092CF4DBE6E7000022
:1025600000210348FDF7FCFF0020FEF743F8FBE7DE
:10257000AA40F903FEF7AAF8012000F0EFFDFBE7FF
:1025800010B5502080F31188BFF34F8FBFF36F8FCA
:1025900001F070FA18B104494FF080500860002033
:1025A00080F3118810BD000004ED00E030B593B059
:1025B00030216846FDF7B8FE14210CA8FDF7B4FEE3
:1025C0001D480025016841F080510160006800F05D
:1025D000805011901948016841F440410160006841
:1025E000022400F440401190052000904FF4803008
:1025F0000190012002908005CDE9064008AA042040
:10260000602182E813000B906846FEF771FD08B167
:1026100072B6FEE70CA90F2081E831004FF480501C
:10262000CDE90F0503210CA8FEF758FC002801D0C6
:1026300072B6FEE713B030BD403802400070004073
:102640000248016841F470010160704788ED00E0C4
:102650000148FFF773BA000014190020F0B50268B2
:102660001D4B1E4C9F031E4D1E4E984207D0B84274
:1026700005D0A04203D0A84201D0B04204D122F03C
:10268000700C4A6842EA0C02984210D0B8420ED050
:10269000A0420CD0A8420AD0B04208D0124CA042AE
:1026A00005D0124CA04202D0114CA04203D122F41A
:1026B0004074CA6822434C6922F0800222430260BF
:1026C0008A68C2620A688262984201D1096901631C
:1026D00001214161F0BD0000000001400004004004
:1026E00000080040000C0040004001400044014050
:1026F0000048014070B5044600680169E26821F4B1
:102700004051114301612169A068E2690843616990
:10271000114308432168CA6849F20C639A43024393
:10272000CA6020684169A26921F440711143416186
:1027300031492068884202D03049884202D1FEF7F0
:1027400097FC01E0FEF784FCE2690023192164256F
:102750003226B2F5004F626828D0A0FB0101930F2A
:102760009200FDF797FD0146B0FBF5F06FF01802FF
:10277000504301EB800006EB0010B0FBF5F000F0D9
:10278000F002B1FBF5F002EB0012B1FBF5F06FF0D7
:102790001803584301EB800006EB0010B0FBF5F086
:1027A00000F00F0021681044886070BDA0FB01019B
:1027B00092185B41FDF76EFD0146B0FBF5F002019A
:1027C000B1FBF5F06FF01803584301EB800006EB06
:1027D000C000B0FBF5F000F0F80002EB4002B1FBE6
:1027E000F5F0584301EB800006EBC000B0FBF5F0BC
:1027F00000F00700D6E7000000100140001401407F
:1028000070B5044606990A9E049D0D98012916D0BC
:10281000E06840F04000E060204600F02BF8A16B3B
:102820001EB321F48031A163012D07D1A16841F0CD
:102830000601A160A16841F02001A16070BDA16BFB
:1028400021F48031A163E168094A1140E160E16847
:1028500021F44011E160012803D1E06840F48010C8
:10286000E060204600F006F8DEE741F48031DAE768
:10287000BFFFBDFF08B500220D490092009B5B1C05
:1028800000938B420CD80369002BF7DA009202699F
:1028900042F001020261009A521C00928A4201D960
:1028A000032008BD0269D207F5D1002008BD000051
:1028B000400D0300D0F8001E21F00301C0F8001EF7
:1028C000D0F8041841F00201C0F804180020704745
:1028D0002DE9F04F00250E460446DDF82CC0DDF84A
:1028E00024B0109F2846294604EB8002C2F8041148
:1028F000401C0F28F8D32046C7B1806B20F400128B
:10290000A263A06B40F40022A26308468846C4F884
:10291000000ED4F800182046C4F80018BCF1010FCE
:1029200016D0D0F8001841F0030116E0D0F80408E2
:1029300040F00202C4F80428A06B40F40012A26325
:10294000A06B20F40022A263A06B20F48022DBE7BE
:10295000D0F800180BB141F00101C0F800181021A7
:1029600000F094F800B10125204600F071F800B1A4
:1029700001254046C4F81088C4F81488C4F81C889F
:1029800000214FF000694FF0904A4FF67F3314E07A
:1029900004EB4112D2F800C9BCF1000F06DA11B104
:1029A000C2F800A904E0C4F8009901E0C2F80009E7
:1029B000C2F81009C2F80839491C8E42E8D8002133
:1029C00015E000BF04EB4112D2F800CBBCF1000FC0
:1029D00006DA11B1C2F800AB04E0C4F8009B01E0D4
:1029E000C2F8000BC2F8100BC2F8083B491C8E421B
:1029F000E8D8D4F8101821F48072C4F81028A06127
:102A00006FF080406061BBF1000F03D1A06940F01E
:102A10001000A061A06909490843A0610C9818B191
:102A2000A06940F00800A061012F03D1A06904490A
:102A30000843A0612846BDE8F08F000000383C80C4
:102A400004000040816821F001018160002070478E
:102A500008B500220C490092009B5B1C00938B423E
:102A60000AD80369002BF7DA009210220261009A5B
:102A7000521C00928A4201D9032008BD0269D20685
:102A8000F5D4002008BD0000400D030018B5002358
:102A90000D4A0093009C641C009494420CD8046975
:102AA000002CF7DA0093202343EA81110161009999
:102AB000491C0091914201D9032018BD0169890682
:102AC000F5D4002018BD0000400D030070B5044689
:102AD000C068002520F0C040E060012901D079B134
:102AE00020E0E06840F00050E0600120FDF7C8FE03
:102AF00060696D1C10F0010F10D1322DF5D30DE07F
:102B0000E06840F08040E0600120FDF7B9FE6069B8
:102B10006D1C10F0010F01D0322DF5D3322D01D0F4
:102B2000002070BD012070BDFEE7000002464FF49A
:102B300080510148FDF7B9BF0004024010B50403FD
:102B400000F0EAF800F08EF80020FFF7EFFF2020F9
:102B5000FFF74CFC0D480088A0F56F41183902D1F1
:102B6000200EFFF743FCC4F30740FFF73FFCC4F31C
:102B70000720FFF73BFCE0B2FFF738FC0120FFF72E
:102B8000D5FFBDE8104000F06DB800001E00002029
:102B900070B5044615460E460020FFF7C7FF032018
:102BA000FFF724FC11480088A0F56F41183902D1C5
:102BB000200EFFF71BFCC4F30740FFF717FCC4F31C
:102BC0000720FFF713FCE0B2FFF710FC002405E03C
:102BD000FF20FFF70BFC3055641CA4B2AC42F7D3C6
:102BE000BDE870400120FFF7A1BF00001E000020DB
:102BF00010B500242046FFF799FF9020FFF7F6FB61
:102C00000020FFF7F3FB0020FFF7F0FB0020FFF7A9
:102C1000EDFBFF20FFF7EAFB44EA0024FF20FFF76B
:102C2000E5FB04430120FFF781FF204610BD10B5EE
:102C3000012803D0022803D0032803D0052402E092
:102C4000352400E015240020FFF770FF2046FFF731
:102C5000CDFBFF20FFF7CAFB04460120FFF766FF0C
:102C6000204610BD10B50120FFF7E1FFC007FAD1E3
:102C7000BDE81040012000F071BA00002DE9F05FBE
:102C8000C0F30B06DFF88C80070BC6F580548A462C
:102C900081461546A24200D81446380383464FF4B5
:102CA00080524146FFF774FF002006E0321818F802
:102CB0000210FF2903D1401C80B2A042F6D3A042EB
:102CC00022D23846FFF73AFF002006E01AF800202B
:102CD0008319401C08F8032080B2A042F6D358465E
:102CE0004FF480524FEA080100F022F8A5420FD0BD
:102CF000281BA244A144002685B24FF480547F1CB7
:102D0000A542CAD82C46C8E7224651464846EBE7BA
:102D1000BDE8F09FB000002010B50020FFF706FFCF
:102D20000620FFF763FBBDE810400120FFF7FEBE61
:102D30002DE9F0410646C0B2C0F580740F46154635
:102D4000A24200D814464FF48078224639463046D5
:102D500000F00EF8A54208D0281B2744264485B26F
:102D60004446A542F1D82C46EFE7BDE8F0810000CB
:102D700070B515460E460446FFF7CEFF0020FFF75C
:102D8000D5FE0220FFF732FB11480088A0F56F4105
:102D9000183902D1200EFFF729FBC4F30740FFF7D3
:102DA00025FBC4F30720FFF721FBE0B2FFF71EFB72
:102DB000002404E0305DFFF719FB641CA4B2AC42B0
:102DC000F8D30120FFF7B2FEBDE87040FFF74ABF1D
:102DD0001E0000200FB4054B10B503A9044A029849
:102DE00000F028F810BC5DF814FB0000F530000876
:102DF000200000200907090E002804DB00F1E02074
:102E000080F80014704700F00F0000F1E02080F817
:102E1000141D704702E008C8121F08C1002AFAD129
:102E200070477047002001E001C1121F002AFBD14A
:102E3000704700002DE9FF4F8DB09B460F460446BA
:102E4000002606E025280BD05A460F999047641CAF
:102E5000761C20780028F5D111B03046BDE8F08FFF
:102E60000025A8460122984900E0054314F8013FD7
:102E7000203B02FA03F00842F7D120782E2817D120
:102E800014F8010F45F004052A280ED06FF02F0228
:102E90002078A0F1300109290AD808EB880102EB5B
:102EA000410100EB0108641CF2E757F8048B641C35
:102EB00020786C280DD004DC4C2812D06A2811D15F
:102EC00004E074280DD07A280CD10AE045F40015EE
:102ED00007E0617845F48015814202D1641C05F554
:102EE0008015641C2078692844D008DC0028B3D001
:102EF000582867D063280FD0642808D13AE070289A
:102F000065D0732812D075285AD078285AD05A46DE
:102F10000F999047761CD5E017F8040B8DF8000048
:102F200000208DF80100E946012003E057F8049BDA
:102F30004FF0FF3069074FF0000501D40AE06D1C27
:102F400045450DDA8542FADB19F805100029F6D15E
:102F500006E06D1C8542FCDB19F805100029F8D14C
:102F60002E4404E019F8010B5A460F9990476D1E44
:102F7000F8D2A7E00A200021CDE90801C5F30250EC
:102F800002280CD001CFC117021E71F100020CDA29
:102F90000023D0EB030063EB01012D2208E0FF1DAD
:102FA00027F00707F7E80201EEE72A0504D52B22F0
:102FB0008DF8282001223CE0EA073AD02022F7E7EA
:102FC0000A2000E010200021CDE9080107E01020D0
:102FD000002145F00405CDE908014FF00808C5F3CC
:102FE0000250022810D001CF00214FF0000A2A071A
:102FF00020D52278702A0DD0DDE908C38CF0100CA2
:103000005CEA030C0CD015E0FF1D27F00707F7E87A
:103010000201EAE740228DF828204FF0010A0CE077
:1030200050EA010306D030238DF828308DF829208E
:10303000022292462278582A04D024A20DF12009B7
:103040000B9209E026A2F9E7DDE90823FDF722F952
:103050000B9B9B5C09F8013D50EA0102F4D1ADEBFA
:10306000090020300890680701D44FF00108089942
:10307000884503DD0898A8EB000000E000208046AA
:10308000002506E00AA85A46405D0F9990476D1C3E
:10309000761C5545F6DB04E030205A460F999047E0
:1030A000761CB8F10001A8F10108F5DC05E019F87B
:1030B000010B5A460F999047761C0899481E0890B4
:1030C0000029F4DC641CC4E60928010030313233E5
:1030D0003435363738396162636465660000000054
:1030E000303132333435363738394142434445463E
:1030F0000000000003490A685206FCD5C2B24A60CB
:103100007047000000100140FDF7E2FCFFF74EFAA7
:10311000FEF7BAFFFFF75EF8FFF7DAF8FFF79AF865
:10312000FFF7F2F8FFF7BAF8FEF77AFF00F01DF8A4
:103130004FF47A7403A0FFF74DFE2046FDF7A0FB85
:10314000F8E7000048616E7269730D0A0000000024
:1031500001460020842900D0C81C704710B500B972
:10316000012000F023FB002010BD10B500F044FB4F
:10317000002010BD7FB50D4604464169B0F9080036
:1031800081B1A16971B1FFF7E3FFD4E905128DE8C0
:103190000700D4E900102B46226900F040FC0390A0
:1031A00004B070BDFFF7D4FF03A9CDE90001208A68
:1031B0002B4682B2D4E9001000F004FC012801D0B3
:1031C0000020EDE70398EBE72DE9F041184C0F469E
:1031D0000546E6682068001D00F020FA38B920682E
:1031E00090F82C1001208840216981432161681CDE
:1031F00007D137B12168BDE8F0410E48091D00F044
:1032000051BA20683544B5424560216805D2A06BAB
:10321000BDE8F041091D00F02DBA606B091D00F0FA
:1032200029FAA06A854200D2A562BDE8F0810000BB
:1032300048000020381A00202DE9F041054600F032
:103240003DFA2E4CA068401CA06020682C4F10B1A5
:10325000606940B32DE02560A068012829D10026CF
:1032600006EB860007EB800000F0F6F9761C072ECF
:10327000F6D323488C3000F0EFF92148A03000F05D
:10328000EBF91F48B43000F0E7F91D48C83000F0F2
:10329000E3F91B48DC3000F0DFF919488C3060633B
:1032A0001430A06305E02068E96AC06A884200D84B
:1032B0002560606A401C6062E96A012022698840DA
:1032C0001043206101EB810007EB8000291D00F015
:1032D000E9F900F013FA606900280CD02068E96A67
:1032E000C06A884207D207494FF080500860BFF398
:1032F0004F8FBFF36F8FBDE8F081000048000020C2
:103300005C19002004ED00E010B5044690F851006F
:1033100058B101280CD002280FD0502080F311881A
:10332000BFF34F8FBFF36F8FFEE7206B00F0FAF90A
:103330002046BDE8104000F0F5B910BD10484FF42C
:103340007051420706D0C01D0D4920F00700411AF8
:10335000C1F570510B4A00230144C2E9000308394A
:10336000183A21F0070111604B600B600B1AC0E99D
:10337000001393604FF000405360506170470000AD
:103380004C1A00209C000020144E154CA6F1C807D2
:103390004FF08058DFF84C9012E000BF00F08EF93B
:1033A000F068C568281D00F039F9A068401EA060CB
:1033B0006068401E606000F0A1F92846FFF7A4FF96
:1033C00060680028EAD138680128F9D9C9F8008076
:1033D000BFF34F8FBFF36F8FF2E70000241A002076
:1033E0004800002004ED00E02DE9F0479A46DDE9B1
:1033F000098481466FF00303206B03EB82021044C3
:10340000089E20F00707780707D0502080F3118826
:10341000BFF34F8FBFF36F8FFEE7002561B1002030
:1034200023180A5C83F834200A5C12B1401C10286F
:10343000F6D384F8435001E084F83450072E00D3CB
:103440000626E662C4E91165201D00F010F904F1BA
:10345000180000F00CF92461C6F107006462A06155
:10346000E56484F8505052464946384600F0C0F8AA
:103470002060B8F1000F01D0C8F80040BDE8F08727
:1034800030B5114900E011460A688242FBD34B680F
:103490005C18844203D14068184448600846436879
:1034A0001C18944209D1084C183C2468A24209D047
:1034B00052681A4442600A6812680260814200D071
:1034C000086030BD0460F9E79C0000200648416BAD
:1034D000096829B1416BC968C96849688162704748
:1034E0004FF0FF31FAE7000048000020084840682C
:1034F000401C4FF0500080F3118804D0BFF34F8F71
:10350000BFF36F8FFEE7BFF34F8FBFF36F8FFEE701
:10351000A40000202DE9F0410546002700F0A2F9A3
:10352000324E306808B9FFF709FF706905424ED185
:10353000C5B3083568070ED005F00700C0F10800D4
:103540000544680707D0502080F31188BFF34F8FE0
:10355000BFF36F8FFEE72DB37068854237D82348DD
:10356000183001460C6801E020460C466168A9420B
:1035700002D221680029F7D131688C4227D0076830
:103580002168016060680837411B10290FD9601954
:10359000420708D0502080F31188BFF34F8FBFF34C
:1035A0006F8FFEE713E041606560FFF769FF6168B8
:1035B0007068401A7060B268904200D2B060706962
:1035C00001430020C4E90001F068401CF06000F0F5
:1035D000B7FA780707D0502080F31188BFF34F8FD8
:1035E000BFF36F8FFEE73846BDE8F081840000200E
:1035F00010B5031F4FF080741C601B1F21F00101E8
:103600001960191F044B0B6014390A60091F6FF011
:10361000020244380A6010BDED340008D0E90132DE
:1036200001699A60D0E901235A604A68824201D157
:1036300082684A60002202610868401E08600868CB
:1036400070470000034B036003F1540008608020C2
:1036500010607047B010002000F108014FF0FF32F9
:10366000C0E90112C16001610021016070470021C1
:103670000161704730B50B685A1C02D000F1080296
:1036800002E0026904E02246546825689D42FAD9A6
:1036900053684B6099608A60516008610168491CF9
:1036A000016030BD42684A6093688B6093685960DE
:1036B000916008610168491C01607047502080F3E7
:1036C0001188BFF34F8FBFF36F8F0A494868401CC2
:1036D000486001280CD10848006810F0FF0F07D09F
:1036E000502080F31188BFF34F8FBFF36F8FFEE739
:1036F00070470000A400002004ED00E0084948687D
:1037000028B1401E486001D180F3118870475020D5
:1037100080F31188BFF34F8FBFF36F8FFEE7000078
:10372000A400002070B500282AD0164DA0F108048E
:1037300060686969084207D1502080F31188BFF39F
:103740004F8FBFF36F8FFEE722683AB1502080F3AE
:103750001188BFF34F8FBFF36F8FFEE78843606020
:1037600000F080F860686968084468602046FFF7E8
:1037700087FE2869401C2861BDE8704000F0E0B970
:1037800070BD0000840000204FF0E02000210161A6
:10379000816105494FF47A720968B1FBF2F1491E63
:1037A00041610721016170474400002010B502000B
:1037B00014D00F48006B38B1502080F31188BFF34C
:1037C0004F8FBFF36F8FFEE700F04CF800211046DB
:1037D000FFF7FAFC00F0B4F9002807D105494FF0D3
:1037E00080500860BFF34F8FBFF36F8F10BD000094
:1037F0004800002004ED00E010B586B000240394DA
:1038000005AA04A903A80494FFF71CFFDDE903013E
:103810000094CDE9011000230EA11048059A00F094
:10382000FEF80F490028C86211D0502080F311889B
:10383000BFF34F8FBFF36F8F4FF0FF3088620120CF
:103840004861CC6006B0BDE8104000F041B806B059
:1038500010BD000049444C450000000089330008B9
:10386000480000200248016B491C016370470000BA
:10387000480000201448016B11B10121C16170475B
:103880000021C1610169B1FA81F1C1F11F0101EBB0
:1038900081020E4951F822306BB101EB820101F136
:1038A00008034A6852684A609A4201D152684A60E5
:1038B000D16801607047502080F31188BFF34F8FAB
:1038C000BFF36F8FFEE70000480000205C19002066
:1038D0001CB537480168374A914207D1502080F320
:1038E0001188BFF34F8FBFF36F8FFEE70068314938
:1038F000491E884207D1502080F31188BFF34F8FB3
:10390000BFF36F8FFEE72C4908780190FF20087005
:1039100008788DF800009DF800009DF8002000F068
:10392000F000904207D0502080F31188BFF34F8FF2
:10393000BFF36F8FFEE79DF80000204C00F05000B1
:1039400020700720A06005E09DF8002052008DF84F
:103950000020401E9DF800201206F5D4A060032828
:1039600007D0502080F31188BFF34F8FBFF36F8FC4
:10397000FEE74FF44070A060019808700C482030BA
:10398000016841F470010160016841F0704101601B
:10399000FFF7FAFE00206060FCF72EFC0848016883
:1039A00041F040410160FCF713FC00201CBD000009
:1039B00000ED00E071C20F4100E400E0A40000202F
:1039C00034EF00E02DE9FF5F8346DDE90E8799467D
:1039D00016468A469000FFF79DFD05001CD0542036
:1039E000FFF798FD040014D00020256384F85100EF
:1039F000CDE90240CDE900874B4632465146584654
:103A0000FFF7F2FC2046FFF717FC012004B0BDE8E9
:103A1000F09F2846FFF786FE4FF0FF30F6E7F0B53F
:103A200085B0DDE90B640A9DA6B1DCB1542700978F
:103A30002663022684F85160002604AFCDE90246D1
:103A4000CDE90057FFF7D0FC2046FFF7F5FB0498BF
:103A500005B0F0BD502080F31188BFF34F8FBFF346
:103A60006F8FFEE7502080F31188BFF34F8FBFF3B5
:103A70006F8FFEE72DE9F0412F4C0026206B28B117
:103A8000A069401CA0613046BDE8F081E5686D1C6E
:103A9000E56013D1606B006838B1502080F3118865
:103AA000BFF34F8FBFF36F8FFEE7606BA16B616356
:103AB000A063206A401C2062FFF708FDA06ADFF8BF
:103AC0007C80854209D3606B0068A0B1606BC068E0
:103AD000C7687868854211D2A0622068C06A00EB8E
:103AE000800158F82100012800D90126E06900284A
:103AF000C9D00126C7E74FF0FF30EDE7381DFFF7CB
:103B00008DFDB86A18B107F11800FFF787FDF96A53
:103B10000120226988401043206101EB810108EBFC
:103B20008100391DFFF7BEFDF86A2168C96A884225
:103B3000C9D30126C7E70000480000205C19002017
:103B40002DE9F0472C4D00242746286B38B1FFF7AC
:103B5000B5FD286B401E2863286B40B146E050201D
:103B600080F31188BFF34F8FBFF36F8FFEE7A96813
:103B7000224E0120D1B3A6F1B40980463068E8B1E5
:103B8000F068C46804F11800FFF748FD201DFFF736
:103B900045FDE06A2A6908FA00F11143296100EB4A
:103BA000800109EB8100211DFFF77CFDE06A296897
:103BB000C96A8842E2D3C5F81C80DFE70CB1FFF781
:103BC00085FCAC6944B14646FFF754FF00B1EE6195
:103BD000641EF9D10020A861E86938B108490127BD
:103BE00038070860BFF34F8FBFF36F8FFFF786FD75
:103BF0003846BDE8F087000048000020101A002079
:103C000004ED00E09C3C00082125000800000000B5
:103C10000000000080000000000000000000000024
:103C20008C3C00082925000800000000000000006E
:103C3000800000000000000000000000903C000830
:103C40006125000802000000000000008000000064
:103C50000000000000000000943C000875250008EA
:103C600000000000000000008000000000000000D4
:103C7000000000000000000000000000010203043A
:103C80000607080900000000010203044C45440037
:103C90005345470054455354000000006465666175
:103CA000756C745461736B00C83C00080000002000
:103CB000B0000000142E0008783D0008B00000207D
:103CC000A0590000242E00080000000000000000A1
:103CD00000FD61DBF367B7BFE1FFF7FC60DAF26676
:103CE000B6BEE0FEF600000000000000000000008C
:103CF00000000000000000000000000000000000C4
:103D00000100000010000000000000000024F4008A
:103D100000000000000000000000000000000000A3
:103D20000000000000000000000000000000000093
:103D30000000000000000000000000000000000083
:103D40000000000000000000000000000000000073
:103D50000000000000000000000000000000000063
:103D60000000000000000000000000000000000053
:083D7000AAAAAAAA00000000A3
:040000050800019955
:00000001FF
