:020000040800F2
:10000000E04C0020FD020008832100084D1C000880
:1000100081210008550600085D2A00080000000044
:100020000000000000000000000000003D02000889
:10003000570600080000000099020008B5240008D7
:100040001703000817030008170300081703000828
:100050001703000817030008170300081703000818
:100060008D0600081703000817030008170300088F
:1000700017030008170300081703000817030008F8
:10008000170300081703000817030008000000000A
:1000900000000000000000000000000093060008BF
:1000A0001703000817030008852500081703000838
:1000B00017030008170300081703000817030008B8
:1000C00017030008170300081703000817030008A8
:1000D00017030008170300081703000800000000BA
:1000E00017030008170300081703000800000000AA
:1000F00000000000000000000000000017030008DE
:100100000000000017030008170300081703000889
:1001100000000000000000000000000000000000DF
:100120001703000817030008170300081703000847
:10013000170300080000000000000000000000009D
:10014000000000000000000000000000170300088D
:100150001703000817030008170300081703000817
:10016000170300081703000800000000000000004B
:10017000000000000000000000000000000000007F
:10018000000000001703000800000000000000004D
:10019000170300081703000800F002F800F03EF80B
:1001A0000AA090E8000C82448344AAF10107DA45D2
:1001B00001D100F033F8AFF2090EBAE80F0013F0E6
:1001C000010F18BFFB1A43F001031847A03C0000C1
:1001D000C03C0000103A24BF78C878C1FAD8520752
:1001E00024BF30C830C144BF04680C6070470000B1
:1001F0000023002400250026103A28BF78C1FBD830
:10020000520728BF30C148BF0B60704700207047BD
:100210001FB503F0BDF91FBD10B510BD00F0E8F922
:100220001146FFF7F5FF02F035FC00F006FA03B4C3
:10023000FFF7F2FF03BC02F022FC00002C4B196810
:100240000868B0E8F04F80F30988BFF36F8F4FF074
:10025000000080F311887047000000000848006823
:10026000006880F308884FF0000080F3148862B6BD
:1002700061B6BFF34F8FBFF36F8F00DF00BF00BFCA
:1002800008ED00E0DFF80C00016841F47001016046
:10029000704700BF88ED00E0EFF30980BFF36F8F78
:1002A000134B1A681EF0100F08BF20ED108A20E9CA
:1002B000F04F106009B44FF0500080F31188BFF385
:1002C0004F8FBFF36F8F02F09BFF4FF0000080F362
:1002D000118809BC19680868B0E8F04F1EF0100FCB
:1002E00008BFB0EC108A80F30988BFF36F8F7047A6
:1002F00044000020EFF30580704700000948804764
:1003000009480047FEE7FEE7FEE7FEE7FEE7FEE7F7
:10031000FEE7FEE7FEE7FEE704480549054A064B0F
:10032000704700007525000899010008E04600208C
:10033000E04C0020E0480020E0480020704753EAED
:10034000020C00F069802DE9F04B4FF00006002B05
:100350001FBFB3FA83F503FA05F424FA05F65E40ED
:1003600012BF1643B2FA82F502FA05F4C5F1200570
:100370001EBF22FA05FC44EA0C04203556EA044C60
:100380004FEA144418BF641C4FF000084FF00009F6
:10039000904271EB030C39D3002919BFB1FA81F7F0
:1003A00001FA07F6B0FA80F700FA07F6C7F120075E
:1003B0001EBF20FA07FC46EA0C062037B6FBF4FC09
:1003C000A7EB0507103F07F01F0BCBF120060CFA37
:1003D0000BFB2CFA06F644BFB3460026202FA4BF21
:1003E0005E464FF0000B5BEA060C08BF4FF0010BB6
:1003F00019EB0B09ABFB027C48EB0608C01B06FBA4
:1004000002CC0BFB03CC71EB0C01C1E70B4602469F
:1004100041464846BDE8F08B13B54FF000004FF061
:100420000001AFF30080BDE81C4070470FB40449E1
:1004300010B503AA029800F0ADF810BC5DF814FBEB
:10044000000000202DE9F0410F4604460020DFF8AF
:100450008480F84420622046E168884790B32528CC
:1004600006D0D4E901219047206A401C2062F2E7BF
:1004700000252046E16888472028064608DB312E03
:1004800006D208EB060010F8200C08B10543F0E78F
:10049000A80701D525F00405A6B1A6F14100192849
:1004A00002D8203645F400653A463146204625609C
:1004B000FFF7ACFE48B1012805D0FF1D27F0070764
:1004C0000837C8E703E03F1DC5E73046C9E7206AA3
:1004D000BDE8F081E639000010B5203AC0F00B808D
:1004E000B1E81850203AA0E81850B1E81850A0E838
:1004F0001850BFF4F5AF5FEA027C24BFB1E8185092
:10050000A0E8185044BF18C918C0BDE810405FEA01
:10051000827C24BF51F8043B40F8043B08BF70477D
:10052000D20728BF31F8023B48BF11F8012B28BF82
:1005300020F8023B48BF00F8012B70474FF0000243
:1005400000B5134694469646203922BFA0E80C50C9
:10055000A0E80C50B1F12001BFF4F7AF090728BFA4
:10056000A0E80C5048BF0CC05DF804EB890028BF20
:1005700040F8042B08BF704748BF20F8022B11F049
:10058000804F18BF00F8012B7047704770477047C5
:1005900070470000074B70B50D467B4400F011F822
:1005A0000446284600F020F810B14FF0FF3070BD2F
:1005B000204670BDE324000001694A1C02610878EE
:1005C000704700B58FB0CDE9013100210591054993
:1005D0007944CDE9031011466846FFF733FF0FB0A9
:1005E00000BD0000E5FFFFFF007B00F080007047CA
:1005F000754600F02BF8AE4605006946534620F0DC
:100600000700854618B020B5FFF786FEBDE82040FC
:100610004FF000064FF000074FF000084FF0000BBE
:1006200021F00701AC46ACE8C009ACE8C009ACE871
:10063000C009ACE8C0098D46704710B50446AFF359
:1006400000802046BDE81040FFF7F1BD004870472C
:1006500080460020FEE7704770B54FF6FA710A4DEC
:10066000081A84B228684462284601F0E9F84FF677
:10067000F971286801E0426A94B28C42FBD3BDE86C
:100680007040014801F044B9B0030020042000F09C
:10069000F9B810B54FF4807000F0F4F8BDE81040E0
:1006A0004FF4007000F0EEB872B6FEE70F4B401E3C
:1006B00081F00102082817D2DFE800F00406080ADA
:1006C0000C0E101201210CE002210AE0042108E0C6
:1006D000082106E0102104E0202102E0402100E092
:1006E0008021184600F0CFB9704700000008024092
:1006F000204A10B51170204990FBF1F21D49491CA8
:10070000CA711E4A90FBF2F30A2293FBF2F402FB39
:1007100014338B711A4B90FBF3F393FBF2F402FB4F
:1007200014334B7142F2107390FBF3F393FBF2F42A
:1007300002FB14330B714FF47A7390FBF3F393FBCA
:10074000F2F402FB1433CB70642390FBF3F393FBBE
:10075000F2F402FB14338B7090FBF2F393FBF2F490
:1007600002FB14334B7090FBF2F302FB1300087092
:1007700010BD0000040000208096980040420F0049
:10078000A08601002DE9F0410C4E01240746751C9E
:100790003078A04205EB040010F8011C01D10122C1
:1007A00000E00022204600F00BF8384602F09CF9E9
:1007B000641CE4B2092CEBD3BDE8F08104000020F6
:1007C00070B5054600244AB1234A0A2924D2DFE83D
:1007D00001F010121416181A1C1E20221E4A0A328A
:1007E0000A2919D2DFE801F00507090B0D0F1113D3
:1007F0001517147810E054780EE094780CE0D47853
:100800000AE0147908E0547906E0947904E0D47998
:1008100002E0147A00E0547A5FF0000624FA06F051
:10082000C00700D0012001F0F9F9012001F006FA1B
:10083000002001F003FA761CF6B2082EEED36D1EEE
:10084000E8B201F0A1F9012001F0F0F9BDE8704033
:10085000002001F0EBB900000D00002070B5044647
:1008600000F016F90546601C02D0044800780444E4
:1008700000F00EF9401BA042FAD370BD34000020F6
:1008800070470000044910B50A68024202D00860AF
:10089000FFF7F6FF10BD0000143C01402DE9F84FB2
:1008A000DFF8B8A10022012403254FF00F090AF157
:1008B000040BAAF1040E00BF0B6804FA02F63340E1
:1008C000B34273D10F7907F00307012F01D0022F34
:1008D00016D187684FEA420805FA08FC27EA0C0798
:1008E000D1F80CC00CFA08FC4CEA070CC0F808C0A0
:1008F0004768B7430E79C6F3001696403E434660FC
:100900000E79F643B6070DD0C768560005FA06FC07
:1009100027EA0C07D1F808C00CFA06FC4CEA070CD1
:10092000C0F80CC00E7906F00306022E10D1D608CE
:1009300000EB8608D8F8206057074FEAD76C09FA11
:100940000CF7BE430F6907FA0CF73743C8F820705D
:1009500006684FEA420C05FA0CF7BE430F7907F020
:10096000030707FA0CF7374307604E6816F4403F59
:100970006DD03B4E376847F480473760366822F0C9
:10098000030706F480460096364E07EB060CDCF8AB
:10099000086897073F0F09FA07F826EA0806DFF804
:1009A000C880404503D14FF000081EE04FE0DFF85B
:1009B000BC80404502D14FF0010816E0DFF8B0805E
:1009C000404502D14FF002080FE0DFF8A880404513
:1009D00002D14FF0030808E0DFF89C80404502D1C7
:1009E0004FF0040801E04FF0070808FA07F848EA5A
:1009F0000608CCF80888DAF800605746D1F804C039
:100A00009E435FEACC2C00D51E433E60DBF80060BD
:100A10005F46D1F804C09E435FEA8C2C00D51E438C
:100A20003E60DEF800607746D1F804C09E435FEA7E
:100A30008C3C00D51E433E60084F083F3E68D1F80D
:100A400004C09E435FEACC3C00D51E433E60521C6E
:100A5000102AFFF431AFBDE8F88F0000083C0140D8
:100A600044380240003001400000024000040240CF
:100A700000080240000C02400010024000690840DB
:100A800000D0012070470AB1816170470904FBE77B
:100A900001488068704700003400002002488168E7
:100AA0000278114481607047340000200B4810B573
:100AB000016841F400710160016841F480610160E6
:100AC000016841F480710160032000F08DF80F206F
:100AD00000F006F800F03EF8002010BD003C024097
:100AE00010B5014688B000221A2000F05DF81A20E7
:100AF00000F04CF813480024016841F480210160A3
:100B0000006805A900F480200690684600F06EFA9F
:100B100000F09CFA0C490D4AB0FBF1F10C48491E5B
:100B2000026040F2E732C0E90324C0E9011400F09A
:100B300045FE10B1012008B010BD054800F0B2FE1E
:100B4000F9E700004438024040420F0000480140ED
:100B5000480900200C4882B0016841F480410160DE
:100B6000006800F4804000900748001F016841F0D1
:100B7000805101600068002200F0805000900F2139
:100B8000901E02B000F010B844380240002809DB83
:100B900000F01F02012191404009800000F1E02097
:100BA000C0F8001170470000F0B40E4B1B680C46F3
:100BB000C3F30223C3F10705042D00D90425191D31
:100BC000072901D2002300E0DB1E012606FA05F109
:100BD000491E214099409E40761E16403143F0BC8C
:100BE00001F03DBF0CED00E0064900F00702086887
:100BF0004FF6FF03184040EA0220034A1043086002
:100C0000704700000CED00E00000FA052DE9F0410E
:100C10008AB0040005D094F8BD042668002520B1F0
:100C200008E001200AB0BDE8F08184F8BC542046F9
:100C300000F05EF8032084F8BD04F06BC00500D41A
:100C40002561206801F098FE04F1100128228846F1
:100C50006846FFF741FC94E80F0001F06BFD0226A7
:100C6000C8BB0021206801F0CBFE002001270EE068
:100C700000EBC00104EB810181F83D7001F83C0FED
:100C800008810D71CD600D61401CC0B28D6161683D
:100C90008142EDD8002011E000EBC00104EB81019E
:100CA00081F87D5281F87C0281F88052C1F8885227
:100CB000C1F88C52401CC0B2C1F8945261688142A4
:100CC000EAD8282241466846FFF706FC94E80F0060
:100CD00001F098FD10B184F8BD64A2E784F83850A3
:100CE00084F8BD74206801F07FFD00209AE70000C1
:100CF00010B586B0044614216846FFF71FFC206833
:100D0000B0F1A04F27D115480021026842F001023E
:100D10000260006800F0010005904FF4C0500090A0
:100D20000220CDE90101032003900A2004906946C6
:100D30000B48FFF7B3FD0948001D016841F0800131
:100D4000016006481430016841F480410160006888
:100D500000F48040059006B010BD0000303802401D
:100D6000000002402DE9F843044600684FF00109F5
:100D7000C1074FF0000601D1400729D5DFF82081D7
:100D8000C8F86860FFF784FE0746464D05E000BFDF
:100D9000FFF77EFEC01B022859D828680001F7D44F
:100DA000A068217B800140EA0170616808433D49E9
:100DB00084310860C8F86890FFF76AFE074604E0CF
:100DC000FFF766FEC01B022841D828680001F7D54E
:100DD0002078800752D533484030016841F0805177
:100DE00001600068304D00F080500090286840F4A9
:100DF00080702860FFF74CFE074604E0FFF748FECE
:100E0000C01B022823D82868C005F7D5254D7035AA
:100E1000286810F4407020D0218A01F4407181428A
:100E20001BD02868214920F44070C1F800900E6062
:100E300028602868C00710D0FFF72AFE064641F256
:100E4000883707E0FFF724FE801BB84202D9032051
:100E5000BDE8F88328688007F4D521691148C1F3FB
:100E600001220830032A12D0016821F4F811016030
:100E70002868218AC1F30B01084328602078000705
:100E800003D50B49207DC1F8E0010020E0E70268AE
:100E9000084B22F4F81219400A430260E8E7000008
:100EA000000047420038024000700040400E4742B8
:100EB00000104742FFFCFF0F2DE9F0470E460500EA
:100EC00065D0DFF81481D8F80000F7B200F0070011
:100ED000B04207D288F80070D8F8000000F0070090
:100EE000B04254D128683D4C810712D5400703D544
:100EF000206840F4E05020602878000703D520687F
:100F000040F4604020602068A96820F0F0000843A9
:100F100020602878C0072DD030496868083901283A
:100F200012D0022813D0032811D00968890700299C
:100F30002DDA216821F0030101432160FFF7A8FDAC
:100F4000814641F2883A0EE009688903EFE70968B3
:100F50008901ECE7FFF79CFDA0EB0901514502D99F
:100F60000320BDE8F0872068696800F00C00B0EB52
:100F7000810FEFD1D8F80010404601F00701B142CF
:100F800007D90770006800F00700B04201D00120C7
:100F9000E7E72878400705D52068E96820F4E050A5
:100FA000084320602878000706D52068296920F4C6
:100FB000604040EAC100206000F058F82168084A0B
:100FC000C1F30311515CC840064908600648006837
:100FD000FFF786FD0020C4E7003C024008380240CD
:100FE000243E000840000020380000200F2202604C
:100FF0000C4A136803F003034360136803F0F00323
:101000008360136803F4E053C36012684FF4E05345
:1010100003EAD20202610448006800F00700086099
:101020007047000008380240003C0240044805496F
:1010300000680968044AC1F38221515CC8407047C6
:101040004000002008380240343E000804480549AA
:1010500000680968044AC1F34231515CC8407047D6
:101060004000002008380240343E0008154810B502
:10107000006810F00C02144813D04110042A0FD05D
:10108000082A0ED10F4C241F2268236802F03F0269
:101090005B0207D52068C0F38810A0FB010106E0C1
:1010A000084610BD2168C1F38811A1FB000100238F
:1010B000FFF745F92168C1F30141491C4900B0FB24
:1010C000F1F010BD083802400024F4002DE9F84F7B
:1010D00004006ED02078DFF84C93C007A9F1040516
:1010E0004AD009F104000168C1F38101012908D047
:1010F0000068C0F3810002280AD1D9F8000040023C
:1011000006D52868800337D560680028E1D033E031
:101110006068B0F5803F10D0B0F5A02F286810D0DF
:1011200020F480302860286820F4802028606068DF
:10113000A8B1FFF7ADFC06460DE0286840F480300A
:10114000F4E740F480202860F7E700BFFFF7A0FC39
:10115000801B642873D828688003F7D50CE0FFF75C
:1011600097FC064605E000BFFFF792FC801B642851
:10117000F0D828688003F7D42078DFF8AC828007A5
:101180004FF0000A3ED5A748001D016811F00C0F72
:1011900008D00068C0F3810002280BD1D9F8000004
:1011A000400207D42868800716D5E068012800D1DE
:1011B00012E033E1E068B8B10120C8F80000FFF7A1
:1011C00067FC064605E000BFFFF762FC801B0228B3
:1011D000C0D828688007F7D52868216920F0F80072
:1011E00040EAC10028600DE0C8F800A0FFF750FCFD
:1011F000064604E0FFF74CFC801B02281FD8286835
:101200008007F7D42078000722D5864F8748616988
:10121000703771B101210160FFF73AFC064604E026
:10122000FFF736FC801B022809D838688007F7D5FD
:101230000EE0C0F800A0FFF72BFC064605E082E0B8
:10124000FFF726FC801B02287DD838688007F7D47A
:101250002078400768D5DFF8CCB100270BF13C0BB4
:10126000DBF80000C0000BD4DBF8001041F0805127
:10127000CBF80010DBF80000012700F08050009050
:101280006B4E3068C00510D4306840F48070306018
:10129000FFF7FEFB009005E0FFF7FAFB0099401A0C
:1012A000022850D83068C005F6D55E4EA0686C366E
:1012B00001280FD00528306810D020F001003060E0
:1012C000306820F004003060A068B8B1FFF7E0FBA0
:1012D00000900FE0306840F00100F4E740F00400B7
:1012E0003060F7E7FFF7D4FB0099411A41F28830EC
:1012F000814266D830688007F4D50EE0FFF7C8FB5E
:10130000009007E0FFF7C4FB0099411A41F28830D2
:10131000814256D830688007F4D42FB1DBF8001032
:1013200021F08051CBF80010A069C8B33D49091DD8
:101330000968C1F3810102294AD00228504607D02A
:10134000C8F8600000E03CE0FFF7A2FB04463BE089
:101350004746C8F86000FFF79BFB064605E000BF64
:10136000FFF796FB801B02282BD828688001F7D452
:10137000D4E907010843A16A2E4A490802EB01415A
:10138000626A41EA8211084394F82C1040EA016134
:10139000C9F8001001203866FFF77AFB044606E022
:1013A0003EE000BFFFF774FB001B022809D8286845
:1013B0008001F7D534E000BFFFF76AFB001B02286D
:1013C00002D90320BDE8F88F28688001F4D427E013
:1013D0000128F7D0D9F80000E26900F480019142B9
:1013E0001CD1226A00F03F01914217D147F6C0712B
:1013F000626A0140B1EB821F10D1A26A4FF0FF3345
:1014000000F4403103EB5202B1EB024F06D194F8E5
:101410002C1000F07060B0EB016F01D00120D1E71B
:101420000020CFE70438024000004742800E4742C8
:10143000007000400000FFFF10B5040002D0607F84
:1014400010B106E0012010BD00202077204600F0FA
:1014500039F8022060772168CA2048622168532049
:101460004862204600F0A6FF30BB20688168144A1D
:10147000114081602168886862681043D4E90423C0
:101480001A43104388602168E06808612068016998
:10149000228941EA02410161204600F0AFFF58B9BC
:1014A00021680A6C22F480220A6421680A6CA3690C
:1014B0001A430A64012161772268FF21516210BD3D
:1014C000BFFF8FFF10B586B0044618216846FFF7AE
:1014D00035F80949206888420CD102200090C001EB
:1014E00004906846FFF73EFC08B1FFF7DDF80349BA
:1014F0000120086006B010BD002800403C0E4742A5
:1015000070B50446007F0B46012819D001262677C6
:1015100002206077B2B19878D97840EA01455878CE
:101520001978000240EA413005432168CA20486228
:10153000216853204862204600F03CFFD0B122E0F1
:10154000022070BD5878C10603D500F0EF000A30C4
:101550005870D87800F022FF0204587800F01EFF7F
:1015600042EA0022987800F019FF0243187842EA14
:101570004035DAE70748054020684560204600F01E
:101580003DFF00B966772268FF2151620021217773
:1015900070BD00003FFFFF002DE9F0410446007FD1
:1015A0000D46012823D04FF0010884F81C8002204A
:1015B00060772068002780684FEA4060D2B1002839
:1015C00000DBEF70A878297840EA01466878E9786E
:1015D000000240EA815006432168CA20486221681F
:1015E00053204862204600F0E5FEB8B12CE002200E
:1015F000BDE8F081002800DBEF70287800F0CEFE17
:101600000204687800F0CAFE42EA0022A87800F0DE
:10161000C5FE0243E87842EA8056DDE70D48064001
:10162000206806602068816821F480218160D5E906
:101630000301084321688A6810438860204600F04F
:10164000DDFE08B984F81D802268FF2151622777EA
:10165000CEE700007F7F7F0070B504460068C16858
:1016600021F0A001C160FFF713FA05464FF47A7626
:1016700007E000BFFFF70CFA401BB04201D903207E
:1016800070BD2068C0688006F4D5002070BD70B5BC
:10169000040009D0606A002540B125616561A5623A
:1016A00094F8510040B10CE0012070BD6068B0F5C5
:1016B000827FF4D0E561F2E784F85050204600F0D4
:1016C00045F8022084F851002068016821F04001AB
:1016D0000160A088218900F4827001F4044108436C
:1016E000A18901F400610843217C01F00201084353
:1016F000217D01F001010843218B01F400710843B1
:10170000217F01F03801084394F8201001F0800196
:101710000843218D01F40051084321680860A06945
:10172000042101EA104094F8241001F0100108434C
:10173000216848602068C16921F40061C161656564
:10174000012084F85100002070BD000010B586B063
:10175000044614216846FEF7F1FE144920688842C9
:1017600021D113480021026842F4804202600068DF
:1017700000F4804005900E481038026842F00202E2
:101780000260006800F0020005904FF46040009095
:101790000220CDE901010320039005200490694651
:1017A0000448FFF77BF806B010BD00000038004089
:1017B00040380240000402407047704710B50400F2
:1017C00003D094F83D0010B107E0012010BD0020C7
:1017D00084F83C00204600F01FF8022084F83D0009
:1017E000211D206800F0D4FE012084F8460084F812
:1017F0003E0084F83F0084F8400084F8410084F8FB
:10180000420084F8430084F8440084F8450084F8DA
:101810003D00002010BD000008B500680649884260
:1018200008D10648016841F400310160006800F405
:101830000030009008BD00000044014044380240E0
:1018400090F83D10012901D001207047022180F855
:101850003D1000680E4988420ED0B0F1804F0BD089
:101860000C49884208D00C49884205D00B4988426F
:1018700002D00B49884204D1816801F00701062992
:1018800003D0016841F001010160002070470000B1
:10189000000001400004004000080040000C00402F
:1018A0000040014090F83D10012901D0012070470F
:1018B000022180F83D100168CA6842F00102CA6046
:1018C00000680E4988420ED0B0F1804F0BD00C4911
:1018D000884208D00B49884205D00B49884202D083
:1018E0000A49884204D1816801F00701062903D022
:1018F000016841F0010101600020704700000140D3
:101900000004004000080040000C0040004001407E
:1019100001680A6A41F211131A4207D10A6A9B1040
:101920001A4203D10A6822F001020A60012180F8FC
:101930003D1000207047704770B50446006801698B
:101940004FF00005C943890715D4C168C943890709
:1019500011D4E91E01610120207720688069800789
:10196000204602D0FFF7E7FF04E000F098F8204699
:1019700000F096F8257720680169C943490717D414
:10198000C168C943490713D46FF004010161022003
:1019900020772068806910F4407F204602D0FFF74E
:1019A000CAFF04E000F07BF8204600F079F82577C4
:1019B00020680169C943090716D4C168C9430907EA
:1019C00012D46FF008010161042020772068C069FB
:1019D0008007204602D0FFF7AEFF04E000F05FF87A
:1019E000204600F05DF8257720680169C943C906E3
:1019F00017D4C168C943C90613D46FF0100101613F
:101A0000082020772068C06910F4407F204602D06B
:101A1000FFF791FF04E000F042F8204600F040F8A4
:101A2000257720680169C943C90708D1C168C9433E
:101A3000C90704D1891E0161204600F033F82068EF
:101A40000169C943090609D4C168C943090605D417
:101A50006FF0800101612046FFF7AEFE206801694A
:101A6000C943490609D4C168C943490605D46FF082
:101A700040010161204600F01FF820680169C94358
:101A800089060BD4C168C943890607D46FF02001C9
:101A900001612046BDE87040FFF78FBE70BD704702
:101AA0007047000000680349884201D1FEF7F6BF85
:101AB0007047000000480140704770B5040004D032
:101AC00094F83D00002510B106E0012070BD84F8B7
:101AD0003C50204600F022F8242084F83D00206885
:101AE000C16821F40051C160204600F09DFD2068CE
:101AF000016921F4904101612068416921F02A01C6
:101B000041612068C16841F40051C1602564202012
:101B100084F83D0084F83E00002070BD10B586B00A
:101B2000044614216846FEF709FD144920688842DE
:101B300021D113480021026842F0100202600068BF
:101B400000F0100005900E481438026842F00102BF
:101B50000260006800F0010005904FF4C060009042
:101B60000220CDE90101032003900720049069467B
:101B70000448FEF793FE06B010BD000000100140BF
:101B8000443802400000024010B508282DD2DFE89A
:101B900000F00406080F181D2227012012E0012082
:101BA00015E0012018E000BF00F028F8012004E053
:101BB000012016E000F022F80020BDE8104000F0FF
:101BC00015B8002000F022F80120EDE7002000F019
:101BD0001DF80120EEE7002000F018F80020E3E7F0
:101BE000002000F013F80020E4E710BD02464FF497
:101BF00080610148FEF747BF0008024002464FF4EB
:101C000000610148FEF73FBF0008024002464FF462
:101C100080510148FEF737BF000802400246082104
:101C20000148FEF730BF00000004024002461021C8
:101C30000148FEF728BF00000004024002462021B0
:101C40000148FEF720BF000000040240FEE770B527
:101C5000044601202070606100210322A061C4E9D4
:101C60000721C4E90C21C4E90A10A089206104F10C
:101C700010010D466068FEF711FEE08920612946DB
:101C8000A068FEF70BFEA18901226068FEF7FBFE4B
:101C9000E189A068BDE870400122FEF7F4BE017042
:101CA000C2898368012905D000F1240142621846E7
:101CB000FEF7F4BD00F110010261F8E721B1C1891E
:101CC000D0F80800FEF7DABE81894068FAE770B5FF
:101CD0000D4606460121FFF7E2FF0022114630467D
:101CE00000F0B6F80024280601D5012200E0002209
:101CF0000121304600F0ACF86806050E0220FEF720
:101D0000ABFC01220021304600F0A2F80220FEF7D1
:101D1000A3FC00221146304600F09AF80220FEF79C
:101D20009BFC641CE4B2082CDDD370BD10B50446E6
:101D30000121FFF7B4FF01221146204600F088F888
:101D400001220021204600F083F80420FEF784FCE5
:101D500000220121204600F07BF80420FEF77CFCE5
:101D600020460022BDE81040114600F071B810B5C1
:101D700004460121FFF793FF00221146204600F0A0
:101D800067F800220121204600F062F80420FEF7E7
:101D900063FC01220021204600F05AF8012211467E
:101DA000204600F055F8BDE810400420FEF754BC72
:101DB0002DE9F0411E4617460C460546FFF7B6FFD3
:101DC00021462846FFF783FF284600F013F83946DE
:101DD0002846FFF77CFF284600F00CF831462846DD
:101DE000FFF775FF284600F005F82846BDE8F041EA
:101DF000FFF7BDBF70B5002405462146FFF74FFF32
:101E000001221146284600F023F80120FEF724FCA9
:101E100001220021284600F01BF80120FEF71CFCDF
:101E200008E0641CE4B2FA2C04D92846FFF79FFFAF
:101E3000002070BD01212846FFF740FF0128F0D0A7
:101E400000221146284600F003F8012070BD000072
:101E500021B1C189D0F80800FEF715BE818940681C
:101E6000FAE7000010B59CB01C2216496846FEF740
:101E700033FB0021684600F043FE134C11491C223D
:101E800020601C3107A8FEF727FB002107A800F0FF
:101E900037FE0C4960601C2238310EA8FEF71CFB8F
:101EA00000210EA800F02CFE0649A0601C2254312F
:101EB00015A8FEF711FB002115A800F021FEE06037
:101EC0001CB010BDB43D0008240000202DE9F043F3
:101ED00087B014216846FEF731FB4A4800260168A6
:101EE00041F004010160016801F0040105910168FD
:101EF00041F080010160016801F0800105910168F5
:101F000041F002010160016801F0020105910168E0
:101F100041F001010160016801F0010105910168D2
:101F200041F0080101600068DFF8DC8000F0080083
:101F30000590012241F6FF414046FEF7A4FDDFF87F
:101F4000CC9001224FF488514846FEF79CFD0022B8
:101F500038214846FEF797FD0124FF20CDE9000413
:101F6000CDE9024669464046FEF798FC2003CDE9DC
:101F70000004032569464846CDE90245FEF78EFC7C
:101F800028024FF40417CDE9000769460294404641
:101F9000FEF784FC4FF4E050CDE90004694640466A
:101FA000CDE90245FEF77AFC0420CDE90007694639
:101FB00002941748FEF772FC3820CDE90004022095
:101FC000CDE9020569464846FEF768FC2002CDE9E6
:101FD0000004CDE9024669464846FEF75FFC002250
:101FE00005210820FEF7E0FD0820FEF7CFFD0022C6
:101FF00005211720FEF7D8FD1720FEF7C7FD07B013
:10200000BDE8F0833038024000080240000402407E
:10201000000C024010B586B014216846FEF78EFA17
:102020001B48002419490594C0E900147F218160F0
:10203000FF21C0E9031444618461FFF7FDF908B191
:10204000FEF732FB8DF800408DF801408DF802401C
:102050000394002269460E480494FFF79DFA08B1E4
:10206000FEF722FB01208DF814008DF815008DF885
:1020700016008DF81740002205A90548FFF740FA21
:10208000002801D0FEF710FB06B010BD002800406C
:1020900038030020104810B50E4901604FF48271DA
:1020A0004160002102228160C0E9031201224261E5
:1020B0005202C0E906210162416281620A21C162C5
:1020C000FFF7E5FA002803D0BDE81040FEF7ECBAB0
:1020D00010BD000000380040580300200B4810B528
:1020E000094901605F21416000214FF6FF72C0E99C
:1020F000021201618161FFF761FB002803D0BDE896
:102100001040FEF7D1BA10BD00440140B0030020DA
:102110000C4810B50A4901604FF4E13141600021DB
:1021200081600C22C160C0E904128161C161FFF7C6
:10213000C4FC002803D0BDE81040FEF7B5BA10BDBE
:1021400000100140F80300200C4810B54FF0A041EA
:1021500001600421416002220021C0E90321C0E99D
:10216000062101624162C1620163FEF74FFD002852
:1021700003D0BDE81040FEF797BA10BD3C04002024
:10218000FEE7FEE70346002278210148FFF710BE74
:10219000AC0000200346402278210148FFF708BE2A
:1021A000AC00002070B506465FF0000404F1B000FA
:1021B000C0B2FFF7E7FF0020FFF7E4FF1020FFF7B2
:1021C000E1FF00253046FFF7E5FF6D1CEDB2802DE5
:1021D000F8D3641CE4B2082CE8D370BD10B5304CC1
:1021E0006060A181A260E3812046FFF730FDC82036
:1021F00000F07AFCAE20FFF7C5FF2020FFF7C2FFFA
:102200001020FFF7BFFFB020FFF7BCFFC820FFF78B
:10221000B9FF0020FFF7B6FF1020FFF7B3FF402003
:10222000FFF7B0FF8120FFF7ADFFFF20FFF7AAFF08
:10223000A120FFF7A7FFA620FFF7A4FFA820FFF724
:10224000A1FF3F20FFF79EFFA420FFF79BFFD320B5
:10225000FFF798FF0020FFF795FFD520FFF792FFCB
:10226000F020FFF78FFFD920FFF78CFF2220FFF728
:1022700089FFDA20FFF786FF1220FFF783FFDB20BC
:10228000FFF780FF2020FFF77DFF8D20FFF77AFF0B
:102290001420FFF777FFBDE81040AF20FFF772BFB3
:1022A000AC00002010B50446B031C8B2FFF76AFF99
:1022B0001020FFF767FF04F00F00BDE8104040F06A
:1022C0000100FFF75FBF00002DE9F04791468A4605
:1022D0000446002513B3DFF8BC80012B24D154E061
:1022E0002038C7B27E2C04D90AF10100002400F086
:1022F000FF0A51462046FFF7D5FF07EB47000026AF
:1023000008EB4007B85DFFF745FF761CF6B2062ED6
:10231000F8D3A41D6D1CE4B2EDB201E0DFF87880C3
:1023200019F805000028DBD1BDE8F0872038C7B2D6
:10233000782C04D90AF10100002400F0FF0A51466C
:102340002046FFF7AFFF002606EB071118F8010043
:10235000FFF720FF761CF6B2082EF5D30AF1010034
:10236000C1B22046FFF79EFF5FF0000606EB0711A3
:1023700001EB0800007AFFF70DFF761CF6B2082E7D
:10238000F4D308346D1CE4B2EDB219F8050000284E
:10239000CCD1C9E7C23700089A350008002103E014
:1023A000491C0A38C9B2C0B20A28F9D2090740EA62
:1023B000116070472DE9F041044600680025C168AE
:1023C000490618D4C16841F08001C160FEF760FB86
:1023D00006464FF47A78042707E000BFFEF758FB63
:1023E000801B404501D9677701252068C0684006F9
:1023F00001D4002DF2D02846BDE8F08170B5044626
:1024000000680025C16821F08001C16020688068F3
:10241000800606D42046FFF71FF910B1042060772C
:102420000125284670BD012000F05EFBFBE74FF45C
:10243000AF750124E0B20121FEF738F9284600F01B
:1024400053FB641C64B2092CF4DB0124E0B20021CC
:10245000FEF72CF9284600F047FB641C64B2092CF7
:10246000F4DBE6E700210348FEF742F90020FEF71F
:1024700089F9FBE7AA40F9030B4808230246022129
:10248000FFF7ACFEFF20FFF78DFE0020FFF78AFE6E
:10249000002306A214211846FFF716FF4FF4FA6036
:1024A00000F022FB0120FBE70000024048616E7251
:1024B0006973000010B5502080F31188BFF34F8F6F
:1024C000BFF36F8F00F09CFF18B104494FF08050AC
:1024D0000860002080F3118810BD000004ED00E0CA
:1024E00030B593B030216846FEF728F814210CA8C7
:1024F000FEF724F81D480025016841F08051016075
:10250000006800F0805011901948016841F4404182
:1025100001600068022400F4404011900520009002
:102520004FF480300190012002908005CDE90640F3
:1025300008AA0420602182E813000B906846FEF789
:10254000C5FD08B172B6FEE70CA90F2081E8310085
:102550004FF48050CDE90F0503210CA8FEF7ACFC29
:10256000002801D072B6FEE713B030BD40380240FB
:10257000007000400248016841F47001016070473A
:1025800088ED00E00148FFF7D7B9000048090020B6
:10259000F0B502681D4B1E4C9F031E4D1E4E984207
:1025A00007D0B84205D0A04203D0A84201D0B04223
:1025B00004D122F0700C4A6842EA0C02984210D012
:1025C000B8420ED0A0420CD0A8420AD0B04208D0E7
:1025D000124CA04205D0124CA04202D0114CA04295
:1025E00003D122F44074CA6822434C6922F080026D
:1025F000224302608A68C2620A688262984201D1FC
:102600000969016301214161F0BD00000000014042
:102610000004004000080040000C00400040014061
:10262000004401400048014070B50446006801695B
:10263000E26821F44051114301612169A068E26917
:1026400008436169114308432168CA6849F20C6371
:102650009A430243CA6020684169A26921F440712B
:102660001143416131492068884202D03049884293
:1026700002D1FEF7EBFC01E0FEF7D8FCE269002393
:10268000192164253226B2F5004F626828D0A0FBDC
:102690000101930F9200FDF752FE0146B0FBF5F0E9
:1026A0006FF01802504301EB800006EB0010B0FB06
:1026B000F5F000F0F002B1FBF5F002EB0012B1FB17
:1026C000F5F06FF01803584301EB800006EB0010A3
:1026D000B0FBF5F000F00F0021681044886070BD79
:1026E000A0FB010192185B41FDF729FE0146B0FBFA
:1026F000F5F00201B1FBF5F06FF01803584301EB60
:10270000800006EBC000B0FBF5F000F0F80002EB33
:102710004002B1FBF5F0584301EB800006EBC0002E
:10272000B0FBF5F000F00700D6E700000010014014
:102730000014014070B5044606990A9E049D0D9848
:10274000012916D0E06840F04000E060204600F02B
:102750002BF8A16B1EB321F48031A163012D07D1A9
:10276000A16841F00601A160A16841F02001A160CB
:1027700070BDA16B21F48031A163E168094A114069
:10278000E160E16821F44011E160012803D1E068D3
:1027900040F48010E060204600F006F8DEE741F4E7
:1027A0008031DAE7BFFFBDFF08B500220D49009276
:1027B000009B5B1C00938B420CD80369002BF7DA5B
:1027C0000092026942F001020261009A521C0092DA
:1027D0008A4201D9032008BD0269D207F5D1002041
:1027E00008BD0000400D0300D0F8001E21F00301D9
:1027F000C0F8001ED0F8041841F00201C0F8041817
:10280000002070472DE9F04F00250E460446DDF804
:102810002CC0DDF824B0109F2846294604EB800226
:10282000C2F80411401C0F28F8D32046C7B1806BB2
:1028300020F40012A263A06B40F40022A2630846B9
:102840008846C4F8000ED4F800182046C4F80018D2
:10285000BCF1010F16D0D0F8001841F0030116E0CA
:10286000D0F8040840F00202C4F80428A06B40F439
:102870000012A263A06B20F40022A263A06B20F4DC
:102880008022DBE7D0F800180BB141F00101C0F85D
:102890000018102100F094F800B10125204600F046
:1028A00071F800B101254046C4F81088C4F81488B6
:1028B000C4F81C8800214FF000694FF0904A4FF691
:1028C0007F3314E004EB4112D2F800C9BCF1000FD1
:1028D00006DA11B1C2F800A904E0C4F8009901E0D9
:1028E000C2F80009C2F81009C2F80839491C8E4222
:1028F000E8D8002115E000BF04EB4112D2F800CB6C
:10290000BCF1000F06DA11B1C2F800AB04E0C4F864
:10291000009B01E0C2F8000BC2F8100BC2F8083BA4
:10292000491C8E42E8D8D4F8101821F48072C4F8FB
:102930001028A0616FF080406061BBF1000F03D1EF
:10294000A06940F01000A061A06909490843A06196
:102950000C9818B1A06940F00800A061012F03D1C4
:10296000A06904490843A0612846BDE8F08F000033
:1029700000383C8004000040816821F00101816042
:102980000020704708B500220C490092009B5B1C98
:1029900000938B420AD80369002BF7DA00921022C9
:1029A0000261009A521C00928A4201D9032008BD9C
:1029B0000269D206F5D4002008BD0000400D0300D6
:1029C00018B500230D4A0093009C641C00949442A7
:1029D0000CD80469002CF7DA0093202343EA811114
:1029E00001610099491C0091914201D9032018BD51
:1029F00001698906F5D4002018BD0000400D0300D0
:102A000070B50446C068002520F0C040E060012990
:102A100001D079B120E0E06840F00050E060012092
:102A2000FDF71CFF60696D1C10F0010F10D1322DF5
:102A3000F5D30DE0E06840F08040E0600120FDF754
:102A40000DFF60696D1C10F0010F01D0322DF5D320
:102A5000322D01D0002070BD012070BDFEE70907B6
:102A6000090E002804DB00F1E02080F80014704714
:102A700000F00F0000F1E02080F8141D704770474F
:102A800003490A685206FCD5C2B24A60704700008A
:102A900000100140FEF70AF8FFF722FDFFF716FAD3
:102AA000FFF7B8FAFFF734FBFFF7F4FAFFF74CFB38
:102AB000FFF714FBFFF7D6F900F01DF84FF47A7416
:102AC00003A0FDF7B3FC2046FDF7C8FEF8E70000C1
:102AD00048616E7269730D0A000000000146002013
:102AE000842900D0C81C704710B500B9012000F03F
:102AF00023FB002010BD10B500F044FB002010BDEA
:102B00007FB50D4604464169B0F9080081B1A1695D
:102B100071B1FFF7E3FFD4E905128DE80700D4E9AE
:102B200000102B46226900F040FC039004B070BDF9
:102B3000FFF7D4FF03A9CDE90001208A2B4682B21A
:102B4000D4E9001000F004FC012801D00020EDE7DA
:102B50000398EBE72DE9F041184C0F460546E6686F
:102B60002068001D00F020FA38B9206890F82C1079
:102B700001208840216981432161681C07D137B158
:102B80002168BDE8F0410E48091D00F051BA2068E7
:102B90003544B5424560216805D2A06BBDE8F041DF
:102BA000091D00F02DBA606B091D00F029FAA06A1A
:102BB000854200D2A562BDE8F081000044000020FB
:102BC0006C0A00202DE9F041054600F03DFA2E4C3C
:102BD000A068401CA06020682C4F10B1606940B311
:102BE0002DE02560A068012829D1002606EB86008B
:102BF00007EB800000F0F6F9761C072EF6D3234889
:102C00008C3000F0EFF92148A03000F0EBF91F48BC
:102C1000B43000F0E7F91D48C83000F0E3F91B4874
:102C2000DC3000F0DFF919488C3060631430A063A9
:102C300005E02068E96AC06A884200D82560606AB9
:102C4000401C6062E96A01202269884010432061CB
:102C500001EB810007EB8000291D00F0E9F900F08D
:102C600013FA606900280CD02068E96AC06A8842BB
:102C700007D207494FF080500860BFF34F8FBFF372
:102C80006F8FBDE8F0810000440000209009002013
:102C900004ED00E010B5044690F8510058B1012849
:102CA0000CD002280FD0502080F31188BFF34F8F33
:102CB000BFF36F8FFEE7206B00F0FAF92046BDE806
:102CC000104000F0F5B910BD10484FF470514207A4
:102CD00006D0C01D0D4920F00700411AC1F5705102
:102CE0000B4A00230144C2E900030839183A21F0D5
:102CF000070111604B600B600B1AC0E90013936071
:102D00004FF000405360506170470000800A00207F
:102D100098000020144E154CA6F1C8074FF08058BB
:102D2000DFF84C9012E000BF00F08EF9F068C56843
:102D3000281D00F039F9A068401EA0606068401EA0
:102D4000606000F0A1F92846FFF7A4FF6068002842
:102D5000EAD138680128F9D9C9F80080BFF34F8F4C
:102D6000BFF36F8FF2E70000580A002044000020F4
:102D700004ED00E02DE9F0479A46DDE9098481463B
:102D80006FF00303206B03EB82021044089E20F0D7
:102D90000707780707D0502080F31188BFF34F8FC3
:102DA000BFF36F8FFEE7002561B1002023180A5C96
:102DB00083F834200A5C12B1401C1028F6D384F842
:102DC000435001E084F83450072E00D30626E66213
:102DD000C4E91165201D00F010F904F1180000F09D
:102DE0000CF92461C6F107006462A061E56484F80F
:102DF000505052464946384600F0C0F82060B8F1BD
:102E0000000F01D0C8F80040BDE8F08730B5114987
:102E100000E011460A688242FBD34B685C1884428A
:102E200003D1406818444860084643681C1894421F
:102E300009D1084C183C2468A24209D052681A44AF
:102E400042600A6812680260814200D0086030BDAA
:102E50000460F9E7980000200648416B096829B131
:102E6000416BC968C9684968816270474FF0FF319A
:102E7000FAE700004400002008484068401C4FF07A
:102E8000500080F3118804D0BFF34F8FBFF36F8FD2
:102E9000FEE7BFF34F8FBFF36F8FFEE7A000002068
:102EA0002DE9F0410546002700F0A2F9324E3068C6
:102EB00008B9FFF709FF706905424ED1C5B308355F
:102EC00068070ED005F00700C0F108000544680748
:102ED00007D0502080F31188BFF34F8FBFF36F8F5F
:102EE000FEE72DB37068854237D823481830014675
:102EF0000C6801E020460C466168A94202D22168B4
:102F00000029F7D131688C4227D007682168016019
:102F100060680837411B10290FD96019420708D093
:102F2000502080F31188BFF34F8FBFF36F8FFEE700
:102F300013E041606560FFF769FF61687068401ADF
:102F40007060B268904200D2B060706901430020A6
:102F5000C4E90001F068401CF06000F0B7FA78079F
:102F600007D0502080F31188BFF34F8FBFF36F8FCE
:102F7000FEE73846BDE8F0818000002010B5031F51
:102F80004FF080741C601B1F21F001011960191F94
:102F9000044B0B6014390A60091F6FF002024438B9
:102FA0000A6010BD792E0008D0E9013201699A60EB
:102FB000D0E901235A604A68824201D182684A609E
:102FC000002202610868401E08600868704700001F
:102FD000034B036003F154000860802010607047C9
:102FE000E400002000F108014FF0FF32C0E90112B7
:102FF000C1600161002101607047002101617047DB
:1030000030B50B685A1C02D000F1080202E00269D8
:1030100004E02246546825689D42FAD953684B6003
:1030200099608A60516008610168491C016030BD87
:1030300042684A6093688B60936859609160086148
:103040000168491C01607047502080F31188BFF36C
:103050004F8FBFF36F8F0A494868401C48600128B2
:103060000CD10848006810F0FF0F07D0502080F303
:103070001188BFF34F8FBFF36F8FFEE770470000DB
:10308000A000002004ED00E00849486828B1401E77
:10309000486001D180F311887047502080F3118877
:1030A000BFF34F8FBFF36F8FFEE70000A00000203B
:1030B00070B500282AD0164DA0F10804606869692F
:1030C000084207D1502080F31188BFF34F8FBFF320
:1030D0006F8FFEE722683AB1502080F31188BFF36A
:1030E0004F8FBFF36F8FFEE78843606000F080F87A
:1030F00060686968084468602046FFF787FE2869B1
:10310000401C2861BDE8704000F0E0B970BD0000CF
:10311000800000204FF0E02000210161816105491D
:103120004FF47A720968B1FBF2F1491E416107213F
:10313000016170474000002010B5020014D00F4814
:10314000006B38B1502080F31188BFF34F8FBFF36D
:103150006F8FFEE700F04CF800211046FFF7FAFCF5
:1031600000F0B4F9002807D105494FF080500860FD
:10317000BFF34F8FBFF36F8F10BD000044000020DE
:1031800004ED00E010B586B00024039405AA04A95C
:1031900003A80494FFF71CFFDDE903010094CDE9C7
:1031A000011000230EA11048059A00F0FEF80F4907
:1031B0000028C86211D0502080F31188BFF34F8FD0
:1031C000BFF36F8F4FF0FF30886201204861CC6001
:1031D00006B0BDE8104000F041B806B010BD0000D8
:1031E00049444C4500000000152D00084400002013
:1031F0000248016B491C0163704700004400002035
:103200001448016B11B10121C16170470021C161F6
:103210000169B1FA81F1C1F11F0101EB81020E498F
:1032200051F822306BB101EB820101F108034A68C9
:1032300052684A609A4201D152684A60D16801607E
:103240007047502080F31188BFF34F8FBFF36F8F0B
:10325000FEE7000044000020900900201CB537481C
:103260000168374A914207D1502080F31188BFF39B
:103270004F8FBFF36F8FFEE700683149491E8842C8
:1032800007D1502080F31188BFF34F8FBFF36F8FAA
:10329000FEE72C4908780190FF20087008788DF827
:1032A00000009DF800009DF8002000F0F000904222
:1032B00007D0502080F31188BFF34F8FBFF36F8F7B
:1032C000FEE79DF80000204C00F050002070072021
:1032D000A06005E09DF8002052008DF80020401EFF
:1032E0009DF800201206F5D4A060032807D05020D6
:1032F00080F31188BFF34F8FBFF36F8FFEE74FF45A
:103300004070A060019808700C482030016841F4BA
:1033100070010160016841F070410160FFF7FAFE41
:1033200000206060FCF7AEFF0848016841F04041B2
:103330000160FCF793FF00201CBD000000ED00E0E1
:1033400071C20F4100E400E0A000002034EF00E073
:103350002DE9FF5F8346DDE90E87994616468A46CA
:103360009000FFF79DFD05001CD05420FFF798FD4D
:10337000040014D00020256384F85100CDE90240F8
:10338000CDE900874B46324651465846FFF7F2FCDE
:103390002046FFF717FC012004B0BDE8F09F284647
:1033A000FFF786FE4FF0FF30F6E7F0B585B0DDE9B8
:1033B0000B640A9DA6B1DCB1542700972663022650
:1033C00084F85160002604AFCDE90246CDE90057EC
:1033D000FFF7D0FC2046FFF7F5FB049805B0F0BDE1
:1033E000502080F31188BFF34F8FBFF36F8FFEE73C
:1033F000502080F31188BFF34F8FBFF36F8FFEE72C
:103400002DE9F0412F4C0026206B28B1A069401C0B
:10341000A0613046BDE8F081E5686D1CE56013D120
:10342000606B006838B1502080F31188BFF34F8F74
:10343000BFF36F8FFEE7606BA16B6163A063206ACF
:10344000401C2062FFF708FDA06ADFF87C808542FF
:1034500009D3606B0068A0B1606BC068C76878680A
:10346000854211D2A0622068C06A00EB800158F842
:103470002100012800D90126E0690028C9D00126D1
:10348000C7E74FF0FF30EDE7381DFFF78DFDB86A55
:1034900018B107F11800FFF787FDF96A01202269CA
:1034A00088401043206101EB810108EB8100391D48
:1034B000FFF7BEFDF86A2168C96A8842C9D30126B0
:1034C000C7E7000044000020900900202DE9F047E4
:1034D0002C4D00242746286B38B1FFF7B5FD286B2B
:1034E000401E2863286B40B146E0502080F31188CD
:1034F000BFF34F8FBFF36F8FFEE7A968224E012005
:10350000D1B3A6F1B40980463068E8B1F068C46868
:1035100004F11800FFF748FD201DFFF745FDE06AA4
:103520002A6908FA00F11143296100EB800109EBD7
:103530008100211DFFF77CFDE06A2968C96A884285
:10354000E2D3C5F81C80DFE70CB1FFF785FCAC695E
:1035500044B14646FFF754FF00B1EE61641EF9D155
:103560000020A861E86938B10849012738070860D8
:10357000BFF34F8FBFF36F8FFFF786FD3846BDE86F
:10358000F087000044000020440A002004ED00E021
:103590004FF04070E1EE100A70470000000000009C
:1035A0000000002F000000000700070000147F1437
:1035B0007F1400242A7F2A12006264081323003635
:1035C0004955225000000503000000001C22410064
:1035D000000041221C000014083E08140008083EA8
:1035E0000808000000A060000008080808080000A3
:1035F00060600000002010080402003E5149453E72
:103600000000427F4000004261514946002141458F
:103610004B31001814127F10002745454539003CF6
:103620004A494930000171090503003649494936C4
:1036300000064949291E00003636000000005636B3
:103640000000000814224100001414141414000097
:103650004122140800020151090600324959513E25
:10366000007C1211127C007F49494936003E4141DD
:103670004122007F4141221C007F49494941007F8E
:1036800009090901003E4149497A007F0808087F7D
:103690000000417F4100002040413F01007F0814AD
:1036A0002241007F40404040007F020C027F007FAB
:1036B0000408107F003E4141413E007F0909090690
:1036C000003E4151215E007F0919294600464949C3
:1036D00049310001017F0101003F4040403F001F90
:1036E0002040201F003F4038403F0063140814630F
:1036F00000070870080700615149454300007F41F9
:10370000410000552A552A55000041417F00000420
:103710000201020400404040404000000102040059
:10372000002054545478007F4844443800384444BE
:10373000442000384444487F00385454541800084A
:103740007E0901020018A4A4A47C007F0804047868
:103750000000447D4000004080847D00007F1028F0
:1037600044000000417F4000007C04180478007C85
:103770000804047800384444443800FC2424241805
:103780000018242418FC007C080404080048545441
:10379000542000043F444020003C4040207C001C5A
:1037A0002040201C003C4030403C0044281028446D
:1037B000001CA0A0A07C004464544C4414141414B5
:1037C00014140000000000000000000000000000D1
:1037D0000000000000F8000000000000003330008E
:1037E000000000100C06100C060000000000000095
:1037F000000040C07840C0784000043F04043F040B
:103800000400007088FC08300000001820FF211E12
:103810000000F008F000E018000000211C031E2149
:103820001E0000F00888700000001E2123241927C4
:10383000211010160E000000000000000000000023
:103840000000000000E0180402000000000718203B
:10385000400000020418E0000000004020180700AB
:103860000000404080F0804040000202010F010251
:103870000200000000F0000000000101011F010132
:103880000100000000000000000080B07000000097
:103890000000000000000000000000010101010123
:1038A00001010000000000000000003030000000B6
:1038B000000000000000806018040060180601008D
:1038C000000000E010080810E000000F1020201099
:1038D0000F00001010F8000000000020203F202002
:1038E0000000007008080888700000302824222199
:1038F000300000300888884830000018202020114F
:103900000E000000C02010F8000000070424243F2F
:10391000240000F8088888080800001921202011D8
:103920000E0000E0108888180000000F1120201100
:103930000E0000380808C83808000000003F0000EA
:1039400000000070880808887000001C22212122D5
:103950001C0000E010080810E000000031222211D5
:103960000F00000000C0C000000000000030300068
:1039700000000000008000000000000080600000E7
:103980000000000080402010080000010204081020
:10399000200040404040404040000404040404042F
:1039A00004000008102040800000002010080402DD
:1039B0000100007048080808F000000000303601DF
:1039C0000000C030C828E810E0000718272423149E
:1039D0000B000000C038E0000000203C230202275A
:1039E000382008F8888888700000203F20202011A7
:1039F0000E00C030080808083800071820202010E2
:103A0000080008F808080810E000203F20202010D7
:103A10000F0008F88888E8081000203F20202320A5
:103A2000180008F88888E8081000203F20000300EC
:103A30000000C03008080838000007182020221EA7
:103A4000020008F808000008F808203F21010121C1
:103A50003F20000808F8080800000020203F202030
:103A6000000000000808F8080800C08080807F007F
:103A7000000008F888C028180800203F20012638D8
:103A8000200008F8080000000000203F202020202F
:103A9000300008F8F800F8F80800203F003F003F29
:103AA000200008F830C00008F808203F2000071860
:103AB0003F00E01008080810E0000F102020201040
:103AC0000F0008F808080808F000203F2101010154
:103AD0000000E01008080810E0000F1824243850F7
:103AE0004F0008F8888888887000203F2000030C69
:103AF0003020007088080808380000382021212272
:103B00001C00180808F8080818000000203F2000D2
:103B1000000008F808000008F808001F20202020F6
:103B20001F000878880000C83808000007380E0118
:103B30000000F80800F80008F800033C0700073C04
:103B40000300081868808068180820302C03032CB4
:103B500030200838C800C83808000000203F200086
:103B6000000010080808C838080020382621202046
:103B70001800000000FE020202000000007F40402A
:103B80004000000C30C000000000000000010638BA
:103B9000C00000020202FE000000004040407F0022
:103BA0000000000004020202040000000000000007
:103BB0000000000000000000000080808080808005
:103BC00080800002020400000000000000000000ED
:103BD0000000000080808080000000192422222242
:103BE0003F2008F8008080000000003F11202011D5
:103BF0000E000000008080800000000E11202020B8
:103C00001100000000808088F800000E11202010B4
:103C10003F200000808080800000001F222222229E
:103C20001300008080F0888888180020203F202022
:103C300000000000808080808000006B949494934A
:103C4000600008F8008080800000203F21000020F4
:103C50003F2000809898000000000020203F202096
:103C60000000000000809898000000C08080807FE5
:103C7000000008F8000080808000203F24022D30E2
:103C80002000000808F8000000000020203F20204D
:103C900000008080808080808000203F20003F20C6
:103CA000003F8080008080800000203F21000020B5
:103CB0003F200000808080800000001F2020202006
:103CC0001F00808000808000000080FFA120201164
:103CD0000E000000008080808000000E112020A0D7
:103CE000FF80808080008080800020203F21200095
:103CF0000100000080808080800000332424242480
:103D00001900008080E0808000000000001F20205B
:103D100000008080000000808000001F2020201014
:103D20003F20808080000080808000010E300806E7
:103D3000010080800080008080800F300C030C30F8
:103D40000F0000808000808080000020312E0E3126
:103D50002000808080000080808080818E70180626
:103D6000010000808080808080000021302C222192
:103D7000300000000000807C020200000000003FD4
:103D8000404000000000FF00000000000000FF00B5
:103D900000000002027C800000000040403F000064
:103DA00000000006010102020404000000000000FF
:103DB00000000000603E000827240008000000000A
:103DC0000000000080000000000000000000000073
:103DD000503E00082F2400080000000000000000F2
:103DE000800000000000000000000000543E0008B9
:103DF00065240008020000000000000080000000B0
:103E00000000000000000000583E0008792400086F
:103E10000000000000000000800000000000000022
:103E20000000000000000000000000000102030488
:103E3000060708090000000001020304040000084E
:103E4000000000000000000200010000100000005F
:103E50004C4544005345470054455354000000006E
:103E600064656661756C745461736B008C3E000808
:103E700000000020AC000000D4010008383F00081A
:103E8000AC000020344C0000F001000800000000ED
:103E9000000000000000000000FD61DBF367B7BF19
:103EA000E1FFF7FC60DAF266B6BEE0FEF600000065
:103EB0000000000000000000000000000000000002
:103EC0000100000010000000000000000024F400C9
:103ED00000000000000000000000000000000000E2
:103EE00000000000000000000000000000000000D2
:103EF00000000000000000000000000000000000C2
:103F000000000000000000000000000000000000B1
:103F100000000000000000000000000000000000A1
:103F20000000000000000000000000000000000091
:083F3000AAAAAAAA00000000E1
:040000050800019955
:00000001FF
