:020000040800F2
:10000000F85C00200D030008932D0008A1280008CB
:10001000912D000889090008393600080000000009
:100020000000000000000000000000004D02000879
:100030008B09000800000000A9020008D12F000869
:1000400027030008270300082703000827030008E8
:1000500027030008270300082703000827030008D8
:10006000C109000827030008270300082703000828
:1000700027030008270300082703000827030008B8
:1000800027030008270300082703000800000000DA
:10009000000000000000000000000000C709000888
:1000A0002703000827030008A130000827030008E1
:1000B0002703000827030008270300082703000878
:1000C0002703000827030008270300082703000868
:1000D000270300082703000827030008000000008A
:1000E000270300082703000827030008000000007A
:1000F00000000000000000000000000027030008CE
:100100000000000027030008270300082703000859
:1001100000000000000000000000000000000000DF
:100120002703000827030008270300082703000807
:10013000270300080000000000000000000000008D
:10014000000000000000000000000000270300087D
:1001500027030008270300082703000827030008D7
:10016000270300082703000800000000000000002B
:10017000000000000000000000000000000000007F
:10018000000000002703000800000000000000003D
:10019000270300082703000800F002F800F047F8E2
:1001A0000AA090E8000C82448344AAF10107DA45D2
:1001B00001D100F03CF8AFF2090EBAE80F0013F0DD
:1001C000010F18BFFB1A43F0010318473843000022
:1001D00058430000103A24BF78C878C1FAD85207B3
:1001E00024BF30C830C144BF04680C6070470000B1
:1001F0000023002400250026103A28BF78C1FBD830
:10020000520728BF30C148BF0B607047642900F017
:100210004B81782900F08481732900F0BF8200208F
:1002200070471FB504F0F8F81FBD10B510BD00F001
:10023000E7FA1146FFF7F5FF03F070FB00F005FB4E
:1002400003B4FFF7F2FF03BC03F05CFB2C4B19680F
:100250000868B0E8F04F80F30988BFF36F8F4FF064
:10026000000080F311887047000000000848006813
:10027000006880F308884FF0000080F3148862B6AD
:1002800061B6BFF34F8FBFF36F8F00DF00BF00BFBA
:1002900008ED00E0DFF80C00016841F47001016036
:1002A000704700BF88ED00E0EFF30980BFF36F8F68
:1002B000134B1A681EF0100F08BF20ED108A20E9BA
:1002C000F04F106009B44FF0500080F31188BFF375
:1002D0004F8FBFF36F8F03F0D7FE4FF0000080F316
:1002E000118809BC19680868B0E8F04F1EF0100FBB
:1002F00008BFB0EC108A80F30988BFF36F8F704796
:100300004C000020EFF3058070470000094880474B
:1003100009480047FEE7FEE7FEE7FEE7FEE7FEE7E7
:10032000FEE7FEE7FEE7FEE704480549054A064BFF
:10033000704700009130000899010008F85600202D
:10034000F85C0020F8580020F8580020704753EA65
:10035000020C00F069802DE9F04B4FF00006002BF5
:100360001FBFB3FA83F503FA05F424FA05F65E40DD
:1003700012BF1643B2FA82F502FA05F4C5F1200560
:100380001EBF22FA05FC44EA0C04203556EA044C50
:100390004FEA144418BF641C4FF000084FF00009E6
:1003A000904271EB030C39D3002919BFB1FA81F7E0
:1003B00001FA07F6B0FA80F700FA07F6C7F120074E
:1003C0001EBF20FA07FC46EA0C062037B6FBF4FCF9
:1003D000A7EB0507103F07F01F0BCBF120060CFA27
:1003E0000BFB2CFA06F644BFB3460026202FA4BF11
:1003F0005E464FF0000B5BEA060C08BF4FF0010BA6
:1004000019EB0B09ABFB027C48EB0608C01B06FB93
:1004100002CC0BFB03CC71EB0C01C1E70B4602468F
:1004200041464846BDE8F08B13B54FF000004FF051
:100430000001AFF30080BDE81C4070470FB40449D1
:1004400010B503AA029800F0ADF910BC5DF814FBDA
:100450000000002070B50C460546012A05D028781A
:10046000800600D5EA69002302E0012305E05B1C59
:10047000934202D2E05C0028F9D1A869E618C01ABC
:10048000A861286A184428622846AFF3008004E077
:10049000D5E9012114F8010B9047B442F8D328465E
:1004A000AFF3008070BD00002DE9F0410646002446
:1004B00010687529314616A510D0AFF300800028CA
:1004C00002DA404213A507E031688A0701D512A578
:1004D00002E0490704D511A5012401E0AFF3008033
:1004E00000210A2206F1240709E0B0FBF2FCB0FB70
:1004F000F2F302FB1C00303078541846491C0028E7
:10050000F3D123462A463046BDE8F04100F0DBB87F
:10051000000000002D0000002B0000002000000063
:1005200070B504460D4621461068AFF3008021885F
:10053000090502D50F4A7A4402E00E4A7A440E3287
:10054000002104F1240305E000F00F060009965D88
:100550005E54491C0028F7D120780023000704D5F9
:10056000702D02D009B1022311322046BDE870403F
:1005700000F0A9B8723F00002DE9F0410F46044693
:100580000020DFF88480F84420622046E168884734
:1005900090B3252806D0D4E901219047206A401C59
:1005A0002062F2E700252046E168884720280646B9
:1005B00008DB312E06D208EB060010F8200C08B13B
:1005C0000543F0E7A80701D525F00405A6B1A6F17B
:1005D0004100192802D8203645F400653A463146D4
:1005E00020462560FFF712FE48B1012805D0FF1D07
:1005F00027F007070837C8E703E03F1DC5E7304687
:10060000C9E7206ABDE8F0814A3F000010B5203AF2
:10061000C0F00B80B1E81850203AA0E81850B1E8BB
:100620001850A0E81850BFF4F5AF5FEA027C24BF71
:10063000B1E81850A0E8185044BF18C918C0BDE868
:1006400010405FEA827C24BF51F8043B40F8043B31
:1006500008BF7047D20728BF31F8023B48BF11F8E6
:10066000012B28BF20F8023B48BF00F8012B704740
:100670004FF0000200B5134694469646203922BF3B
:10068000A0E80C50A0E80C50B1F12001BFF4F7AF86
:10069000090728BFA0E80C5048BF0CC05DF804EB68
:1006A000890028BF40F8042B08BF704748BF20F8D6
:1006B000022B11F0804F18BF00F8012B70477047D4
:1006C0007047704770472DE9F0470D4699469246AE
:1006D000044600F124080168880604D5E06921F089
:1006E0001001216000E00120A84201DD471B00E06D
:1006F0000027A1697A1902EB0900081AA061207885
:10070000C00602D42046AFF30080002608E0D4E9FA
:1007100001211AF806009047206A401C761C2062CE
:100720004E45F4DB2078C0060AD52046AFF30080A2
:1007300006E0D4E9012130209047206A401C206265
:10074000381EA7F10107F4DC07E0D4E9012118F80D
:1007500005009047206A401C2062281EA5F1010573
:10076000F3DC2046AFF300802078000602D502209B
:10077000BDE8F0870120FBE710B5436913B1AFF383
:10078000008001E0FFF766FE012010BD127800F145
:1007900024010A7000224A700122EDE711684FF02F
:1007A000FF32E9E7074B70B50D467B4400F011F8C6
:1007B0000446284600F020F810B14FF0FF3070BD1D
:1007C000204670BD5B31000001694A1C0261087857
:1007D000704700B58FB0CDE9013100210591054981
:1007E0007944CDE9031011466846FFF7C5FE0FB006
:1007F00000BD0000E5FFFFFF007B00F080007047B8
:10080000754600F02BF8AE4605006946534620F0C9
:100810000700854618B020B5FFF786FDBDE82040EB
:100820004FF000064FF000074FF000084FF0000BAC
:1008300021F00701AC46ACE8C009ACE8C009ACE85F
:10084000C009ACE8C0098D46704710B50446AFF347
:1008500000802046BDE81040FFF7F2BC004870471A
:100860009856002010B5FF2000F020F855280AD037
:100870005521FF2000F05AF8FF2000F017F8552806
:1008800001D0002010BD012010BD70B514460D46EA
:10089000064606E03046711C8EB200F007F805F8F7
:1008A000010B641EA4B2F5D270BD000070B5054600
:1008B00002F08AF814482C0A0088B0F5006F4FF057
:1008C000A00005D302F05AF802F0AEF8204602E08C
:1008D00000EB4400C0B202F051F802F0A5F8E8B213
:1008E00002F04CF802F0A0F802F06EF8A12002F03D
:1008F00045F802F099F8002002F003F8044602F0EF
:100900007BF8204670BD00002400002070B516461C
:100910000C46054606E02178284600F007F86D1CD5
:10092000ADB2641C761EB6B2F5D270BD70B50E467F
:10093000044602F049F81348250A0088B0F5006F14
:100940004FF0A00005D302F019F802F06DF8284628
:1009500002E000EB4500C0B202F010F802F064F8CB
:10096000E0B202F00BF802F05FF8304602F006F851
:1009700002F05AF802F040F8BDE870400A2002F098
:10098000F7BF000024000020FEE7704770B54FF667
:10099000FA710A4D081A84B228684462284601F0A8
:1009A00019FC4FF6F971286801E0426A94B28C4252
:1009B000FBD3BDE87040014801F074BCC8130020AF
:1009C000042000F031BB10B54FF4807000F02CFB18
:1009D000BDE810404FF4007000F026BB72B6FEE791
:1009E0000F4B401E81F00102082817D2DFE800F00B
:1009F0000406080A0C0E101201210CE002210AE084
:100A0000042108E0082106E0102104E0202102E092
:100A1000402100E08021184600F00FBC7047000024
:100A200000080240204A10B51170204990FBF1F2F5
:100A30001D49491CCA711E4A90FBF2F30A2293FB1E
:100A4000F2F402FB14338B711A4B90FBF3F393FB1C
:100A5000F2F402FB14334B7142F2107390FBF3F388
:100A600093FBF2F402FB14330B714FF47A7390FB97
:100A7000F3F393FBF2F402FB1433CB70642390FB8B
:100A8000F3F393FBF2F402FB14338B7090FBF2F35D
:100A900093FBF2F402FB14334B7090FBF2F302FB76
:100AA0001300087010BD000004000020809698001C
:100AB00040420F00A08601002DE9F0410C4E0124B8
:100AC0000746751C3078A04205EB040010F8011CA5
:100AD00001D1012200E00022204600F00BF8384648
:100AE00002F046FF641CE4B2092CEBD3BDE8F081B0
:100AF0000400002070B5054600244AB1234A0A29A3
:100B000024D2DFE801F010121416181A1C1E20223D
:100B10001E4A0A320A2919D2DFE801F00507090B3B
:100B20000D0F11131517147810E054780EE0947817
:100B30000CE0D4780AE0147908E0547906E094795E
:100B400004E0D47902E0147A00E0547A5FF0000601
:100B500024FA06F0C00700D0012001F089FE012030
:100B600001F096FE002001F093FE761CF6B2082EEE
:100B7000EED36D1EE8B201F031FE012001F080FEDF
:100B8000BDE87040002001F07BBE00000D00002099
:100B90002DE9F0410546002440000321B0FBF1F0AF
:100BA000C7B22646DFF834800EE000BF00F018F828
:100BB000B8F8021001EB8101B0EB910F01D9761C5E
:100BC000F6B2A04200D904466D1EEDB2EED2BE428E
:100BD00002D32046BDE8F0810020FBE7260000207C
:100BE00010B500F06DF80A484FF60B61006805E09B
:100BF000426A8A4202D9406A80B210BD0269D24379
:100C0000D206F5D40C21024801F06AFDF4E7000099
:100C1000B410002030B5401E81B285B000254FF6DB
:100C2000FF7000F09BF86C46FFF7DAFF24F8150020
:100C30000A2002F09DFE6D1CEDB20A2DF4D30020B7
:100C4000411C0A4609E000BF34F8103034F8115056
:100C500024F8105024F81130491CC9B20A29F3D3E2
:100C6000D0B20928ECD300215FF0020034F8102044
:100C7000401C1144C0B289B20828F7D30620B1FB4A
:100C8000F0F1074C07A06180FFF7D8FB6088B0F552
:100C9000004F02D3002005B030BD0120FBE700006B
:100CA00026000020545041445F44656661756C5FC6
:100CB00056616C7565203D2025640D0A000000001A
:100CC00030B585B014216846FFF7D2FC012002241C
:100CD000CDE901040F4D039469462846009400F0C5
:100CE000AFF900220221284600F0A7FA052002F001
:100CF0003FFE09496FF011000A6810610868002280
:100D00004262CDE9014269462846049400F098F910
:100D100005B030BD00040240B410002070B50100E1
:100D20000D4C4FF000054FF0030002D000210620CB
:100D30002170FFF72DFF61881E31884202D9032000
:100D4000207001E0207820B1C0B2401E2070002049
:100D500070BD284670BD0000260000201FB50E4A59
:100D600000240C4BC2E902401461C2E90031104674
:100D700001F03BFB0120CDE9004002940C226946C2
:100D80000548039401F0A2FA0C21034801F082FB0C
:100D90001FBD000000040040B410002005A0FFF7B4
:100DA0004DFB05A0FFF74AFB00F0C0F800F010F87B
:100DB00000F076F80D0A0000463431312054657396
:100DC00074205374617274696E673A0D0A000000F2
:100DD00010B58CB0182217A16846FFF717FC1BA0AE
:100DE000FFF72CFB4FF47A74204602F0C1FDFFF7A9
:100DF00039FDE8B11BA000BFFFF720FB204602F041
:100E0000B7FD162269460020FFF780FD162206A9CD
:100E10000020FFF73AFD06A918A0FFF70FFB19A065
:100E2000FFF70CFB4FF4FA6002F0A2FD0CB010BD0E
:100E300015A0E1E741543234433032205445535435
:100E400020537563636573732100000046343131AC
:100E50005F544553543A20415432344330320D0AE2
:100E6000000000004154323443303220496E69742E
:100E70002053756363657373210D0A0025730D0A92
:100E8000000000000D0A000041543234433032208B
:100E9000496E6974204661696C6564210D0A000021
:100EA0000620FFF7B7FE0DA0FFF7C8FA4FF47A70DF
:100EB00002F05EFD0FA0FFF7C1FA184C0020FFF70B
:100EC0002DFF30B116A0FFF7B9FA0121204600F03E
:100ED000ACF9012002F04CFDF0E70000463431315E
:100EE0005F544553543A20546F7563685061640DE4
:100EF0000A000000546F7563685061642073746168
:100F000072746564204D6F64653020666F7220498D
:100F10006E66696E6974790D0A000000000802406F
:100F2000546F7563686564210D0A000030B58DB09B
:100F300018221BA16846FFF769FB02F0E1FB04469B
:100F40001DA0FFF77BFA4FF47A75284602F010FDDA
:100F500014B3A4F57F40FF381ED021461BA0FFF735
:100F60006DFA284602F004FD1C4C15226946204605
:100F700002F00CFC152206A9204602F091FB06A9FE
:100F800017A0FFF75BFA18A0FFF758FA4FF4FA60C2
:100F900002F0EEFC0DB030BD14A0FFF74FFAE0E711
:100FA00057323551313620544553542053756363BD
:100FB0006573732100000000463431315F5445539E
:100FC000543A205732355131360D0A00466C617360
:100FD000682049443A202523780D0A009CFF1F0011
:100FE00025730D0A000000000D0A000052656164BF
:100FF000204944204661696C6564210D0A000000A7
:1010000070B5044600F01EF90546601C02D0044885
:101010000078044400F016F9401BA042FAD370BDDA
:101020003C00002070470000044910B50A680242E5
:1010300002D00860FFF7F6FF10BD0000143C01402D
:101040002DE9F84FDFF8B8A10022012403254FF065
:101050000F090AF1040BAAF1040E00BF0B6804FA91
:1010600002F63340B34273D10F7907F00307012F23
:1010700001D0022F16D187684FEA420805FA08FC12
:1010800027EA0C07D1F80CC00CFA08FC4CEA070C54
:10109000C0F808C04768B7430E79C6F300169640FB
:1010A0003E4346600E79F643B6070DD0C76856003A
:1010B00005FA06FC27EA0C07D1F808C00CFA06FC72
:1010C0004CEA070CC0F80CC00E7906F00306022E9D
:1010D00010D1D60800EB8608D8F8206057074FEAF1
:1010E000D76C09FA0CF7BE430F6907FA0CF73743C0
:1010F000C8F8207006684FEA420C05FA0CF7BE43A8
:101100000F7907F0030707FA0CF7374307604E68BB
:1011100016F4403F6DD03B4E376847F48047376048
:10112000366822F0030706F480460096364E07EB39
:10113000060CDCF8086897073F0F09FA07F826EA5B
:101140000806DFF8C880404503D14FF000081EE0D4
:101150004FE0DFF8BC80404502D14FF0010816E0B7
:10116000DFF8B080404502D14FF002080FE0DFF811
:10117000A880404502D14FF0030808E0DFF89C80CA
:10118000404502D14FF0040801E04FF0070808FA8B
:1011900007F848EA0608CCF80888DAF800605746ED
:1011A000D1F804C09E435FEACC2C00D51E433E60BC
:1011B000DBF800605F46D1F804C09E435FEA8C2CE8
:1011C00000D51E433E60DEF800607746D1F804C0CB
:1011D0009E435FEA8C3C00D51E433E60084F083FAB
:1011E0003E68D1F804C09E435FEACC3C00D51E4364
:1011F0003E60521C102AFFF431AFBDE8F88F0000AA
:10120000083C0140443802400030014000000240E8
:101210000004024000080240000C0240001002409E
:101220000069084000D001207047426921EA0203AA
:101230000A4043EA0241816170470AB18161704707
:101240000904FBE701488068704700003C0000206B
:101250000248816802781144816070473C00002098
:101260000B4810B5016841F400710160016841F458
:1012700080610160016841F480710160032000F029
:101280008DF80F2000F006F800F03EF8002010BDA9
:10129000003C024010B5014688B000221A2000F040
:1012A0005DF81A2000F04CF813480024016841F45E
:1012B00080210160006805A900F48020069068463E
:1012C00000F06EFA00F09CFA0C490D4AB0FBF1F107
:1012D0000C48491E026040F2E732C0E90324C0E92D
:1012E000011400F036FF10B1012008B010BD054810
:1012F00000F0A2FFF9E700004438024040420F002E
:1013000000480140601900200C4882B0016841F497
:1013100080410160006800F4804000900748001F91
:10132000016841F0805101600068002200F08050A7
:1013300000900F21901E02B000F010B84438024017
:10134000002809DB00F01F020121914040098000C4
:1013500000F1E020C0F8001170470000F0B40E4B1F
:101360001B680C46C3F30223C3F10705042D00D903
:101370000425191D072901D2002300E0DB1E0126E8
:1013800006FA05F1491E214099409E40761E1640FE
:101390003143F0BC02F0A6BA0CED00E0064900F0C3
:1013A000070208684FF6FF03184040EA0220034A8C
:1013B00010430860704700000CED00E00000FA05E3
:1013C0002DE9F0418AB0040005D094F8BD042668E8
:1013D000002520B108E001200AB0BDE8F08184F8C2
:1013E000BC54204600F05EF8032084F8BD04F06B86
:1013F000C00500D42561206802F0ACF804F11001AA
:10140000282288466846FFF701F994E80F0001F0AA
:101410007FFF0226C8BB0021206802F0DFF8002011
:1014200001270EE000EBC00104EB810181F83D7063
:1014300001F83C0F08810D71CD600D61401CC0B2F8
:101440008D6161688142EDD8002011E000EBC001A0
:1014500004EB810181F87D5281F87C0281F8805291
:10146000C1F88852C1F88C52401CC0B2C1F89452E5
:1014700061688142EAD8282241466846FFF7C6F8EB
:1014800094E80F0001F0ACFF10B184F8BD64A2E74E
:1014900084F8385084F8BD74206801F093FF002070
:1014A0009AE7000010B586B0044614216846FFF79D
:1014B000DFF82068B0F1A04F27D11548002102685D
:1014C00042F001020260006800F0010005904FF454
:1014D000C05000900220CDE90101032003900A20B2
:1014E000049069460B48FFF7ABFD0948001D0168F1
:1014F00041F08001016006481430016841F48041E8
:101500000160006800F48040059006B010BD000046
:1015100030380240000002402DE9F84304460068DC
:101520004FF00109C1074FF0000601D1400729D54E
:10153000DFF82081C8F86860FFF784FE0746464D53
:1015400005E000BFFFF77EFEC01B022859D82868BF
:101550000001F7D4A068217B800140EA0170616836
:1015600008433D4984310860C8F86890FFF76AFE77
:10157000074604E0FFF766FEC01B022841D8286832
:101580000001F7D52078800752D5334840300168F4
:1015900041F0805101600068304D00F080500090B3
:1015A000286840F480702860FFF74CFE074604E08E
:1015B000FFF748FEC01B022823D82868C005F7D5CE
:1015C000254D7035286810F4407020D0218A01F430
:1015D000407181421BD02868214920F44070C1F835
:1015E00000900E6028602868C00710D0FFF72AFE20
:1015F000064641F2883707E0FFF724FE801BB84219
:1016000002D90320BDE8F88328688007F4D5216952
:101610001148C1F301220830032A12D0016821F4D5
:10162000F81101602868218AC1F30B010843286082
:101630002078000703D50B49207DC1F8E001002088
:10164000E0E70268084B22F4F81219400A430260EE
:10165000E8E7000000004742003802400070004008
:10166000400E474200104742FFFCFF0F2DE9F047B4
:101670000E46050065D0DFF81481D8F80000F7B2F7
:1016800000F00700B04207D288F80070D8F80000D8
:1016900000F00700B04254D128683D4C810712D5B4
:1016A000400703D5206840F4E05020602878000708
:1016B00003D5206840F4604020602068A96820F0CD
:1016C000F000084320602878C0072DD030496868B2
:1016D0000839012812D0022813D0032811D0096834
:1016E000890700292DDA216821F0030101432160D7
:1016F000FFF7A8FD814641F2883A0EE009688903A8
:10170000EFE709688901ECE7FFF79CFDA0EB090111
:10171000514502D90320BDE8F0872068696800F0D0
:101720000C00B0EB810FEFD1D8F80010404601F06B
:101730000701B14207D90770006800F00700B04206
:1017400001D00120E7E72878400705D52068E9683F
:1017500020F4E050084320602878000706D5206870
:10176000296920F4604040EAC100206000F058F888
:101770002168084AC1F30311515CC840064908605A
:1017800006480068FFF786FD0020C4E7003C0240E1
:10179000083802409444000848000020400000201F
:1017A0000F2202600C4A136803F0030343601368BE
:1017B00003F0F0038360136803F4E053C36012681E
:1017C0004FF4E05303EAD20202610448006800F0DB
:1017D000070008607047000008380240003C0240E3
:1017E0000448054900680968044AC1F38221515C34
:1017F000C84070474800002008380240A444000850
:101800000448054900680968044AC1F34231515C43
:10181000C84070474800002008380240A44400082F
:10182000154810B5006810F00C02144813D0411090
:10183000042A0FD0082A0ED10F4C241F22682368D7
:1018400002F03F025B0207D52068C0F38810A0FBBE
:10185000010106E0084610BD2168C1F38811A1FB13
:1018600000010023FEF773FD2168C1F30141491C0B
:101870004900B0FBF1F010BD083802400024F4002C
:101880002DE9F84F04006ED02078DFF84C93C007A4
:10189000A9F104054AD009F104000168C1F38101EE
:1018A000012908D00068C0F3810002280AD1D9F8C4
:1018B0000000400206D52868800337D560680028FC
:1018C000E1D033E06068B0F5803F10D0B0F5A02FD4
:1018D000286810D020F480302860286820F4802008
:1018E00028606068A8B1FFF7ADFC06460DE02868E7
:1018F00040F48030F4E740F480202860F7E700BF30
:10190000FFF7A0FC801B642873D828688003F7D5F4
:101910000CE0FFF797FC064605E000BFFFF792FCDE
:10192000801B6428F0D828688003F7D42078DFF87B
:10193000AC8280074FF0000A3ED5A748001D016821
:1019400011F00C0F08D00068C0F3810002280BD101
:10195000D9F80000400207D42868800716D5E0684F
:10196000012800D112E033E1E068B8B10120C8F8E5
:101970000000FFF767FC064605E000BFFFF762FCCA
:10198000801B0228C0D828688007F7D528682169FD
:1019900020F0F80040EAC10028600DE0C8F800A07F
:1019A000FFF750FC064604E0FFF74CFC801B0228C2
:1019B0001FD828688007F7D42078000722D5864FE3
:1019C00087486169703771B101210160FFF73AFC06
:1019D000064604E0FFF736FC801B022809D8386869
:1019E0008007F7D50EE0C0F800A0FFF72BFC0646F5
:1019F00005E082E0FFF726FC801B02287DD83868CE
:101A00008007F7D42078400768D5DFF8CCB10027ED
:101A10000BF13C0BDBF80000C0000BD4DBF800102E
:101A200041F08051CBF80010DBF80000012700F0F6
:101A3000805000906B4E3068C00510D4306840F480
:101A400080703060FFF7FEFB009005E0FFF7FAFBC7
:101A50000099401A022850D83068C005F6D55E4E6D
:101A6000A0686C3601280FD00528306810D020F00F
:101A700001003060306820F004003060A068B8B128
:101A8000FFF7E0FB00900FE0306840F00100F4E762
:101A900040F004003060F7E7FFF7D4FB0099411AEB
:101AA00041F28830814266D830688007F4D50EE074
:101AB000FFF7C8FB009007E0FFF7C4FB0099411A4D
:101AC00041F28830814256D830688007F4D42FB173
:101AD000DBF8001021F08051CBF80010A069C8B3EA
:101AE0003D49091D0968C1F3810102294AD0022834
:101AF000504607D0C8F8600000E03CE0FFF7A2FBCA
:101B000004463BE04746C8F86000FFF79BFB0646EB
:101B100005E000BFFFF796FB801B02282BD8286842
:101B20008001F7D4D4E907010843A16A2E4A490885
:101B300002EB0141626A41EA8211084394F82C10D9
:101B400040EA0161C9F8001001203866FFF77AFB0E
:101B5000044606E03EE000BFFFF774FB001B0228CE
:101B600009D828688001F7D534E000BFFFF76AFB89
:101B7000001B022802D90320BDE8F88F28688001E5
:101B8000F4D427E00128F7D0D9F80000E26900F486
:101B9000800191421CD1226A00F03F01914217D18D
:101BA00047F6C071626A0140B1EB821F10D1A26A90
:101BB0004FF0FF3300F4403103EB5202B1EB024F20
:101BC00006D194F82C1000F07060B0EB016F01D0DA
:101BD0000120D1E70020CFE704380240000047424F
:101BE000800E4742007000400000FFFF10B5040067
:101BF00002D0607F10B106E0012010BD00202077E8
:101C0000204600F039F8022060772168CA20486237
:101C1000216853204862204601F0C8F830BB206894
:101C20008168144A114081602168886862681043A5
:101C3000D4E904231A43104388602168E0680861EE
:101C400020680169228941EA02410161204601F0D0
:101C5000D1F858B921680A6C22F480220A642168FC
:101C60000A6CA3691A430A64012161772268FF2183
:101C7000516210BDBFFF8FFF10B586B0044618211A
:101C80006846FEF7F5FC0949206888420CD102201D
:101C90000090C00104906846FFF73EFC08B1FEF7D3
:101CA0009DFE03490120086006B010BD00280040D9
:101CB0003C0E474270B50446007F0B46012819D000
:101CC0000126267702206077B2B19878D97840EA69
:101CD000014558781978000240EA413005432168EF
:101CE000CA204862216853204862204601F05EF80D
:101CF000D0B122E0022070BD5878C10603D500F0B3
:101D0000EF000A305870D87801F044F8020458788F
:101D100001F040F842EA0022987801F03BF80243D3
:101D2000187842EA4035DAE7074805402068456000
:101D3000204601F05FF800B966772268FF21516202
:101D40000021217770BD00003FFFFF002DE9F04129
:101D50000446007F0D46012823D04FF0010884F887
:101D60001C80022060772068002780684FEA40606E
:101D7000D2B1002800DBEF70A878297840EA01464C
:101D80006878E978000240EA815006432168CA2059
:101D90004862216853204862204601F007F8B8B134
:101DA0002CE00220BDE8F081002800DBEF702878ED
:101DB00000F0F0FF0204687800F0ECFF42EA002235
:101DC000A87800F0E7FF0243E87842EA8056DDE7B2
:101DD0000D480640206806602068816821F4802153
:101DE0008160D5E90301084321688A68104388604F
:101DF000204600F0FFFF08B984F81D802268FF210B
:101E000051622777CEE700007F7F7F0070B50446E0
:101E10000068C16821F0A001C160FFF713FA054610
:101E20004FF47A7607E000BFFFF70CFA401BB04290
:101E300001D9032070BD2068C0688006F4D5002059
:101E400070BD70B5040009D0606A002540B12561FD
:101E50006561A56294F8510040B10CE0012070BDAD
:101E60006068B0F5827FF4D0E561F2E784F8505005
:101E7000204600F045F8022084F8510020680168EF
:101E800021F040010160A088218900F4827001F4F2
:101E900004410843A18901F400610843217C01F059
:101EA00002010843217D01F001010843218B01F467
:101EB00000710843217F01F03801084394F8201095
:101EC00001F080010843218D01F40051084321688D
:101ED0000860A069042101EA104094F8241001F080
:101EE00010010843216848602068C16921F400613D
:101EF000C1616565012084F85100002070BD0000BB
:101F000010B586B0044614216846FEF7B1FB1449AB
:101F10002068884221D113480021026842F480429F
:101F20000260006800F4804005900E481038026896
:101F300042F002020260006800F0020005904FF4D7
:101F4000604000900220CDE90101032003900520AC
:101F5000049069460448FFF773F806B010BD00000E
:101F60000038004040380240000402402DE9F84F9C
:101F7000044690F8500000270A9E1D4692468B4664
:101F80004FF0010901280ED0012084F85000FFF71E
:101F900059F9804694F85100616801280CD0B1F5D8
:101FA000827F07D102E00220BDE8F88FA16809B95D
:101FB000042801D00227C2E0BBF1000F27D0BAF1FC
:101FC000000F24D01DB394F85100042802D005203E
:101FD00084F8510000206065C4F838A0E587A58723
:101FE000C4F830B0E586A586206460642068016886
:101FF000490603D4016841F040010160E068B0F592
:10200000006F606805D0E8B3012D46D07FE001275E
:1020100095E008B1012D39D1206B21680088C86096
:10202000206B801C2063E08E401EE0862EE020683E
:10203000816889070FD5E18E69B1B9F1010F0AD125
:10204000216B0988C160206B801C2063E08E401EDC
:10205000E0864FF0000920688168C9070CD0E18F45
:1020600051B1C068A16B0880A06B801CA063E08F99
:10207000401EE0874FF00109FFF7E4F8A0EB0800ED
:10208000B04200E009E001D3701C50D1E08E00287E
:10209000CDD1E08F0028CAD13FE0206B21680078C5
:1020A0000873206B401C2063E08E401EE0862EE00B
:1020B0002068816889070FD5E18E69B1B9F1010FF8
:1020C0000AD1216B09780173206B401C2063E08EDC
:1020D000401EE0864FF0000920688168C9070CD0D7
:1020E000E18F51B1C068A16B0870A06B401CA06368
:1020F000E08F401EE0874FF00109FFF7A3F8A0EB47
:102100000800B04202D3701C01D010E07EB1E08E16
:102110000028CDD1E08F0028CAD142463146204662
:1021200000F09EFE28B101272020606507E003270C
:1021300005E0A06818B92068C16880680090012097
:1021400084F85100002084F8500038462CE770478E
:10215000704710B5040003D094F83D0010B107E0BB
:10216000012010BD002084F83C00204600F01EF83D
:10217000022084F83D00211D206800F097FF012017
:1021800084F8460084F83E0084F83F0084F840005C
:1021900084F8410084F8420084F8430084F8440045
:1021A00084F8450084F83D00002010BD08B50068A3
:1021B0000649884208D10648016841F400310160AF
:1021C000006800F40030009008BD000000440140A9
:1021D0004438024090F83D10012901D00120704799
:1021E000022180F83D1000680E4988420ED0B0F1FF
:1021F000804F0BD00C49884208D00C49884205D04A
:102200000B49884202D00B49884204D1816801F011
:102210000701062903D0016841F001010160002097
:10222000704700000000014000040040000800402A
:10223000000C00400040014090F83D10012901D001
:1022400001207047022180F83D100168CA6842F001
:102250000102CA6000680E4988420ED0B0F1804F7A
:102260000BD00C49884208D00B49884205D00B4955
:10227000884202D00A49884204D1816801F00701EE
:10228000062903D0016841F0010101600020704778
:10229000000001400004004000080040000C004025
:1022A0000040014001680A6A41F211131A4207D145
:1022B0000A6A9B101A4203D10A6822F001020A60DE
:1022C000012180F83D100020704770472DE9F04152
:1022D000054690F83C0000260C46012810D001204D
:1022E00085F83C0072B1042A1CD0082A2CD00C2A94
:1022F00050D00126002085F83C003046BDE8F08132
:102300000220FBE7D4E90012E368286800F028FF08
:102310002868816921F00C01816128688169A268BF
:1023200011430FE0D4E90012E368286800F04EFF83
:102330002868816921F44061816128688169A26807
:1023400041EA02218161D5E72868D4E9002C277B86
:10235000016A21F480710162C169036A21F00301FD
:1023600041EA0C0121F0F00C39074FF420674CEAE8
:10237000116123F4206307EA02221A43C161026259
:102380002868C16921F00C01C1612868C169A2688F
:10239000114328E02868D4E90027E168036A23F4A0
:1023A00080530362D0F81CC0036A2CF4407C4CEAD2
:1023B00007274FF6FF7C27F470470CEA01313943B9
:1023C0004FF4204723F4204307EA02321A43C16145
:1023D00002622868C16921F44061C1612868C1694D
:1023E000A26841EA0221C16184E710B5040003D06C
:1023F00094F83D0010B107E0012010BD002084F8E2
:102400003C00204600F01EF8022084F83D00211D0B
:10241000206800F04BFE012084F8460084F83E005E
:1024200084F83F0084F8400084F8410084F84200BA
:1024300084F8430084F8440084F8450084F83D00A3
:10244000002010BD114800B5026887B0002142F09D
:1024500002020260006800F0020005900B4810388C
:10246000026842F002020260006800F0020005907B
:102470000220CDE9010103210090CDE90310694656
:102480000348FEF7DDFD07B000BD00004038024004
:102490000004024010B5044651B104290DD00829AA
:1024A00010D094F8410094F84520012811D10EE095
:1024B00094F83E0094F84220F7E794F83F0094F82F
:1024C0004320F2E794F8400094F84420EDE7012A15
:1024D00001D0012010BD022049B304292CD00829C5
:1024E0002FD084F8410084F845000122206800F0D4
:1024F00029FE1649206888420ED0B0F1804F0BD0DB
:102500001349884208D01349884205D012498842AD
:1025100002D01249884204D1816801F007010629DE
:1025200003D0016841F001010160002010BD84F872
:102530003E0084F84200D8E784F83F0084F8430066
:10254000D3E784F8400084F84400CEE7000001405F
:102550000004004000080040000C00400040014022
:1025600070B50446006801694FF00005C94389074A
:1025700015D4C168C943890711D4E91E016101203E
:102580002077206880698007204602D0FFF79DFEF3
:1025900004E000F098F8204600F096F825772068CF
:1025A0000169C943490717D4C168C943490713D40E
:1025B0006FF004010161022020772068806910F427
:1025C000407F204602D0FFF780FE04E000F07BF859
:1025D000204600F079F8257720680169C94309078A
:1025E00016D4C168C943090712D46FF0080101610C
:1025F000042020772068C0698007204602D0FFF7BA
:1026000064FE04E000F05FF8204600F05DF82577F6
:1026100020680169C943C90617D4C168C943C906FE
:1026200013D46FF010010161082020772068C06981
:1026300010F4407F204602D0FFF747FE04E000F090
:1026400042F8204600F040F8257720680169C94328
:10265000C90708D1C168C943C90704D1891E0161EE
:10266000204600F033F820680169C943090609D4FF
:10267000C168C943090605D46FF080010161204695
:10268000FFF765FD20680169C943490609D4C1689F
:10269000C943490605D46FF040010161204600F0AE
:1026A00034F820680169C94389060BD4C168C9435D
:1026B000890607D46FF0200101612046BDE8704013
:1026C000FFF746BD70BD70477047000000680349C2
:1026D000884201D1FEF7BCBD7047000000480140B0
:1026E0000246002041B1042909D008290AD00C294A
:1026F00001D11068006C70471068406B704710681B
:10270000806B70471068C06B7047704770B50400ED
:1027100004D094F83D00002510B106E0012070BD02
:1027200084F83C50204600F023F8242084F83D0033
:102730002068C16821F40051C160204600F062FDAC
:102740002068016921F4904101612068416921F00C
:102750002A0141612068C16841F40051C1602564CB
:10276000202084F83D0084F83E00002070BD000069
:1027700010B586B0044614216846FDF779FF144968
:102780002068884221D113480021026842F01002DB
:102790000260006800F0100005900E4814380268CE
:1027A00042F001020260006800F0010005904FF461
:1027B000C06000900220CDE90101032003900720B2
:1027C000049069460448FEF73BFC06B010BD0000CB
:1027D00000100140443802400000024010B50828B3
:1027E0002DD2DFE800F00406080F181D2227012073
:1027F00012E0012015E0012018E000BF00F028F8E9
:10280000012004E0012016E000F022F80020BDE8DD
:10281000104000F015B8002000F022F80120EDE78C
:10282000002000F01DF80120EEE7002000F018F86D
:102830000020E3E7002000F013F80020E4E710BDDB
:1028400002464FF480610148FEF7F7BC00080240E1
:1028500002464FF400610148FEF7EFBC0008024059
:1028600002464FF480510148FEF7E7BC00080240E1
:10287000024608210148FEF7E0BC000000040240C7
:10288000024610210148FEF7D8BC000000040240B7
:10289000024620210148FEF7D0BC0000000402409F
:1028A000FEE710B5002000F053F8012000F0B8FA60
:1028B000002000F05BF80220FEF768F8012000F02D
:1028C00047F80220FEF762F8BDE81040002000F053
:1028D0003FB810B5002000F03BF8012000F0A0FA4E
:1028E000012000F043F80220FEF750F8012000F02C
:1028F0002FF80220FEF74AF8BDE81040002000F053
:1029000027B870B506460024204600F089FA002555
:10291000002000F01DF80220FEF738F8012000F03A
:1029200017F86006040E00F01BF8012801D1641CA2
:10293000E4B20120FEF72AF86D1CEDB2082DE7D3B2
:102940001EB1FFF7AEFF204670BDFFF7C2FFFAE7EA
:10295000024640210148FEF770BC0000000402401E
:1029600080210148FEF75CBC000402400246802141
:102970000148FEF762BC00000004024070B5054645
:10298000012000F04DFA0020FFF7E2FF00242806A6
:1029900001D5012000E00020FFF7E8FF6806050EE2
:1029A0000220FDF7F3FF0120FFF7D2FF0220FDF721
:1029B000EDFF0020FFF7CCFF0220FDF7E7FF641CCE
:1029C000E4B2082CE3D370BD10B5012000F028FA62
:1029D0000120FFF7CBFF0120FFF7BAFF0420FDF72E
:1029E000D5FF0020FFF7C2FF0420FDF7CFFFBDE8B1
:1029F00010400020FFF7ACBF10B5012000F010FA26
:102A00000020FFF7A5FF0020FFF7B0FF0420FDF72F
:102A1000BDFF0120FFF79CFF0120FFF7A7FFBDE8E6
:102A200010400420FDF7B2BF10B50024204600F08E
:102A3000F7F90120FFF79AFF0120FDF7A7FF01201A
:102A4000FFF786FF0120FDF7A1FF07E0641CE4B259
:102A5000FA2C03D9FFF7D0FF002010BDFFF780FF4D
:102A60000128F3D00020FFF773FF012010BD000004
:102A700010B59CB01C2216496846FDF7C7FD002121
:102A8000684600F081FF134C11491C2220601C3164
:102A900007A8FDF7BBFD002107A800F075FF0C4952
:102AA00060601C2238310EA8FDF7B0FD00210EA891
:102AB00000F06AFF0649A0601C22543115A8FDF7FA
:102AC000A5FD002115A800F05FFFE0601CB010BD5F
:102AD000244400082C0000202DE9F04387B0142185
:102AE0006846FDF7C5FD4B480026016841F004012A
:102AF0000160016801F004010591016841F0800165
:102B00000160016801F080010591016841F0020156
:102B10000160016801F002010591016841F00101C5
:102B20000160016801F001010591016841F00801AF
:102B300001600068DFF8E08000F0080005900122E5
:102B400041F6FF414046FEF778FBDFF8D0900122C6
:102B50004FF48E514846FEF770FB0022382148465C
:102B6000FEF76BFB0124FF20CDE90004CDE902460E
:102B700069464046FEF764FA4FF48450CDE90004FC
:102B8000032569464846CDE90245FEF759FA280271
:102B90004FF40417CDE90007694602944046FEF75A
:102BA0004FFA4FF4E050CDE9000469464046CDE9C4
:102BB0000245FEF745FA0420CDE900076946029474
:102BC0001748FEF73DFA7820CDE900040220CDE950
:102BD000020569464846FEF733FA2002CDE90004B3
:102BE000CDE9024669464846FEF72AFA0022052149
:102BF0000820FEF7B3FB0820FEF7A2FB0022052108
:102C00001720FEF7ABFB1720FEF79AFB07B0BDE8D5
:102C1000F083000030380240000802400004024007
:102C2000000C024010B586B014216846FDF720FD67
:102C30001B48002419490594C0E900147F218160D4
:102C4000FF21C0E9031444618461FEF7CFFF08B19E
:102C5000FDF7C4FE8DF800408DF801408DF802406C
:102C60000394002269460E480494FFF76FF808B1F8
:102C7000FDF7B4FE01208DF814008DF815008DF8D5
:102C800016008DF81740002205A90548FFF712F835
:102C9000002801D0FDF7A2FE06B010BD00280040BC
:102CA00050130020104810B50E4901604FF4827196
:102CB0004160002102228160C0E9031201224261C9
:102CC0005202C0E906210162416281620A21C162A9
:102CD000FFF7B7F8002803D0BDE81040FDF77EBE2F
:102CE00010BD000000380040701300200B4810B5E4
:102CF000094901605F21416000214FF6FF72C0E980
:102D0000021201618161FFF724FA002803D0BDE8B7
:102D10001040FDF763BE10BD00440140C813002001
:102D20000C4810B50A4901604FF4E13141600021BF
:102D300081600C22C160C0E904128161C161FFF7AA
:102D4000E5FC002803D0BDE81040FDF747BE10BDEC
:102D500000100140101400200C4810B54FF0A041A5
:102D600001600421416002220021C0E90321C0E981
:102D7000062101624162C1620163FEF721FB002866
:102D800003D0BDE81040FDF729BE10BD541400204B
:102D9000FEE7FEE7002103E0491C0A38C9B2C0B2D1
:102DA0000A28F9D2090740EA116070472DE9F0417D
:102DB000044600680025C168490618D4C16841F07E
:102DC0008001C160FEF73EFA06464FF47A78042788
:102DD00007E000BFFEF736FA801B404501D9677750
:102DE00001252068C068400601D4002DF2D0284695
:102DF000BDE8F08170B5044600680025C16821F087
:102E00008001C16020688068800606D42046FEF7F5
:102E1000FDFF10B1042060770125284670BD000039
:102E200005490028086820F440400860086801D07F
:102E300040F48040086070470004024001B582B051
:102E400000208DF80400FF200090012301AA02A9B0
:102E50000248FFF78BF89DF804000EBD70130020A8
:102E600038B504461248134B0068B0FBF3F04FF43A
:102E70007A73584300906068B0F5827F0DD10B469D
:102E8000009200228021204600F016F870B1606D9B
:102E900040F020006065032038BD009830B1401E2E
:102EA000009020688068C0430006F6D5002038BD39
:102EB0004800002000366E012DE9F8431E46914679
:102EC00088460446089DFEF7BDF9401B351AFEF7FB
:102ED000B9F9074625480068C0F3CB30684338E0AD
:102EE000701C37D0FEF7AEF9C01BA84203D215B153
:102EF000009860B32CE02068416821F0E001416057
:102F00006068B0F5827F0BD1A068B0F5004F02D0A9
:102F1000B0F5806F04D12068016821F040010160A4
:102F2000A06AB0F5005F09D12068016821F4005162
:102F300001602068016841F400510160012084F8BB
:102F40005100002084F850000320BDE8F8830025DC
:102F5000401E00902068816838EA010004D00021FA
:102F60004945BDD10020F0E70121F9E748000020E4
:102F7000012000F0FDFCFBE74FF4AF750124E0B247
:102F80000121FDF72DFD284600F0F2FC641C64B21F
:102F9000092CF4DB0124E0B20021FDF721FD2846D5
:102FA00000F0E6FC641C64B2092CF4DBE6E70000E8
:102FB00000210348FDF736FD0020FDF77DFDFBE70E
:102FC000AA40F903FDF7EAFE012000F0D1FCFBE77F
:102FD00010B5502080F31188BFF34F8FBFF36F8F70
:102FE00001F052F918B104494FF0805008600020F8
:102FF00080F3118810BD000004ED00E030B593B0FF
:1030000030216846FDF734FB14210CA8FDF730FB96
:103010001D480025016841F080510160006800F002
:10302000805011901948016841F4404101600068E6
:10303000022400F440401190052000904FF48030AD
:103040000190012002908005CDE9064008AA0420E5
:10305000602182E813000B906846FEF711FC08B16E
:1030600072B6FEE70CA90F2081E831004FF48050C2
:10307000CDE90F0503210CA8FEF7F8FA002801D0CE
:1030800072B6FEE713B030BD403802400070004019
:103090000248016841F470010160704788ED00E06A
:1030A0000148FFF75DBA000060190020F0B5026822
:1030B0001D4B1E4C9F031E4D1E4E984207D0B8421A
:1030C00005D0A04203D0A84201D0B04204D122F0E2
:1030D000700C4A6842EA0C02984210D0B8420ED0F6
:1030E000A0420CD0A8420AD0B04208D0124CA04254
:1030F00005D0124CA04202D0114CA04203D122F4C0
:103100004074CA6822434C6922F080022243026064
:103110008A68C2620A688262984201D109690163C1
:1031200001214161F0BD00000000014000040040A9
:1031300000080040000C00400040014000440140F5
:103140000048014010B501F01F030121046A9940B5
:103150008C430462016A9A401143016210BD000071
:1031600070B5046A24F0010404628469056A124E91
:10317000B0420ED0B0F1804F0BD0104EB04208D00C
:103180000F4EB04205D00F4EB04202D00E4EB042AC
:1031900003D124F00304144301E044F001041A07AE
:1031A00024F0F00444EA126225F00A0301F00A0157
:1031B00019438261016270BD0000014000040040BB
:1031C00000080040000C00400040014030B5046A97
:1031D00024F0100404628469056A24F4407444EA0B
:1031E000022222F470444FF6FF7202EA03322243B5
:1031F000A02425F0A00304EA0111194382610162B1
:1032000030BD000070B5044600680169E26821F431
:103210004051114301612169A068E2690843616975
:10322000114308432168CA6849F20C639A43024378
:10323000CA6020684169A26921F44071114341616B
:1032400031492068884202D03049884202D1FEF7D5
:10325000D7FA01E0FEF7C4FAE269002319216425D8
:103260003226B2F5004F626828D0A0FB0101930F0F
:103270009200FDF76CF80146B0FBF5F06FF0180214
:10328000504301EB800006EB0010B0FBF5F000F0BE
:10329000F002B1FBF5F002EB0012B1FBF5F06FF0BC
:1032A0001803584301EB800006EB0010B0FBF5F06B
:1032B00000F00F0021681044886070BDA0FB010180
:1032C00092185B41FDF743F80146B0FBF5F00201AF
:1032D000B1FBF5F06FF01803584301EB800006EBEB
:1032E000C000B0FBF5F000F0F80002EB4002B1FBCB
:1032F000F5F0584301EB800006EBC000B0FBF5F0A1
:1033000000F00700D6E70000001001400014014063
:1033100070B5044606990A9E049D0D98012916D0A1
:10332000E06840F04000E060204600F02BF8A16B20
:103330001EB321F48031A163012D07D1A16841F0B2
:103340000601A160A16841F02001A16070BDA16BE0
:1033500021F48031A163E168094A1140E160E1682C
:1033600021F44011E160012803D1E06840F48010AD
:10337000E060204600F006F8DEE741F48031DAE74D
:10338000BFFFBDFF08B500220D490092009B5B1CEA
:1033900000938B420CD80369002BF7DA0092026984
:1033A00042F001020261009A521C00928A4201D945
:1033B000032008BD0269D207F5D1002008BD000036
:1033C000400D0300D0F8001E21F00301C0F8001EDC
:1033D000D0F8041841F00201C0F80418002070472A
:1033E0002DE9F04F00250E460446DDF82CC0DDF82F
:1033F00024B0109F2846294604EB8002C2F804112D
:10340000401C0F28F8D32046C7B1806B20F400126F
:10341000A263A06B40F40022A26308468846C4F869
:10342000000ED4F800182046C4F80018BCF1010FB3
:1034300016D0D0F8001841F0030116E0D0F80408C7
:1034400040F00202C4F80428A06B40F40012A2630A
:10345000A06B20F40022A263A06B20F48022DBE7A3
:10346000D0F800180BB141F00101C0F8001810218C
:1034700000F094F800B10125204600F071F800B189
:1034800001254046C4F81088C4F81488C4F81C8884
:1034900000214FF000694FF0904A4FF67F3314E05F
:1034A00004EB4112D2F800C9BCF1000F06DA11B1E9
:1034B000C2F800A904E0C4F8009901E0C2F80009CC
:1034C000C2F81009C2F80839491C8E42E8D8002118
:1034D00015E000BF04EB4112D2F800CBBCF1000FA5
:1034E00006DA11B1C2F800AB04E0C4F8009B01E0B9
:1034F000C2F8000BC2F8100BC2F8083B491C8E4200
:10350000E8D8D4F8101821F48072C4F81028A0610B
:103510006FF080406061BBF1000F03D1A06940F003
:103520001000A061A06909490843A0610C9818B176
:10353000A06940F00800A061012F03D1A0690449EF
:103540000843A0612846BDE8F08F000000383C80A9
:1035500004000040816821F0010181600020704773
:1035600008B500220C490092009B5B1C00938B4223
:103570000AD80369002BF7DA009210220261009A40
:10358000521C00928A4201D9032008BD0269D2066A
:10359000F5D4002008BD0000400D030018B500233D
:1035A0000D4A0093009C641C009494420CD804695A
:1035B000002CF7DA0093202343EA8111016100997E
:1035C000491C0091914201D9032018BD0169890667
:1035D000F5D4002018BD0000400D030070B504466E
:1035E000C068002520F0C040E060012901D079B119
:1035F00020E0E06840F00050E0600120FDF700FDB1
:1036000060696D1C10F0010F10D1322DF5D30DE063
:10361000E06840F08040E0600120FDF7F1FC606967
:103620006D1C10F0010F01D0322DF5D3322D01D0D9
:10363000002070BD012070BDFEE7000002464FF47F
:1036400080510148FDF7F9BD0004024010B50403A4
:1036500000F0EAF800F08EF80020FFF7EFFF2020DE
:10366000FFF7ECFB0D480088A0F56F41183902D137
:10367000200EFFF7E3FBC4F30740FFF7DFFBC4F3C3
:103680000720FFF7DBFBE0B2FFF7D8FB0120FFF7D5
:10369000D5FFBDE8104000F06DB80000220000200A
:1036A00070B5044615460E460020FFF7C7FF0320FD
:1036B000FFF7C4FB11480088A0F56F41183902D10B
:1036C000200EFFF7BBFBC4F30740FFF7B7FBC4F3C3
:1036D0000720FFF7B3FBE0B2FFF7B0FB002405E0E3
:1036E000FF20FFF7ABFB3055641CA4B2AC42F7D30C
:1036F000BDE870400120FFF7A1BF000022000020BC
:1037000010B500242046FFF799FF9020FFF796FBA5
:103710000020FFF793FB0020FFF790FB0020FFF74E
:103720008DFBFF20FFF78AFB44EA0024FF20FFF710
:1037300085FB04430120FFF781FF204610BD10B533
:10374000012803D0022803D0032803D0052402E077
:10375000352400E015240020FFF770FF2046FFF716
:103760006DFBFF20FFF76AFB04460120FFF766FFB1
:10377000204610BD10B50120FFF7E1FFC007FAD1C8
:10378000BDE81040012000F0F3B800002DE9F05F23
:10379000C0F30B06DFF88C80070BC6F580548A4611
:1037A00081461546A24200D81446380383464FF49A
:1037B00080524146FFF774FF002006E0321818F8E7
:1037C0000210FF2903D1401C80B2A042F6D3A042D0
:1037D00022D23846FFF73AFF002006E01AF8002010
:1037E0008319401C08F8032080B2A042F6D3584643
:1037F0004FF480524FEA080100F022F8A5420FD0A2
:10380000281BA244A144002685B24FF480547F1C9B
:10381000A542CAD82C46C8E7224651464846EBE79F
:10382000BDE8F09FB400002010B50020FFF706FFB0
:103830000620FFF703FBBDE810400120FFF7FEBEA6
:103840002DE9F0410646C0B2C0F580740F4615461A
:10385000A24200D814464FF48078224639463046BA
:1038600000F00EF8A54208D0281B2744264485B254
:103870004446A542F1D82C46EFE7BDE8F0810000B0
:1038800070B515460E460446FFF7CEFF0020FFF741
:10389000D5FE0220FFF7D2FA11480088A0F56F414B
:1038A000183902D1200EFFF7C9FAC4F30740FFF719
:1038B000C5FAC4F30720FFF7C1FAE0B2FFF7BEFA7A
:1038C000002404E0305DFFF7B9FA641CA4B2AC42F6
:1038D000F8D30120FFF7B2FEBDE87040FFF74ABF02
:1038E000220000200907090E002804DB00F1E02077
:1038F00080F80014704700F00F0000F1E02080F81D
:10390000141D70477047000003490A685206FCD531
:10391000C2B24A607047000000100140FDF7A0FCF1
:10392000FFF76CFBFFF7D8F8FFF77CF9FFF7F8F922
:10393000FFF7B8F9FFF710FAFFF7D8F9FFF798F893
:1039400000F01DF84FF47A7403A0FCF777FD2046D1
:10395000FDF756FBF8E7000048616E7269730D0AC7
:103960000000000001460020842900D0C81C7047D8
:1039700010B500B9012000F023FB002010BD10B5E8
:1039800000F044FB002010BD7FB50D4604464169A0
:10399000B0F9080081B1A16971B1FFF7E3FFD4E983
:1039A00005128DE80700D4E900102B46226900F0CB
:1039B00040FC039004B070BDFFF7D4FF03A9CDE92C
:1039C0000001208A2B4682B2D4E9001000F004FCEA
:1039D000012801D00020EDE70398EBE72DE9F04145
:1039E000184C0F460546E6682068001D00F020FAD6
:1039F00038B9206890F82C10012088402169814353
:103A00002161681C07D137B12168BDE8F0410E483B
:103A1000091D00F051BA20683544B542456021685F
:103A200005D2A06BBDE8F041091D00F02DBA606B16
:103A3000091D00F029FAA06A854200D2A562BDE8FE
:103A4000F08100004C000020841A00202DE9F04194
:103A5000054600F03DFA2E4CA068401CA06020688E
:103A60002C4F10B1606940B32DE02560A06801289B
:103A700029D1002606EB860007EB800000F0F6F95E
:103A8000761C072EF6D323488C3000F0EFF921483E
:103A9000A03000F0EBF91F48B43000F0E7F91D4802
:103AA000C83000F0E3F91B48DC3000F0DFF91948BA
:103AB0008C3060631430A06305E02068E96AC06A56
:103AC000884200D82560606A401C6062E96A012073
:103AD000226988401043206101EB810007EB8000E0
:103AE000291D00F0E9F900F013FA606900280CD0F4
:103AF0002068E96AC06A884207D207494FF08050BF
:103B00000860BFF34F8FBFF36F8FBDE8F0810000F7
:103B10004C000020A819002004ED00E010B5044678
:103B200090F8510058B101280CD002280FD0502035
:103B300080F31188BFF34F8FBFF36F8FFEE7206BC9
:103B400000F0FAF92046BDE8104000F0F5B910BDCC
:103B500010484FF47051420706D0C01D0D4920F0A7
:103B60000700411AC1F570510B4A00230144C2E914
:103B700000030839183A21F0070111604B600B600F
:103B80000B1AC0E9001393604FF00040536050617E
:103B900070470000981A0020A0000020144E154C19
:103BA000A6F1C8074FF08058DFF84C9012E000BF34
:103BB00000F08EF9F068C568281D00F039F9A0689A
:103BC000401EA0606068401E606000F0A1F92846B9
:103BD000FFF7A4FF60680028EAD138680128F9D906
:103BE000C9F80080BFF34F8FBFF36F8FF2E700007B
:103BF000701A00204C00002004ED00E02DE9F04791
:103C00009A46DDE9098481466FF00303206B03EBDC
:103C100082021044089E20F00707780707D0502042
:103C200080F31188BFF34F8FBFF36F8FFEE700253E
:103C300061B1002023180A5C83F834200A5C12B1B9
:103C4000401C1028F6D384F8435001E084F8345027
:103C5000072E00D30626E662C4E91165201D00F098
:103C600010F904F1180000F00CF92461C6F1070006
:103C70006462A061E56484F8505052464946384673
:103C800000F0C0F82060B8F1000F01D0C8F8004083
:103C9000BDE8F08730B5114900E011460A6882425C
:103CA000FBD34B685C18844203D1406818444860D9
:103CB000084643681C18944209D1084C183C2468F3
:103CC000A24209D052681A4442600A68126802602F
:103CD000814200D0086030BD0460F9E7A0000020F8
:103CE0000648416B096829B1416BC968C9684968D0
:103CF000816270474FF0FF31FAE700004C0000206E
:103D000008484068401C4FF0500080F3118804D0F0
:103D1000BFF34F8FBFF36F8FFEE7BFF34F8FBFF33C
:103D20006F8FFEE7A80000202DE9F041054600272F
:103D300000F0A2F9324E306808B9FFF709FF706948
:103D400005424ED1C5B3083568070ED005F007000F
:103D5000C0F108000544680707D0502080F311889F
:103D6000BFF34F8FBFF36F8FFEE72DB370688542AF
:103D700037D82348183001460C6801E020460C462D
:103D80006168A94202D221680029F7D131688C42CA
:103D900027D007682168016060680837411B102937
:103DA0000FD96019420708D0502080F31188BFF363
:103DB0004F8FBFF36F8FFEE713E041606560FFF741
:103DC00069FF61687068401A7060B268904200D202
:103DD000B060706901430020C4E90001F068401C34
:103DE000F06000F0B7FA780707D0502080F3118810
:103DF000BFF34F8FBFF36F8FFEE73846BDE8F0810A
:103E00008800002010B5031F4FF080741C601B1F3A
:103E100021F001011960191F044B0B6014390A606D
:103E2000091F6FF0020244380A6010BD013D00080E
:103E3000D0E9013201699A60D0E901235A604A68E9
:103E4000824201D182684A60002202610868401EF5
:103E50000860086870470000034B036003F15400DA
:103E60000860802010607047FC10002000F10801FD
:103E70004FF0FF32C0E90112C16001610021016011
:103E8000704700210161704730B50B685A1C02D0A1
:103E900000F1080202E0026904E022465468256845
:103EA0009D42FAD953684B6099608A6051600861FD
:103EB0000168491C016030BD42684A6093688B60AC
:103EC00093685960916008610168491C01607047FE
:103ED000502080F31188BFF34F8FBFF36F8F0A49D3
:103EE0004868401C486001280CD10848006810F060
:103EF000FF0F07D0502080F31188BFF34F8FBFF31F
:103F00006F8FFEE770470000A800002004ED00E07E
:103F10000849486828B1401E486001D180F31188E3
:103F20007047502080F31188BFF34F8FBFF36F8F1E
:103F3000FEE70000A800002070B500282AD0164D2A
:103F4000A0F1080460686969084207D1502080F335
:103F50001188BFF34F8FBFF36F8FFEE722683AB12E
:103F6000502080F31188BFF34F8FBFF36F8FFEE7B0
:103F70008843606000F080F86068696808446860A1
:103F80002046FFF787FE2869401C2861BDE8704085
:103F900000F0E0B970BD0000880000204FF0E02084
:103FA00000210161816105494FF47A720968B1FB12
:103FB000F2F1491E4161072101617047480000206C
:103FC00010B5020014D00F48006B38B1502080F3B8
:103FD0001188BFF34F8FBFF36F8FFEE700F04CF8EF
:103FE00000211046FFF7FAFC00F0B4F9002807D1D1
:103FF00005494FF080500860BFF34F8FBFF36F8FBC
:1040000010BD00004C00002004ED00E010B586B0AB
:104010000024039405AA04A903A80494FFF71CFF35
:10402000DDE903010094CDE9011000230EA1104841
:10403000059A00F0FEF80F490028C86211D0502000
:1040400080F31188BFF34F8FBFF36F8F4FF0FF30B6
:10405000886201204861CC6006B0BDE8104000F0E5
:1040600041B806B010BD000049444C4500000000B6
:104070009D3B00084C0000200248016B491C016375
:10408000704700004C0000201448016B11B1012161
:10409000C16170470021C1610169B1FA81F1C1F1CB
:1040A0001F0101EB81020E4951F822306BB101EB87
:1040B000820101F108034A6852684A609A4201D1BC
:1040C00052684A60D16801607047502080F31188BF
:1040D000BFF34F8FBFF36F8FFEE700004C0000204F
:1040E000A81900201CB537480168374A914207D10A
:1040F000502080F31188BFF34F8FBFF36F8FFEE71F
:1041000000683149491E884207D1502080F3118848
:10411000BFF34F8FBFF36F8FFEE72C4908780190F4
:10412000FF20087008788DF800009DF800009DF8C9
:10413000002000F0F000904207D0502080F311885A
:10414000BFF34F8FBFF36F8FFEE79DF80000204C49
:1041500000F0500020700720A06005E09DF80020CE
:1041600052008DF80020401E9DF800201206F5D464
:10417000A060032807D0502080F31188BFF34F8F31
:10418000BFF36F8FFEE74FF44070A0600198087096
:104190000C482030016841F470010160016841F071
:1041A00070410160FFF7FAFE00206060FCF772F8D2
:1041B0000848016841F040410160FCF757F80020D1
:1041C0001CBD000000ED00E071C20F4100E400E002
:1041D000A800002034EF00E02DE9FF5F8346DDE911
:1041E0000E87994616468A469000FFF79DFD05000A
:1041F0001CD05420FFF798FD040014D00020256344
:1042000084F85100CDE90240CDE900874B463246A3
:1042100051465846FFF7F2FC2046FFF717FC0120F5
:1042200004B0BDE8F09F2846FFF786FE4FF0FF3050
:10423000F6E7F0B585B0DDE90B640A9DA6B1DCB107
:10424000542700972663022684F85160002604AFA5
:10425000CDE90246CDE90057FFF7D0FC2046FFF735
:10426000F5FB049805B0F0BD502080F31188BFF332
:104270004F8FBFF36F8FFEE7502080F31188BFF39D
:104280004F8FBFF36F8FFEE72DE9F0412F4C0026D3
:10429000206B28B1A069401CA0613046BDE8F081C8
:1042A000E5686D1CE56013D1606B006838B1502083
:1042B00080F31188BFF34F8FBFF36F8FFEE7606B02
:1042C000A16B6163A063206A401C2062FFF708FDB8
:1042D000A06ADFF87C80854209D3606B0068A0B1DA
:1042E000606BC068C7687868854211D2A062206898
:1042F000C06A00EB800158F82100012800D901268E
:10430000E0690028C9D00126C7E74FF0FF30EDE78C
:10431000381DFFF78DFDB86A18B107F11800FFF7D7
:1043200087FDF96A0120226988401043206101EB72
:10433000810108EB8100391DFFF7BEFDF86A216895
:10434000C96A8842C9D30126C7E700004C00002093
:10435000A81900202DE9F0472C4D00242746286B92
:1043600038B1FFF7B5FD286B401E2863286B40B1BC
:1043700046E0502080F31188BFF34F8FBFF36F8F5B
:10438000FEE7A968224E0120D1B3A6F1B409804608
:104390003068E8B1F068C46804F11800FFF748FD20
:1043A000201DFFF745FDE06A2A6908FA00F1114374
:1043B000296100EB800109EB8100211DFFF77CFDE5
:1043C000E06A2968C96A8842E2D3C5F81C80DFE741
:1043D0000CB1FFF785FCAC6944B14646FFF754FFCA
:1043E00000B1EE61641EF9D10020A861E86938B11E
:1043F0000849012738070860BFF34F8FBFF36F8F5D
:10440000FFF786FD3846BDE8F08700004C0000202D
:104410005C1A002004ED00E04FF04070E1EE100A5D
:1044200070470000F8440008712F000800000000E9
:1044300000000000800000000000000000000000FC
:10444000E8440008792F0008000000000000000088
:10445000800000000000000000000000EC440008A4
:10446000B12F0008020000000000000080000000E2
:104470000000000000000000F0440008C52F000804
:1044800000000000000000008000000000000000AC
:104490000000000000000000000000000102030412
:1044A000060708090000000001020304303132331E
:1044B0003435363738394142434445464030580058
:1044C000303132333435363738396162636465668A
:1044D00040307800040000080000000000000002E6
:1044E00000010000100000004C4544005345470007
:1044F000544553540000000064656661756C745443
:1045000061736B002445000800000020B400000027
:10451000D4010008D8450008B4000020445C000025
:10452000F001000800000000000000000000000092
:1045300000FD61DBF367B7BFE1FFF7FC60DAF2660D
:10454000B6BEE0FEF6000000000000000000000023
:10455000000000000000000000000000000000005B
:104560000100000010000000000000000024F40022
:10457000000000000000000000000000000000003B
:10458000000000000000000000000000000000002B
:10459000000000000000000000000000000000001B
:1045A000000000000000000000000000000000000B
:1045B00000000000000000000000000000000000FB
:1045C00000000000000000000000000000000000EB
:0845D000AAAAAAAA000000003B
:040000050800019955
:00000001FF
