:020000040800F2
:10000000E85C002009030008132900083D230008CC
:100010001129000881090008DD30000800000000F7
:10002000000000000000000000000000490200087D
:100030008309000800000000A5020008352B000815
:1000400023030008230300082303000823030008F8
:1000500023030008230300082303000823030008E8
:10006000B90900082303000823030008230300083C
:1000700023030008230300082303000823030008C8
:1000800023030008230300082303000800000000E6
:10009000000000000000000000000000BF09000890
:1000A0002303000823030008052C0008230300088D
:1000B0002303000823030008230300082303000888
:1000C0002303000823030008230300082303000878
:1000D0002303000823030008230300080000000096
:1000E0002303000823030008230300080000000086
:1000F00000000000000000000000000023030008D2
:100100000000000023030008230300082303000865
:1001100000000000000000000000000000000000DF
:100120002303000823030008230300082303000817
:100130002303000800000000000000000000000091
:100140000000000000000000000000002303000881
:1001500023030008230300082303000823030008E7
:100160002303000823030008000000000000000033
:10017000000000000000000000000000000000007F
:100180000000000023030008000000000000000041
:10019000230300082303000800F002F800F044F8ED
:1001A0000AA090E8000C82448344AAF10107DA45D2
:1001B00001D100F039F8AFF2090EBAE80F0013F0E0
:1001C000010F18BFFB1A43F001031847183E000047
:1001D000383E0000103A24BF78C878C1FAD85207D8
:1001E00024BF30C830C144BF04680C6070470000B1
:1001F0000023002400250026103A28BF78C1FBD830
:10020000520728BF30C148BF0B607047782900F003
:100210004981732900F08482002070471FB503F0E4
:100220006BFE1FBD10B510BD00F0ACFA1146FFF714
:10023000F5FF03F0E3F800F0CAFA03B4FFF7F2FFAA
:1002400003BC03F0CFF800002C4B19680868B0E835
:10025000F04F80F30988BFF36F8F4FF0000080F3F9
:10026000118870470000000008480068006880F3AB
:1002700008884FF0000080F3148862B661B6BFF3BF
:100280004F8FBFF36F8F00DF00BF00BF08ED00E0AE
:10029000DFF80C00016841F470010160704700BF95
:1002A00088ED00E0EFF30980BFF36F8F134B1A68FE
:1002B0001EF0100F08BF20ED108A20E9F04F1060EB
:1002C00009B44FF0500080F31188BFF34F8FBFF394
:1002D0006F8F03F049FC4FF0000080F3118809BCD8
:1002E00019680868B0E8F04F1EF0100F08BFB0ECB6
:1002F000108A80F30988BFF36F8F70474800002091
:10030000EFF305807047000009488047094800471F
:10031000FEE7FEE7FEE7FEE7FEE7FEE7FEE7FEE7B5
:10032000FEE7FEE704480549054A064B7047000012
:10033000F52B000899010008E8560020E85C002031
:10034000E8580020E8580020704753EA020C00F0FB
:1003500069802DE9F04B4FF00006002B1FBFB3FA68
:1003600083F503FA05F424FA05F65E4012BF16433E
:10037000B2FA82F502FA05F4C5F120051EBF22FA91
:1003800005FC44EA0C04203556EA044C4FEA1444B8
:1003900018BF641C4FF000084FF00009904271EB49
:1003A000030C39D3002919BFB1FA81F701FA07F616
:1003B000B0FA80F700FA07F6C7F120071EBF20FA4F
:1003C00007FC46EA0C062037B6FBF4FCA7EB050752
:1003D000103F07F01F0BCBF120060CFA0BFB2CFA99
:1003E00006F644BFB3460026202FA4BF5E464FF05A
:1003F000000B5BEA060C08BF4FF0010B19EB0B0971
:10040000ABFB027C48EB0608C01B06FB02CC0BFBD7
:1004100003CC71EB0C01C1E70B460246414648464E
:10042000BDE8F08B13B54FF000004FF00001AFF3C3
:100430000080BDE81C4070470FB4044910B503AA02
:10044000029800F071F910BC5DF814FB0000002068
:1004500070B50C460546012A05D02878800600D5DF
:10046000EA69002302E0012305E05B1C934202D20B
:10047000E05C0028F9D1A869E618C01AA861286ACA
:10048000184428622846AFF3008004E0D5E9012132
:1004900014F8010B9047B442F8D32846AFF300801C
:1004A00070BD000070B504460D4621461068AFF3DC
:1004B00000802188090502D50F4A7A4402E00E4ADD
:1004C0007A440E32002104F1240305E000F00F0607
:1004D0000009965D5E54491C0028F7D1207800235E
:1004E000000704D5702D02D009B102231132204635
:1004F000BDE8704000F0A9B8CE3A00002DE9F04107
:100500000F4604460020DFF88480F844206220462D
:10051000E168884790B3252806D0D4E901219047A7
:10052000206A401C2062F2E700252046E1688847E7
:100530002028064608DB312E06D208EB060010F80C
:10054000200C08B10543F0E7A80701D525F0040504
:10055000A6B1A6F14100192802D8203645F400655D
:100560003A46314620462560FFF750FE48B1012843
:1005700005D0FF1D27F007070837C8E703E03F1D38
:10058000C5E73046C9E7206ABDE8F081A63A000019
:1005900010B5203AC0F00B80B1E81850203AA0E81E
:1005A0001850B1E81850A0E81850BFF4F5AF5FEA52
:1005B000027C24BFB1E81850A0E8185044BF18C905
:1005C00018C0BDE810405FEA827C24BF51F8043BAC
:1005D00040F8043B08BF7047D20728BF31F8023B00
:1005E00048BF11F8012B28BF20F8023B48BF00F894
:1005F000012B70474FF0000200B513469446964613
:10060000203922BFA0E80C50A0E80C50B1F1200125
:10061000BFF4F7AF090728BFA0E80C5048BF0CC0D3
:100620005DF804EB890028BF40F8042B08BF704731
:1006300048BF20F8022B11F0804F18BF00F8012BA3
:10064000704770477047704770472DE9F0470D4677
:1006500099469246044600F124080168880604D5AC
:10066000E06921F01001216000E00120A84201DDD5
:10067000471B00E00027A1697A1902EB0900081A5C
:10068000A0612078C00602D42046AFF30080002687
:1006900008E0D4E901211AF806009047206A401CBE
:1006A000761C20624E45F4DB2078C0060AD5204631
:1006B000AFF3008006E0D4E9012130209047206AA2
:1006C000401C2062381EA7F10107F4DC07E0D4E9E2
:1006D000012118F805009047206A401C2062281E5E
:1006E000A5F10105F3DC2046AFF300802078000679
:1006F00002D50220BDE8F0870120FBE710B5436971
:1007000013B1AFF3008001E0FFF7A2FE012010BD9E
:10071000127800F124010A7000224A700122EDE7EC
:1007200011684FF0FF32E9E7074B70B50D467B4487
:1007300000F011F80446284600F020F810B14FF000
:10074000FF3070BD204670BDB72C000001694A1C07
:1007500002610878704700B58FB0CDE90131002102
:10076000059105497944CDE9031011466846FFF724
:10077000C5FE0FB000BD0000E5FFFFFF007B00F0ED
:1007800080007047754600F02BF8AE4605006946BC
:10079000534620F00700854618B020B5FFF7C2FD8C
:1007A000BDE820404FF000064FF000074FF0000872
:1007B0004FF0000B21F00701AC46ACE8C009ACE8F3
:1007C000C009ACE8C009ACE8C0098D46704710B557
:1007D0000446AFF300802046BDE81040FFF72DBD72
:1007E000004870478456002010B5FF2000F040F804
:1007F00055280AD05521FF2000F088F8FF2000F08E
:1008000037F8552801D0002010BD012010BD000090
:100810000B4982B008800B48016841F00201016079
:100820000068094900F00200009008484022416039
:10083000828181608021C18102B001F0A1BD0000F0
:10084000240000203038024000040240B010002094
:1008500070B514460D46064606E03046711C8EB251
:1008600000F006F805F8010B641EA4B2F5D270BDC5
:1008700070B505461B4801F044FE1B482C0A008851
:10088000B0F5006F08D3A021164801F00BFE154803
:1008900001F079FE214603E0A02000EB4400C1B244
:1008A000104801F0FFFD0F4801F06DFEE9B20D4860
:1008B00001F0F8FD0B4801F066FE0A4801F021FE48
:1008C000A121084801F0EEFD064801F05CFE002180
:1008D000044801F0B6FD0446024801F033FE20460C
:1008E00070BD0000B01000202400002070B5164636
:1008F0000C46054606E02178284600F007F86D1CF6
:10090000ADB2641C761EB6B2F5D270BD70B50446A9
:100910000E46194801F0F5FD1848250A0088B0F583
:10092000006F08D3A021144801F0BCFD124801F06B
:100930002AFE294603E0A02000EB4500C1B20E4884
:1009400001F0B0FD0C4801F01EFEE1B20A4801F0D2
:10095000A9FD094801F017FE3146074801F0A2FD44
:10096000054801F010FE044801F0ECFDBDE87040C0
:100970000A2002F06DBD0000B0100020240000200D
:10098000FEE7704770B54FF6FA710A4D081A84B247
:1009900028684462284601F0CBFA4FF6F9712868BE
:1009A00001E0426A94B28C42FBD3BDE8704001483A
:1009B00001F026BBB4130020042000F0EBB910B501
:1009C0004FF4807000F0E6F9BDE810404FF400707D
:1009D00000F0E0B972B6FEE70F4B401E81F0010255
:1009E000082817D2DFE800F00406080A0C0E1012DF
:1009F00001210CE002210AE0042108E0082106E0C0
:100A0000102104E0202102E0402100E0802118466E
:100A100000F0C1BA7047000000080240204A10B53B
:100A20001170204990FBF1F21D49491CCA711E4A00
:100A300090FBF2F30A2293FBF2F402FB14338B7166
:100A40001A4B90FBF3F393FBF2F402FB14334B715C
:100A500042F2107390FBF3F393FBF2F402FB1433B6
:100A60000B714FF47A7390FBF3F393FBF2F402FBF8
:100A70001433CB70642390FBF3F393FBF2F402FB8B
:100A800014338B7090FBF2F393FBF2F402FB1433FC
:100A90004B7090FBF2F302FB1300087010BD0000D6
:100AA000040000208096980040420F00A0860100BC
:100AB0002DE9F0410C4E01240746751C3078A04208
:100AC00005EB040010F8011C01D1012200E0002216
:100AD000204600F00BF8384602F0BAFC641CE4B281
:100AE000092CEBD3BDE8F0810400002070B5054669
:100AF00000244AB1234A0A2924D2DFE801F0101267
:100B00001416181A1C1E20221E4A0A320A2919D24B
:100B1000DFE801F00507090B0D0F11131517147805
:100B200010E054780EE094780CE0D4780AE0147960
:100B300008E0547906E0947904E0D47902E0147A6C
:100B400000E0547A5FF0000624FA06F0C00700D0F7
:100B5000012001F0DBFB012001F0E8FB002001F0A7
:100B6000E5FB761CF6B2082EEED36D1EE8B201F05E
:100B700083FB012001F0D2FBBDE87040002001F0B2
:100B8000CDBB00000D00002010B506A0FFF754FCFF
:100B900005A0FFF751FC00F07DF8BDE8104000F023
:100BA0000FB800000D0A000046343131205465733F
:100BB00074205374617274696E673A0D0A00000004
:100BC00010B58CB0182218A16846FFF7E1FC1CA0F4
:100BD000FFF732FC4FF47A74204602F039FCFF2014
:100BE000FFF716FEFFF700FEE0B11BA0FFF724FCA5
:100BF000204602F02DFC162269460020FFF776FE03
:100C0000162206A90020FFF723FE06A918A0FFF769
:100C100013FC19A0FFF710FC4FF4FA6002F018FC67
:100C20000CB010BD15A0E1E74154323443303220FE
:100C3000544553542053756363657373210000005A
:100C4000463431315F544553543A20415432344391
:100C500030320D0A0000000041543234433032205B
:100C6000496E69742053756363657373210D0A00BF
:100C700025730D0A000000000D0A000041543234B3
:100C800043303220496E6974204661696C65642185
:100C90000D0A000030B58DB018221CA16846FFF780
:100CA00077FC02F09DFA04461EA0FFF7C5FB4FF447
:100CB0007A75284602F0CCFB02F044FA14B3A4F58E
:100CC0007F40FF381ED021461BA0FFF7B5FB28460A
:100CD00002F0BEFB1C4C15226946204602F0C6FA03
:100CE000152206A9204602F04BFA06A917A0FFF725
:100CF000A3FB18A0FFF7A0FB4FF4FA6002F0A8FBDB
:100D00000DB030BD14A0FFF797FBE0E75732355127
:100D100031362054455354205375636365737321F2
:100D200000000000463431315F544553543A205797
:100D300032355131360D0A00466C617368204944E2
:100D40003A202523780D0A009CFF1F0025730D0A09
:100D5000000000000D0A0000526561642049442033
:100D60004661696C6564210D0A00000070B5044697
:100D700000F016F90546601C02D0044800780444CF
:100D800000F00EF9401BA042FAD370BD38000020DD
:100D900070470000044910B50A68024202D008609A
:100DA000FFF7F6FF10BD0000143C01402DE9F84F9D
:100DB000DFF8B8A10022012403254FF00F090AF142
:100DC000040BAAF1040E00BF0B6804FA02F63340CC
:100DD000B34273D10F7907F00307012F01D0022F1F
:100DE00016D187684FEA420805FA08FC27EA0C0783
:100DF000D1F80CC00CFA08FC4CEA070CC0F808C08B
:100E00004768B7430E79C6F3001696403E434660E6
:100E10000E79F643B6070DD0C768560005FA06FCF2
:100E200027EA0C07D1F808C00CFA06FC4CEA070CBC
:100E3000C0F80CC00E7906F00306022E10D1D608B9
:100E400000EB8608D8F8206057074FEAD76C09FAFC
:100E50000CF7BE430F6907FA0CF73743C8F8207048
:100E600006684FEA420C05FA0CF7BE430F7907F00B
:100E7000030707FA0CF7374307604E6816F4403F44
:100E80006DD03B4E376847F480473760366822F0B4
:100E9000030706F480460096364E07EB060CDCF896
:100EA000086897073F0F09FA07F826EA0806DFF8EF
:100EB000C880404503D14FF000081EE04FE0DFF846
:100EC000BC80404502D14FF0010816E0DFF8B08049
:100ED000404502D14FF002080FE0DFF8A8804045FE
:100EE00002D14FF0030808E0DFF89C80404502D1B2
:100EF0004FF0040801E04FF0070808FA07F848EA45
:100F00000608CCF80888DAF800605746D1F804C023
:100F10009E435FEACC2C00D51E433E60DBF80060A8
:100F20005F46D1F804C09E435FEA8C2C00D51E4377
:100F30003E60DEF800607746D1F804C09E435FEA69
:100F40008C3C00D51E433E60084F083F3E68D1F8F8
:100F500004C09E435FEACC3C00D51E433E60521C59
:100F6000102AFFF431AFBDE8F88F0000083C0140C3
:100F700044380240003001400000024000040240BA
:100F800000080240000C02400010024000690840C6
:100F900000D0012070470AB1816170470904FBE766
:100FA00001488068704700003800002002488168CE
:100FB0000278114481607047380000200B4810B55A
:100FC000016841F400710160016841F480610160D1
:100FD000016841F480710160032000F08DF80F205A
:100FE00000F006F800F03EF8002010BD003C024082
:100FF00010B5014688B000221A2000F05DF81A20D2
:1010000000F04CF813480024016841F4802101608D
:10101000006805A900F480200690684600F06EFA8A
:1010200000F09CFA0C490D4AB0FBF1F10C48491E46
:10103000026040F2E732C0E90324C0E9011400F085
:1010400036FF10B1012008B010BD054800F0A2FF26
:10105000F9E700004438024040420F0000480140D8
:101060004C1900200C4882B0016841F480410160B5
:10107000006800F4804000900748001F016841F0BC
:10108000805101600068002200F0805000900F2124
:10109000901E02B000F010B844380240002809DB6E
:1010A00000F01F02012191404009800000F1E02082
:1010B000C0F8001170470000F0B40E4B1B680C46DE
:1010C000C3F30223C3F10705042D00D90425191D1C
:1010D000072901D2002300E0DB1E012606FA05F1F4
:1010E000491E214099409E40761E16403143F0BC77
:1010F00002F068B90CED00E0064900F0070208684C
:101100004FF6FF03184040EA0220034A10430860EC
:10111000704700000CED00E00000FA052DE9F041F9
:101120008AB0040005D094F8BD042668002520B1DB
:1011300008E001200AB0BDE8F08184F8BC542046E4
:1011400000F05EF8032084F8BD04F06BC00500D405
:101150002561206801F050FF04F110012822884623
:101160006846FFF715FA94E80F0001F023FE022607
:10117000C8BB0021206801F083FF002001270EE09A
:1011800000EBC00104EB810181F83D7001F83C0FD8
:1011900008810D71CD600D61401CC0B28D61616828
:1011A0008142EDD8002011E000EBC00104EB810189
:1011B00081F87D5281F87C0281F88052C1F8885212
:1011C000C1F88C52401CC0B2C1F89452616881428F
:1011D000EAD8282241466846FFF7DAF994E80F007A
:1011E00001F050FE10B184F8BD64A2E784F83850D5
:1011F00084F8BD74206801F037FE00209AE70000F3
:1012000010B586B0044614216846FFF7F3F920684C
:10121000B0F1A04F27D115480021026842F0010229
:101220000260006800F0010005904FF4C05000908B
:101230000220CDE90101032003900A2004906946B1
:101240000B48FFF7B3FD0948001D016841F080011C
:10125000016006481430016841F480410160006873
:1012600000F48040059006B010BD00003038024008
:10127000000002402DE9F843044600684FF00109E0
:10128000C1074FF0000601D1400729D5DFF82081C2
:10129000C8F86860FFF784FE0746464D05E000BFCA
:1012A000FFF77EFEC01B022859D828680001F7D43A
:1012B000A068217B800140EA0170616808433D49D4
:1012C00084310860C8F86890FFF76AFE074604E0BA
:1012D000FFF766FEC01B022841D828680001F7D539
:1012E0002078800752D533484030016841F0805162
:1012F00001600068304D00F080500090286840F494
:1013000080702860FFF74CFE074604E0FFF748FEB8
:10131000C01B022823D82868C005F7D5254D703595
:10132000286810F4407020D0218A01F44071814275
:101330001BD02868214920F44070C1F800900E604D
:1013400028602868C00710D0FFF72AFE064641F241
:10135000883707E0FFF724FE801BB84202D903203C
:10136000BDE8F88328688007F4D521691148C1F3E6
:1013700001220830032A12D0016821F4F81101601B
:101380002868218AC1F30B010843286020780007F0
:1013900003D50B49207DC1F8E0010020E0E7026899
:1013A000084B22F4F81219400A430260E8E70000F3
:1013B000000047420038024000700040400E4742A3
:1013C00000104742FFFCFF0F2DE9F0470E460500D5
:1013D00065D0DFF81481D8F80000F7B200F00700FC
:1013E000B04207D288F80070D8F8000000F007007B
:1013F000B04254D128683D4C810712D5400703D52F
:10140000206840F4E05020602878000703D5206869
:1014100040F4604020602068A96820F0F000084394
:1014200020602878C0072DD0304968680839012825
:1014300012D0022813D0032811D009688907002987
:101440002DDA216821F0030101432160FFF7A8FD97
:10145000814641F2883A0EE009688903EFE709689E
:101460008901ECE7FFF79CFDA0EB0901514502D98A
:101470000320BDE8F0872068696800F00C00B0EB3D
:10148000810FEFD1D8F80010404601F00701B142BA
:1014900007D90770006800F00700B04201D00120B2
:1014A000E7E72878400705D52068E96820F4E05090
:1014B000084320602878000706D52068296920F4B1
:1014C000604040EAC100206000F058F82168084AF6
:1014D000C1F30311515CC840064908600648006822
:1014E000FFF786FD0020C4E7003C024008380240B8
:1014F000743F0008440000203C0000200F220260DE
:101500000C4A136803F003034360136803F0F0030D
:101510008360136803F4E053C36012684FF4E05330
:1015200003EAD20202610448006800F00700086084
:101530007047000008380240003C0240044805495A
:1015400000680968044AC1F38221515CC8407047B1
:101550004400002008380240843F00080448054940
:1015600000680968044AC1F34231515CC8407047C1
:101570004400002008380240843F0008154810B598
:10158000006810F00C02144813D04110042A0FD048
:10159000082A0ED10F4C241F2268236802F03F0254
:1015A0005B0207D52068C0F38810A0FB010106E0AC
:1015B000084610BD2168C1F38811A1FB000100237A
:1015C000FEF7C3FE2168C1F30141491C4900B0FB8D
:1015D000F1F010BD083802400024F4002DE9F84F66
:1015E00004006ED02078DFF84C93C007A9F1040501
:1015F0004AD009F104000168C1F38101012908D032
:101600000068C0F3810002280AD1D9F80000400226
:1016100006D52868800337D560680028E1D033E01C
:101620006068B0F5803F10D0B0F5A02F286810D0CA
:1016300020F480302860286820F4802028606068CA
:10164000A8B1FFF7ADFC06460DE0286840F48030F5
:10165000F4E740F480202860F7E700BFFFF7A0FC24
:10166000801B642873D828688003F7D50CE0FFF747
:1016700097FC064605E000BFFFF792FC801B64283C
:10168000F0D828688003F7D42078DFF8AC82800790
:101690004FF0000A3ED5A748001D016811F00C0F5D
:1016A00008D00068C0F3810002280BD1D9F80000EF
:1016B000400207D42868800716D5E068012800D1C9
:1016C00012E033E1E068B8B10120C8F80000FFF78C
:1016D00067FC064605E000BFFFF762FC801B02289E
:1016E000C0D828688007F7D52868216920F0F8005D
:1016F00040EAC10028600DE0C8F800A0FFF750FCE8
:10170000064604E0FFF74CFC801B02281FD828681F
:101710008007F7D42078000722D5864F8748616973
:10172000703771B101210160FFF73AFC064604E011
:10173000FFF736FC801B022809D838688007F7D5E8
:101740000EE0C0F800A0FFF72BFC064605E082E0A3
:10175000FFF726FC801B02287DD838688007F7D465
:101760002078400768D5DFF8CCB100270BF13C0B9F
:10177000DBF80000C0000BD4DBF8001041F0805112
:10178000CBF80010DBF80000012700F0805000903B
:101790006B4E3068C00510D4306840F48070306003
:1017A000FFF7FEFB009005E0FFF7FAFB0099401AF7
:1017B000022850D83068C005F6D55E4EA0686C3659
:1017C00001280FD00528306810D020F001003060CB
:1017D000306820F004003060A068B8B1FFF7E0FB8B
:1017E00000900FE0306840F00100F4E740F00400A2
:1017F0003060F7E7FFF7D4FB0099411A41F28830D7
:10180000814266D830688007F4D50EE0FFF7C8FB48
:10181000009007E0FFF7C4FB0099411A41F28830BD
:10182000814256D830688007F4D42FB1DBF800101D
:1018300021F08051CBF80010A069C8B33D49091DC3
:101840000968C1F3810102294AD00228504607D015
:10185000C8F8600000E03CE0FFF7A2FB04463BE074
:101860004746C8F86000FFF79BFB064605E000BF4F
:10187000FFF796FB801B02282BD828688001F7D43D
:10188000D4E907010843A16A2E4A490802EB014145
:10189000626A41EA8211084394F82C1040EA01611F
:1018A000C9F8001001203866FFF77AFB044606E00D
:1018B0003EE000BFFFF774FB001B022809D8286830
:1018C0008001F7D534E000BFFFF76AFB001B022858
:1018D00002D90320BDE8F88F28688001F4D427E0FE
:1018E0000128F7D0D9F80000E26900F480019142A4
:1018F0001CD1226A00F03F01914217D147F6C07116
:10190000626A0140B1EB821F10D1A26A4FF0FF332F
:1019100000F4403103EB5202B1EB024F06D194F8D0
:101920002C1000F07060B0EB016F01D00120D1E706
:101930000020CFE70438024000004742800E4742B3
:10194000007000400000FFFF10B5040002D0607F6F
:1019500010B106E0012010BD00202077204600F0E5
:1019600039F8022060772168CA2048622168532034
:101970004862204600F0DAFF30BB20688168144AD4
:10198000114081602168886862681043D4E90423AB
:101990001A43104388602168E06808612068016983
:1019A000228941EA02410161204600F0E3FF58B973
:1019B00021680A6C22F480220A6421680A6CA369F7
:1019C0001A430A64012161772268FF21516210BD28
:1019D000BFFF8FFF10B586B0044618216846FEF79A
:1019E00009FE0949206888420CD102200090C001FC
:1019F00004906846FFF73EFC08B1FEF7EBFF034991
:101A00000120086006B010BD002800403C0E47428F
:101A100070B50446007F0B46012819D001262677B1
:101A200002206077B2B19878D97840EA01455878B9
:101A30001978000240EA413005432168CA20486213
:101A4000216853204862204600F070FFD0B122E0A8
:101A5000022070BD5878C10603D500F0EF000A30AF
:101A60005870D87800F056FF0204587800F052FF02
:101A700042EA0022987800F04DFF0243187842EACB
:101A80004035DAE70748054020684560204600F009
:101A900071FF00B966772268FF215162002121772A
:101AA00070BD00003FFFFF002DE9F0410446007FBC
:101AB0000D46012823D04FF0010884F81C80022035
:101AC00060772068002780684FEA4060D2B1002824
:101AD00000DBEF70A878297840EA01466878E97859
:101AE000000240EA815006432168CA20486221680A
:101AF00053204862204600F019FFB8B12CE00220C4
:101B0000BDE8F081002800DBEF70287800F002FFCC
:101B10000204687800F0FEFE42EA0022A87800F095
:101B2000F9FE0243E87842EA8056DDE70D480640B8
:101B3000206806602068816821F480218160D5E9F1
:101B40000301084321688A6810438860204600F03A
:101B500011FF08B984F81D802268FF2151622777A0
:101B6000CEE700007F7F7F0070B504460068C16843
:101B700021F0A001C160FFF713FA05464FF47A7611
:101B800007E000BFFFF70CFA401BB04201D9032069
:101B900070BD2068C0688006F4D5002070BD70B5A7
:101BA000040009D0606A002540B125616561A56225
:101BB00094F8510040B10CE0012070BD6068B0F5B0
:101BC000827FF4D0E561F2E784F85050204600F0BF
:101BD00045F8022084F851002068016821F0400196
:101BE0000160A088218900F4827001F40441084357
:101BF000A18901F400610843217C01F0020108433E
:101C0000217D01F001010843218B01F4007108439B
:101C1000217F01F03801084394F8201001F0800181
:101C20000843218D01F40051084321680860A06930
:101C3000042101EA104094F8241001F01001084337
:101C4000216848602068C16921F40061C16165654F
:101C5000012084F85100002070BD000010B586B04E
:101C6000044614216846FEF7C5FC144920688842E2
:101C700021D113480021026842F4804202600068CA
:101C800000F4804005900E481038026842F00202CD
:101C90000260006800F0020005904FF46040009080
:101CA0000220CDE90101032003900520049069463C
:101CB0000448FFF77BF806B010BD00000038004074
:101CC00040380240000402402DE9F84F044690F8E5
:101CD000500000270A9E1D4692468B464FF0010990
:101CE00001280ED0012084F85000FFF759F98046F2
:101CF00094F85100616801280CD0B1F5827F07D1BA
:101D000002E00220BDE8F88FA16809B9042801D0DB
:101D10000227C2E0BBF1000F27D0BAF1000F24D098
:101D20001DB394F85100042802D0052084F8510016
:101D300000206065C4F838A0E587A587C4F830B0F6
:101D4000E586A5862064606420680168490603D49E
:101D5000016841F040010160E068B0F5006F606823
:101D600005D0E8B3012D46D07FE0012795E008B10A
:101D7000012D39D1206B21680088C860206B801C40
:101D80002063E08E401EE0862EE02068816889078F
:101D90000FD5E18E69B1B9F1010F0AD1216B098824
:101DA000C160206B801C2063E08E401EE0864FF0F7
:101DB000000920688168C9070CD0E18F51B1C06863
:101DC000A16B0880A06B801CA063E08F401EE087A1
:101DD0004FF00109FFF7E4F8A0EB0800B04200E083
:101DE00009E001D3701C50D1E08E0028CDD1E08FE6
:101DF0000028CAD13FE0206B216800780873206B6F
:101E0000401C2063E08E401EE0862EE02068816842
:101E100089070FD5E18E69B1B9F1010F0AD1216BA4
:101E200009780173206B401C2063E08E401EE08621
:101E30004FF0000920688168C9070CD0E18F51B1CB
:101E4000C068A16B0870A06B401CA063E08F401EAF
:101E5000E0874FF00109FFF7A3F8A0EB0800B042BC
:101E600002D3701C01D010E07EB1E08E0028CDD1ED
:101E7000E08F0028CAD142463146204600F0A2FD3C
:101E800028B101272020606507E0032705E0A0684E
:101E900018B92068C16880680090012084F851005A
:101EA000002084F8500038462CE77047704710B582
:101EB000040003D094F83D0010B107E0012010BDEC
:101EC000002084F83C00204600F01EF8022084F830
:101ED0003D00211D206800F09BFE012084F8460093
:101EE00084F83E0084F83F0084F8400084F8410004
:101EF00084F8420084F8430084F8440084F84500E4
:101F000084F83D00002010BD08B5006806498842ED
:101F100008D10648016841F400310160006800F40E
:101F20000030009008BD00000044014044380240E9
:101F300090F83D10012901D001207047022180F85E
:101F40003D1000680E4988420ED0B0F1804F0BD092
:101F50000C49884208D00C49884205D00B49884278
:101F600002D00B49884204D1816801F0070106299B
:101F700003D0016841F001010160002070470000BA
:101F8000000001400004004000080040000C004038
:101F90000040014090F83D10012901D00120704718
:101FA000022180F83D100168CA6842F00102CA604F
:101FB00000680E4988420ED0B0F1804F0BD00C491A
:101FC000884208D00B49884205D00B49884202D08C
:101FD0000A49884204D1816801F00701062903D02B
:101FE000016841F0010101600020704700000140DC
:101FF0000004004000080040000C00400040014088
:1020000001680A6A41F211131A4207D10A6A9B1049
:102010001A4203D10A6822F001020A60012180F805
:102020003D1000207047704770B504460068016994
:102030004FF00005C943890715D4C168C943890712
:1020400011D4E91E01610120207720688069800792
:10205000204602D0FFF7E7FF04E000F098F82046A2
:1020600000F096F8257720680169C943490717D41D
:10207000C168C943490713D46FF00401016102200C
:1020800020772068806910F4407F204602D0FFF757
:10209000CAFF04E000F07BF8204600F079F82577CD
:1020A00020680169C943090716D4C168C9430907F3
:1020B00012D46FF008010161042020772068C06904
:1020C0008007204602D0FFF7AEFF04E000F05FF883
:1020D000204600F05DF8257720680169C943C906EC
:1020E00017D4C168C943C90613D46FF01001016148
:1020F000082020772068C06910F4407F204602D075
:10210000FFF791FF04E000F042F8204600F040F8AD
:10211000257720680169C943C90708D1C168C94347
:10212000C90704D1891E0161204600F033F82068F8
:102130000169C943090609D4C168C943090605D420
:102140006FF0800101612046FFF7AFFE2068016952
:10215000C943490609D4C168C943490605D46FF08B
:1021600040010161204600F01FF820680169C94361
:1021700089060BD4C168C943890607D46FF02001D2
:1021800001612046BDE87040FFF790BE70BD70470A
:102190007047000000680349884201D1FEF706BF7E
:1021A0007047000000480140704770B5040004D03B
:1021B00094F83D00002510B106E0012070BD84F8C0
:1021C0003C50204600F022F8242084F83D0020688E
:1021D000C16821F40051C160204600F065FD20680F
:1021E000016921F4904101612068416921F02A01CF
:1021F00041612068C16841F40051C160256420201C
:1022000084F83D0084F83E00002070BD10B586B013
:10221000044614216846FEF7EDF914492068884207
:1022200021D113480021026842F0100202600068C8
:1022300000F0100005900E481438026842F00102C8
:102240000260006800F0010005904FF4C06000904B
:102250000220CDE901010320039007200490694684
:102260000448FEF7A3FD06B010BD000000100140B9
:10227000443802400000024010B508282DD2DFE8A3
:1022800000F00406080F181D2227012012E001208B
:1022900015E0012018E000BF00F028F8012004E05C
:1022A000012016E000F022F80020BDE8104000F008
:1022B00015B8002000F022F80120EDE7002000F022
:1022C0001DF80120EEE7002000F018F80020E3E7F9
:1022D000002000F013F80020E4E710BD02464FF4A0
:1022E00080610148FEF757BE0008024002464FF4E5
:1022F00000610148FEF74FBE0008024002464FF45D
:1023000080510148FEF747BE0008024002460821FE
:102310000148FEF740BE00000004024002461021C2
:102320000148FEF738BE00000004024002462021AA
:102330000148FEF730BE000000040240FEE710B581
:1023400000220446114600F04BF90121204600F01E
:102350003FF800220121204600F042F90220FEF75A
:1023600011FB01220021204600F03AF90220FEF77D
:1023700009FB20460022BDE81040114600F030B9AC
:1023800070B5044601202070606100210322A06125
:10239000C4E90721C4E90C21C4E90A10A08920611D
:1023A00004F110010D466068FEF700FDE089206130
:1023B0002946A068FEF7FAFCA18901226068FEF7B1
:1023C000EAFDE189A068BDE870400122FEF7E3BDA7
:1023D0000170C2898368012905D000F1240142629D
:1023E0001846FEF7E3BC00F110010261F8E710B5F2
:1023F00000220446114600F0F3F801212046FFF7C1
:10240000E7FF01221146204600F0EAF80220FEF71D
:10241000B9FA01220021204600F0E2F80220FEF77E
:10242000B1FA20460022BDE81040114600F0D8B8AD
:1024300021B1C189D0F80800FEF7A8BD81894068A4
:10244000FAE72DE9F0410E46002407462146FFF742
:10245000BFFF002500221146384600F0C1F80220D7
:10246000FEF790FA01220021384600F0B9F8600624
:10247000040E01213846FFF7DBFF012801D1641C5F
:10248000E4B20120FEF77EFA6D1CEDB2082DE1D317
:10249000384626B1FFF753FF2046BDE8F081FFF72D
:1024A000A6FFF9E770B50D4606460121FFF790FF3C
:1024B00000221146304600F093F80024280601D58A
:1024C000012200E000220121304600F089F8680670
:1024D000050E0220FEF756FA01220021304600F0D8
:1024E0007FF80220FEF74EFA00221146304600F037
:1024F00077F80220FEF746FA641CE4B2082CDDD31C
:1025000070BD10B504460121FFF762FF012211469C
:10251000204600F065F801220021204600F060F816
:102520000420FEF72FFA00220121204600F058F87F
:102530000420FEF727FA20460022BDE8104011468D
:1025400000F04EB810B504460121FFF741FF00220C
:102550001146204600F044F800220121204600F0F8
:102560003FF80420FEF70EFA01220021204600F079
:1025700037F801221146204600F032F8BDE810403D
:102580000420FEF7FFB970B5002405462146FFF789
:102590001FFF01221146284600F022F80120FEF715
:1025A000F1F901220021284600F01AF80120FEF777
:1025B000E9F908E0641CE4B2FA2C04D92846FFF7D4
:1025C000C1FF002070BD01212846FFF731FF01281F
:1025D000F0D000221146284600F002F8012070BD1C
:1025E00021B1C189D0F80800FEF7D5BC81894068C7
:1025F000FAE7000010B59CB01C2216496846FDF7AA
:10260000C7FF0021684600F02FFF134C11491C2220
:1026100020601C3107A8FDF7BBFF002107A800F0D0
:1026200023FF0C4960601C2238310EA8FDF7B0FF73
:1026300000210EA800F018FF0649A0601C225431AA
:1026400015A8FDF7A5FF002115A800F00DFFE0601B
:102650001CB010BD043F0008280000202DE9F04305
:1026600087B014216846FDF7C5FF4A480026016877
:1026700041F004010160016801F004010591016865
:1026800041F080010160016801F08001059101685D
:1026900041F002010160016801F002010591016849
:1026A00041F001010160016801F00101059101683B
:1026B00041F0080101600068DFF8DC8000F00800EC
:1026C0000590012241F6FF414046FEF764FCDFF829
:1026D000CC9001224FF488514846FEF75CFC002262
:1026E00038214846FEF757FC0124FF20CDE90004BD
:1026F000CDE9024669464046FEF758FB2003CDE986
:102700000004032569464846CDE90245FEF74EFB25
:1027100028024FF40417CDE90007694602944046A9
:10272000FEF744FB4FF4E050CDE900046946404613
:10273000CDE90245FEF73AFB0420CDE900076946E2
:1027400002941748FEF732FB3820CDE9000402203E
:10275000CDE9020569464846FEF728FB2002CDE98F
:102760000004CDE9024669464846FEF71FFB0022F9
:1027700005210820FEF7A0FC0820FEF78FFC0022B0
:1027800005211720FEF798FC1720FEF787FC07B0FD
:10279000BDE8F083303802400008024000040240E7
:1027A000000C024010B586B014216846FDF722FFE8
:1027B0001B48002419490594C0E900147F21816059
:1027C000FF21C0E9031444618461FFF7BDF808B13B
:1027D000FEF700F98DF800408DF801408DF80240B9
:1027E0000394002269460E480494FFF75DF908B18E
:1027F000FEF7F0F801208DF814008DF815008DF823
:1028000016008DF81740002205A90548FFF700F9CA
:10281000002801D0FEF7DEF806B010BD0028004009
:102820003C130020104810B50E4901604FF482712E
:102830004160002102228160C0E90312012242614D
:102840005202C0E906210162416281620A21C1622D
:10285000FFF7A5F9002803D0BDE81040FEF7BAB88D
:1028600010BD0000003800405C1300200B4810B57C
:10287000094901605F21416000214FF6FF72C0E904
:10288000021201618161FFF712FB002803D0BDE84D
:102890001040FEF79FB810BD00440140B413002063
:1028A0000C4810B50A4901604FF4E1314160002144
:1028B00081600C22C160C0E904128161C161FFF72F
:1028C00074FC002803D0BDE81040FEF783B810BDAB
:1028D00000100140FC1300200C4810B54FF0A0413F
:1028E00001600421416002220021C0E90321C0E906
:1028F000062101624162C1620163FEF70FFC0028FC
:1029000003D0BDE81040FEF765B810BD40140020AC
:10291000FEE7FEE7002103E0491C0A38C9B2C0B255
:102920000A28F9D2090740EA116070472DE9F04101
:10293000044600680025C168490618D4C16841F002
:102940008001C160FEF72CFB06464FF47A7804271D
:1029500007E000BFFEF724FB801B404501D96777E5
:1029600001252068C068400601D4002DF2D0284619
:10297000BDE8F08170B5044600680025C16821F00B
:102980008001C16020688068800606D42046FFF779
:10299000EBF810B1042060770125284670BD0000D7
:1029A00001B582B000208DF80400FF2000900123C3
:1029B00001AA02A90248FFF787F99DF804000EBD9D
:1029C0005C13002038B504461248134B0068B0FB76
:1029D000F3F04FF47A73584300906068B0F5827F4B
:1029E0000DD10B46009200228021204600F016F8FF
:1029F00070B1606D40F020006065032038BD009824
:102A000030B1401E009020688068C0430006F6D5B3
:102A1000002038BD4400002000366E012DE9F84347
:102A20001E46914688460446089DFEF7B9FA401BAB
:102A3000351AFEF7B5FA074625480068C0F3CB30D3
:102A4000684338E0701C37D0FEF7AAFAC01BA842D2
:102A500003D215B1009860B32CE02068416821F0E2
:102A6000E00141606068B0F5827F0BD1A068B0F5ED
:102A7000004F02D0B0F5806F04D12068016821F0CA
:102A800040010160A06AB0F5005F09D120680168CB
:102A900021F4005101602068016841F40051016097
:102AA000012084F85100002084F850000320BDE884
:102AB000F8830025401E00902068816838EA0100F4
:102AC00004D000214945BDD10020F0E70121F9E7FC
:102AD00044000020012000F0BBFCFBE74FF4AF7581
:102AE0000124E0B20121FDF777FF284600F0B0FC99
:102AF000641C64B2092CF4DB0124E0B20021FDF770
:102B00006BFF284600F0A4FC641C64B2092CF4DBC3
:102B1000E6E7000000210348FDF780FF0020FDF7F5
:102B2000C7FFFBE7AA40F903FEF72EF8012000F0EB
:102B30008FFCFBE710B5502080F31188BFF34F8F57
:102B4000BFF36F8F01F010F918B104494FF08050B6
:102B50000860002080F3118810BD000004ED00E043
:102B600030B593B030216846FDF744FD14210CA820
:102B7000FDF740FD1D480025016841F080510160CE
:102B8000006800F0805011901948016841F44041FC
:102B900001600068022400F440401190052000907C
:102BA0004FF480300190012002908005CDE906406D
:102BB00008AA0420602182E813000B906846FEF703
:102BC0000DFD08B172B6FEE70CA90F2081E83100B7
:102BD0004FF48050CDE90F0503210CA8FEF7F4FB5C
:102BE000002801D072B6FEE713B030BD4038024075
:102BF000007000400248016841F4700101607047B4
:102C000088ED00E00148FFF70FBA00004C190020E2
:102C1000F0B502681D4B1E4C9F031E4D1E4E984280
:102C200007D0B84205D0A04203D0A84201D0B0429C
:102C300004D122F0700C4A6842EA0C02984210D08B
:102C4000B8420ED0A0420CD0A8420AD0B04208D060
:102C5000124CA04205D0124CA04202D0114CA0420E
:102C600003D122F44074CA6822434C6922F08002E6
:102C7000224302608A68C2620A688262984201D175
:102C80000969016301214161F0BD000000000140BC
:102C90000004004000080040000C004000400140DB
:102CA000004401400048014070B5044600680169D5
:102CB000E26821F44051114301612169A068E26991
:102CC00008436169114308432168CA6849F20C63EB
:102CD0009A430243CA6020684169A26921F44071A5
:102CE0001143416131492068884202D0304988420D
:102CF00002D1FEF733FC01E0FEF720FCE26900237D
:102D0000192164253226B2F5004F626828D0A0FB55
:102D10000101930F9200FDF718FB0146B0FBF5F09F
:102D20006FF01802504301EB800006EB0010B0FB7F
:102D3000F5F000F0F002B1FBF5F002EB0012B1FB90
:102D4000F5F06FF01803584301EB800006EB00101C
:102D5000B0FBF5F000F00F0021681044886070BDF2
:102D6000A0FB010192185B41FDF7EFFA0146B0FBB1
:102D7000F5F00201B1FBF5F06FF01803584301EBD9
:102D8000800006EBC000B0FBF5F000F0F80002EBAD
:102D90004002B1FBF5F0584301EB800006EBC000A8
:102DA000B0FBF5F000F00700D6E70000001001408E
:102DB0000014014070B5044606990A9E049D0D98C2
:102DC000012916D0E06840F04000E060204600F0A5
:102DD0002BF8A16B1EB321F48031A163012D07D123
:102DE000A16841F00601A160A16841F02001A16045
:102DF00070BDA16B21F48031A163E168094A1140E3
:102E0000E160E16821F44011E160012803D1E0684C
:102E100040F48010E060204600F006F8DEE741F460
:102E20008031DAE7BFFFBDFF08B500220D490092EF
:102E3000009B5B1C00938B420CD80369002BF7DAD4
:102E40000092026942F001020261009A521C009253
:102E50008A4201D9032008BD0269D207F5D10020BA
:102E600008BD0000400D0300D0F8001E21F0030152
:102E7000C0F8001ED0F8041841F00201C0F8041890
:102E8000002070472DE9F04F00250E460446DDF87E
:102E90002CC0DDF824B0109F2846294604EB8002A0
:102EA000C2F80411401C0F28F8D32046C7B1806B2C
:102EB00020F40012A263A06B40F40022A263084633
:102EC0008846C4F8000ED4F800182046C4F800184C
:102ED000BCF1010F16D0D0F8001841F0030116E044
:102EE000D0F8040840F00202C4F80428A06B40F4B3
:102EF0000012A263A06B20F40022A263A06B20F456
:102F00008022DBE7D0F800180BB141F00101C0F8D6
:102F10000018102100F094F800B10125204600F0BF
:102F200071F800B101254046C4F81088C4F814882F
:102F3000C4F81C8800214FF000694FF0904A4FF60A
:102F40007F3314E004EB4112D2F800C9BCF1000F4A
:102F500006DA11B1C2F800A904E0C4F8009901E052
:102F6000C2F80009C2F81009C2F80839491C8E429B
:102F7000E8D8002115E000BF04EB4112D2F800CBE5
:102F8000BCF1000F06DA11B1C2F800AB04E0C4F8DE
:102F9000009B01E0C2F8000BC2F8100BC2F8083B1E
:102FA000491C8E42E8D8D4F8101821F48072C4F875
:102FB0001028A0616FF080406061BBF1000F03D169
:102FC000A06940F01000A061A06909490843A06110
:102FD0000C9818B1A06940F00800A061012F03D13E
:102FE000A06904490843A0612846BDE8F08F0000AD
:102FF00000383C8004000040816821F001018160BC
:103000000020704708B500220C490092009B5B1C11
:1030100000938B420AD80369002BF7DA0092102242
:103020000261009A521C00928A4201D9032008BD15
:103030000269D206F5D4002008BD0000400D03004F
:1030400018B500230D4A0093009C641C0094944220
:103050000CD80469002CF7DA0093202343EA81118D
:1030600001610099491C0091914201D9032018BDCA
:1030700001698906F5D4002018BD0000400D030049
:1030800070B50446C068002520F0C040E06001290A
:1030900001D079B120E0E06840F00050E06001200C
:1030A000FDF764FE60696D1C10F0010F10D1322D28
:1030B000F5D30DE0E06840F08040E0600120FDF7CE
:1030C00055FE60696D1C10F0010F01D0322DF5D353
:1030D000322D01D0002070BD012070BDFEE7000040
:1030E00002464FF480510148FDF755BF00040240ED
:1030F00010B5040300F008F900F0ACF80020FFF769
:10310000EFFF2020FFF74CFC0D480088A0F56F4131
:10311000183902D1200EFFF743FCC4F30740FFF734
:103120003FFCC4F30720FFF73BFCE0B2FFF738FC9D
:103130000120FFF7D5FFBDE8104000F08BB800007C
:103140002200002010B50120FFF7CAFF00F048F868
:103150000A490880A0F56F4118390ED1032000F00C
:103160005EF8C00709D1FFF7BBFFB720FFF718FCD7
:10317000BDE810400120FFF7B3BF10BD22000020C2
:1031800070B5044615460E460020FFF7A9FF032040
:10319000FFF706FC11480088A0F56F41183902D1ED
:1031A000200EFFF7FDFBC4F30740FFF7F9FBC4F364
:1031B0000720FFF7F5FBE0B2FFF7F2FB002405E084
:1031C000FF20FFF7EDFB3055641CA4B2AC42F7D3EF
:1031D000BDE870400120FFF783BF000022000020FF
:1031E00010B500242046FFF77BFF9020FFF7D8FBA7
:1031F0000020FFF7D5FB0020FFF7D2FB0020FFF7F0
:10320000CFFBFF20FFF7CCFB44EA0024FF20FFF7B1
:10321000C7FB04430120FFF763FF204610BD10B534
:10322000012803D0022803D0032803D0052402E09C
:10323000352400E015240020FFF752FF2046FFF759
:10324000AFFBFF20FFF7ACFB04460120FFF748FF70
:10325000204610BD10B50120FFF7E1FFC007FAD1ED
:10326000BDE81040012000F0F3B800002DE9F05F48
:10327000C0F30B06DFF88C80070BC6F580548A4636
:1032800081461546A24200D81446380383464FF4BF
:1032900080524146FFF774FF002006E0321818F80C
:1032A0000210FF2903D1401C80B2A042F6D3A042F5
:1032B00022D23846FFF71CFF002006E01AF8002053
:1032C0008319401C08F8032080B2A042F6D3584668
:1032D0004FF480524FEA080100F022F8A5420FD0C7
:1032E000281BA244A144002685B24FF480547F1CC1
:1032F000A542CAD82C46C8E7224651464846EBE7C5
:10330000BDE8F09FB000002010B50020FFF7E8FEF8
:103310000620FFF745FBBDE810400120FFF7E0BEA7
:103320002DE9F0410646C0B2C0F580740F4615463F
:10333000A24200D814464FF48078224639463046DF
:1033400000F00EF8A54208D0281B2744264485B279
:103350004446A542F1D82C46EFE7BDE8F0810000D5
:1033600070B515460E460446FFF7CEFF0020FFF766
:10337000B7FE0220FFF714FB11480088A0F56F414B
:10338000183902D1200EFFF70BFBC4F30740FFF7FB
:1033900007FBC4F30720FFF703FBE0B2FFF700FBD6
:1033A000002404E0305DFFF7FBFA641CA4B2AC42D9
:1033B000F8D30120FFF794FEBDE87040FFF74ABF45
:1033C000220000200907090E002804DB00F1E0209C
:1033D00080F80014704700F00F0000F1E02080F842
:1033E000141D70477047000003490A685206FCD557
:1033F000C2B24A607047000000100140FDF7DEFDD8
:10340000FFF7AEFBFFF72AF9FFF7CCF9FFF748FA11
:10341000FFF708FAFFF760FAFFF728FAFFF7EAF874
:1034200000F01DF84FF47A7403A0FDF705F820466C
:10343000FDF79CFCF8E7000048616E7269730D0AA5
:103440000000000001460020842900D0C81C7047FD
:1034500010B500B9012000F023FB002010BD10B50D
:1034600000F044FB002010BD7FB50D4604464169C5
:10347000B0F9080081B1A16971B1FFF7E3FFD4E9A8
:1034800005128DE80700D4E900102B46226900F0F0
:1034900040FC039004B070BDFFF7D4FF03A9CDE951
:1034A0000001208A2B4682B2D4E9001000F004FC0F
:1034B000012801D00020EDE70398EBE72DE9F0416A
:1034C000184C0F460546E6682068001D00F020FAFB
:1034D00038B9206890F82C10012088402169814378
:1034E0002161681C07D137B12168BDE8F0410E4861
:1034F000091D00F051BA20683544B5424560216885
:1035000005D2A06BBDE8F041091D00F02DBA606B3B
:10351000091D00F029FAA06A854200D2A562BDE823
:10352000F081000048000020701A00202DE9F041D1
:10353000054600F03DFA2E4CA068401CA0602068B3
:103540002C4F10B1606940B32DE02560A0680128C0
:1035500029D1002606EB860007EB800000F0F6F983
:10356000761C072EF6D323488C3000F0EFF9214863
:10357000A03000F0EBF91F48B43000F0E7F91D4827
:10358000C83000F0E3F91B48DC3000F0DFF91948DF
:103590008C3060631430A06305E02068E96AC06A7B
:1035A000884200D82560606A401C6062E96A012098
:1035B000226988401043206101EB810007EB800005
:1035C000291D00F0E9F900F013FA606900280CD019
:1035D0002068E96AC06A884207D207494FF08050E4
:1035E0000860BFF34F8FBFF36F8FBDE8F08100001D
:1035F000480000209419002004ED00E010B50446B6
:1036000090F8510058B101280CD002280FD050205A
:1036100080F31188BFF34F8FBFF36F8FFEE7206BEE
:1036200000F0FAF92046BDE8104000F0F5B910BDF1
:1036300010484FF47051420706D0C01D0D4920F0CC
:103640000700411AC1F570510B4A00230144C2E939
:1036500000030839183A21F0070111604B600B6034
:103660000B1AC0E9001393604FF0004053605061A3
:1036700070470000841A00209C000020144E154C56
:10368000A6F1C8074FF08058DFF84C9012E000BF59
:1036900000F08EF9F068C568281D00F039F9A068BF
:1036A000401EA0606068401E606000F0A1F92846DE
:1036B000FFF7A4FF60680028EAD138680128F9D92B
:1036C000C9F80080BFF34F8FBFF36F8FF2E70000A0
:1036D0005C1A00204800002004ED00E02DE9F047CE
:1036E0009A46DDE9098481466FF00303206B03EB02
:1036F00082021044089E20F00707780707D0502068
:1037000080F31188BFF34F8FBFF36F8FFEE7002563
:1037100061B1002023180A5C83F834200A5C12B1DE
:10372000401C1028F6D384F8435001E084F834504C
:10373000072E00D30626E662C4E91165201D00F0BD
:1037400010F904F1180000F00CF92461C6F107002B
:103750006462A061E56484F8505052464946384698
:1037600000F0C0F82060B8F1000F01D0C8F80040A8
:10377000BDE8F08730B5114900E011460A68824281
:10378000FBD34B685C18844203D1406818444860FE
:10379000084643681C18944209D1084C183C246818
:1037A000A24209D052681A4442600A681268026054
:1037B000814200D0086030BD0460F9E79C00002021
:1037C0000648416B096829B1416BC968C9684968F5
:1037D000816270474FF0FF31FAE700004800002097
:1037E00008484068401C4FF0500080F3118804D016
:1037F000BFF34F8FBFF36F8FFEE7BFF34F8FBFF362
:103800006F8FFEE7A40000202DE9F0410546002758
:1038100000F0A2F9324E306808B9FFF709FF70696D
:1038200005424ED1C5B3083568070ED005F0070034
:10383000C0F108000544680707D0502080F31188C4
:10384000BFF34F8FBFF36F8FFEE72DB370688542D4
:1038500037D82348183001460C6801E020460C4652
:103860006168A94202D221680029F7D131688C42EF
:1038700027D007682168016060680837411B10295C
:103880000FD96019420708D0502080F31188BFF388
:103890004F8FBFF36F8FFEE713E041606560FFF766
:1038A00069FF61687068401A7060B268904200D227
:1038B000B060706901430020C4E90001F068401C59
:1038C000F06000F0B7FA780707D0502080F3118835
:1038D000BFF34F8FBFF36F8FFEE73846BDE8F0812F
:1038E0008400002010B5031F4FF080741C601B1F64
:1038F00021F001011960191F044B0B6014390A6093
:10390000091F6FF0020244380A6010BDE137000859
:10391000D0E9013201699A60D0E901235A604A680E
:10392000824201D182684A60002202610868401E1A
:103930000860086870470000034B036003F15400FF
:103940000860802010607047E810002000F1080136
:103950004FF0FF32C0E90112C16001610021016036
:10396000704700210161704730B50B685A1C02D0C6
:1039700000F1080202E0026904E02246546825686A
:103980009D42FAD953684B6099608A605160086122
:103990000168491C016030BD42684A6093688B60D1
:1039A00093685960916008610168491C0160704723
:1039B000502080F31188BFF34F8FBFF36F8F0A49F8
:1039C0004868401C486001280CD10848006810F085
:1039D000FF0F07D0502080F31188BFF34F8FBFF344
:1039E0006F8FFEE770470000A400002004ED00E0A8
:1039F0000849486828B1401E486001D180F3118809
:103A00007047502080F31188BFF34F8FBFF36F8F43
:103A1000FEE70000A400002070B500282AD0164D53
:103A2000A0F1080460686969084207D1502080F35A
:103A30001188BFF34F8FBFF36F8FFEE722683AB153
:103A4000502080F31188BFF34F8FBFF36F8FFEE7D5
:103A50008843606000F080F86068696808446860C6
:103A60002046FFF787FE2869401C2861BDE87040AA
:103A700000F0E0B970BD0000840000204FF0E020AD
:103A800000210161816105494FF47A720968B1FB37
:103A9000F2F1491E41610721016170474400002095
:103AA00010B5020014D00F48006B38B1502080F3DD
:103AB0001188BFF34F8FBFF36F8FFEE700F04CF814
:103AC00000211046FFF7FAFC00F0B4F9002807D1F6
:103AD00005494FF080500860BFF34F8FBFF36F8FE1
:103AE00010BD00004800002004ED00E010B586B0D5
:103AF0000024039405AA04A903A80494FFF71CFF5B
:103B0000DDE903010094CDE9011000230EA1104866
:103B1000059A00F0FEF80F490028C86211D0502025
:103B200080F31188BFF34F8FBFF36F8F4FF0FF30DB
:103B3000886201204861CC6006B0BDE8104000F00A
:103B400041B806B010BD000049444C4500000000DB
:103B50007D360008480000200248016B491C0163C3
:103B600070470000480000201448016B11B101218A
:103B7000C16170470021C1610169B1FA81F1C1F1F0
:103B80001F0101EB81020E4951F822306BB101EBAC
:103B9000820101F108034A6852684A609A4201D1E1
:103BA00052684A60D16801607047502080F31188E4
:103BB000BFF34F8FBFF36F8FFEE700004800002078
:103BC000941900201CB537480168374A914207D143
:103BD000502080F31188BFF34F8FBFF36F8FFEE744
:103BE00000683149491E884207D1502080F311886E
:103BF000BFF34F8FBFF36F8FFEE72C49087801901A
:103C0000FF20087008788DF800009DF800009DF8EE
:103C1000002000F0F000904207D0502080F311887F
:103C2000BFF34F8FBFF36F8FFEE79DF80000204C6E
:103C300000F0500020700720A06005E09DF80020F3
:103C400052008DF80020401E9DF800201206F5D489
:103C5000A060032807D0502080F31188BFF34F8F56
:103C6000BFF36F8FFEE74FF44070A06001980870BB
:103C70000C482030016841F470010160016841F096
:103C800070410160FFF7FAFE00206060FCF700FB66
:103C90000848016841F040410160FCF7E5FA002066
:103CA0001CBD000000ED00E071C20F4100E400E027
:103CB000A400002034EF00E02DE9FF5F8346DDE93A
:103CC0000E87994616468A469000FFF79DFD05002F
:103CD0001CD05420FFF798FD040014D00020256369
:103CE00084F85100CDE90240CDE900874B463246C9
:103CF00051465846FFF7F2FC2046FFF717FC01201B
:103D000004B0BDE8F09F2846FFF786FE4FF0FF3075
:103D1000F6E7F0B585B0DDE90B640A9DA6B1DCB12C
:103D2000542700972663022684F85160002604AFCA
:103D3000CDE90246CDE90057FFF7D0FC2046FFF75A
:103D4000F5FB049805B0F0BD502080F31188BFF357
:103D50004F8FBFF36F8FFEE7502080F31188BFF3C2
:103D60004F8FBFF36F8FFEE72DE9F0412F4C0026F8
:103D7000206B28B1A069401CA0613046BDE8F081ED
:103D8000E5686D1CE56013D1606B006838B15020A8
:103D900080F31188BFF34F8FBFF36F8FFEE7606B27
:103DA000A16B6163A063206A401C2062FFF708FDDD
:103DB000A06ADFF87C80854209D3606B0068A0B1FF
:103DC000606BC068C7687868854211D2A0622068BD
:103DD000C06A00EB800158F82100012800D90126B3
:103DE000E0690028C9D00126C7E74FF0FF30EDE7B2
:103DF000381DFFF78DFDB86A18B107F11800FFF7FD
:103E000087FDF96A0120226988401043206101EB97
:103E1000810108EB8100391DFFF7BEFDF86A2168BA
:103E2000C96A8842C9D30126C7E7000048000020BC
:103E3000941900202DE9F0472C4D00242746286BCB
:103E400038B1FFF7B5FD286B401E2863286B40B1E1
:103E500046E0502080F31188BFF34F8FBFF36F8F80
:103E6000FEE7A968224E0120D1B3A6F1B40980462D
:103E70003068E8B1F068C46804F11800FFF748FD45
:103E8000201DFFF745FDE06A2A6908FA00F1114399
:103E9000296100EB800109EB8100211DFFF77CFD0A
:103EA000E06A2968C96A8842E2D3C5F81C80DFE766
:103EB0000CB1FFF785FCAC6944B14646FFF754FFEF
:103EC00000B1EE61641EF9D10020A861E86938B143
:103ED0000849012738070860BFF34F8FBFF36F8F82
:103EE000FFF786FD3846BDE8F08700004800002057
:103EF000481A002004ED00E04FF04070E1EE100A97
:103F000070470000D83F0008D52A000800000000D4
:103F10000000000080000000000000000000000021
:103F2000C83F0008DD2A0008000000000000000073
:103F3000800000000000000000000000CC3F0008EE
:103F4000152B0008020000000000000080000000A7
:103F50000000000000000000D03F0008292B0008EE
:103F600000000000000000008000000000000000D1
:103F70000000000000000000000000000102030437
:103F80000607080900000000010203043031323343
:103F9000343536373839414243444546403058007D
:103FA00030313233343536373839616263646566AF
:103FB000403078000400000800000000000000020B
:103FC00000010000100000004C454400534547002C
:103FD000544553540000000064656661756C745468
:103FE00061736B000440000800000020B000000076
:103FF000D4010008B4400008B0000020385C000084
:10400000F0010008000000000000000000000000B7
:1040100000FD61DBF367B7BFE1FFF7FC60DAF26632
:10402000B6BEE0FEF6000000000000000000000048
:10403000000000000000000000000000010000007F
:1040400010000000000000000024F4000000000048
:104050000000000000000000000000000000000060
:104060000000000000000000000000000000000050
:104070000000000000000000000000000000000040
:104080000000000000000000000000000000000030
:104090000000000000000000000000000000000020
:1040A000000000000000000000000000AAAAAAAA68
:0440B000000000000C
:040000050800019955
:00000001FF
